{
  "_format": "hh-sol-artifact-1",
  "contractName": "MemeFunderNFT",
  "sourceName": "contracts/NFT.sol",
  "abi": [
    {
      "inputs": [],
      "stateMutability": "nonpayable",
      "type": "constructor"
    },
    {
      "anonymous": false,
      "inputs": [
        {
          "indexed": true,
          "internalType": "address",
          "name": "owner",
          "type": "address"
        },
        {
          "indexed": true,
          "internalType": "address",
          "name": "approved",
          "type": "address"
        },
        {
          "indexed": true,
          "internalType": "uint256",
          "name": "tokenId",
          "type": "uint256"
        }
      ],
      "name": "Approval",
      "type": "event"
    },
    {
      "anonymous": false,
      "inputs": [
        {
          "indexed": true,
          "internalType": "address",
          "name": "owner",
          "type": "address"
        },
        {
          "indexed": true,
          "internalType": "address",
          "name": "operator",
          "type": "address"
        },
        {
          "indexed": false,
          "internalType": "bool",
          "name": "approved",
          "type": "bool"
        }
      ],
      "name": "ApprovalForAll",
      "type": "event"
    },
    {
      "anonymous": false,
      "inputs": [
        {
          "indexed": true,
          "internalType": "bytes32",
          "name": "role",
          "type": "bytes32"
        },
        {
          "indexed": true,
          "internalType": "bytes32",
          "name": "previousAdminRole",
          "type": "bytes32"
        },
        {
          "indexed": true,
          "internalType": "bytes32",
          "name": "newAdminRole",
          "type": "bytes32"
        }
      ],
      "name": "RoleAdminChanged",
      "type": "event"
    },
    {
      "anonymous": false,
      "inputs": [
        {
          "indexed": true,
          "internalType": "bytes32",
          "name": "role",
          "type": "bytes32"
        },
        {
          "indexed": true,
          "internalType": "address",
          "name": "account",
          "type": "address"
        },
        {
          "indexed": true,
          "internalType": "address",
          "name": "sender",
          "type": "address"
        }
      ],
      "name": "RoleGranted",
      "type": "event"
    },
    {
      "anonymous": false,
      "inputs": [
        {
          "indexed": true,
          "internalType": "bytes32",
          "name": "role",
          "type": "bytes32"
        },
        {
          "indexed": true,
          "internalType": "address",
          "name": "account",
          "type": "address"
        },
        {
          "indexed": true,
          "internalType": "address",
          "name": "sender",
          "type": "address"
        }
      ],
      "name": "RoleRevoked",
      "type": "event"
    },
    {
      "anonymous": false,
      "inputs": [
        {
          "indexed": true,
          "internalType": "address",
          "name": "from",
          "type": "address"
        },
        {
          "indexed": true,
          "internalType": "address",
          "name": "to",
          "type": "address"
        },
        {
          "indexed": true,
          "internalType": "uint256",
          "name": "tokenId",
          "type": "uint256"
        }
      ],
      "name": "Transfer",
      "type": "event"
    },
    {
      "inputs": [],
      "name": "DEFAULT_ADMIN_ROLE",
      "outputs": [
        {
          "internalType": "bytes32",
          "name": "",
          "type": "bytes32"
        }
      ],
      "stateMutability": "view",
      "type": "function"
    },
    {
      "inputs": [],
      "name": "MINTER_ROLE",
      "outputs": [
        {
          "internalType": "bytes32",
          "name": "",
          "type": "bytes32"
        }
      ],
      "stateMutability": "view",
      "type": "function"
    },
    {
      "inputs": [
        {
          "internalType": "address",
          "name": "to",
          "type": "address"
        },
        {
          "internalType": "uint256",
          "name": "tokenId",
          "type": "uint256"
        }
      ],
      "name": "approve",
      "outputs": [],
      "stateMutability": "nonpayable",
      "type": "function"
    },
    {
      "inputs": [
        {
          "internalType": "address",
          "name": "owner",
          "type": "address"
        }
      ],
      "name": "balanceOf",
      "outputs": [
        {
          "internalType": "uint256",
          "name": "",
          "type": "uint256"
        }
      ],
      "stateMutability": "view",
      "type": "function"
    },
    {
      "inputs": [
        {
          "internalType": "uint256",
          "name": "tokenId",
          "type": "uint256"
        }
      ],
      "name": "getApproved",
      "outputs": [
        {
          "internalType": "address",
          "name": "",
          "type": "address"
        }
      ],
      "stateMutability": "view",
      "type": "function"
    },
    {
      "inputs": [
        {
          "internalType": "bytes32",
          "name": "role",
          "type": "bytes32"
        }
      ],
      "name": "getRoleAdmin",
      "outputs": [
        {
          "internalType": "bytes32",
          "name": "",
          "type": "bytes32"
        }
      ],
      "stateMutability": "view",
      "type": "function"
    },
    {
      "inputs": [
        {
          "internalType": "bytes32",
          "name": "role",
          "type": "bytes32"
        },
        {
          "internalType": "address",
          "name": "account",
          "type": "address"
        }
      ],
      "name": "grantRole",
      "outputs": [],
      "stateMutability": "nonpayable",
      "type": "function"
    },
    {
      "inputs": [
        {
          "internalType": "bytes32",
          "name": "role",
          "type": "bytes32"
        },
        {
          "internalType": "address",
          "name": "account",
          "type": "address"
        }
      ],
      "name": "hasRole",
      "outputs": [
        {
          "internalType": "bool",
          "name": "",
          "type": "bool"
        }
      ],
      "stateMutability": "view",
      "type": "function"
    },
    {
      "inputs": [
        {
          "internalType": "address",
          "name": "owner",
          "type": "address"
        },
        {
          "internalType": "address",
          "name": "operator",
          "type": "address"
        }
      ],
      "name": "isApprovedForAll",
      "outputs": [
        {
          "internalType": "bool",
          "name": "",
          "type": "bool"
        }
      ],
      "stateMutability": "view",
      "type": "function"
    },
    {
      "inputs": [],
      "name": "name",
      "outputs": [
        {
          "internalType": "string",
          "name": "",
          "type": "string"
        }
      ],
      "stateMutability": "view",
      "type": "function"
    },
    {
      "inputs": [
        {
          "internalType": "uint256",
          "name": "tokenId",
          "type": "uint256"
        }
      ],
      "name": "ownerOf",
      "outputs": [
        {
          "internalType": "address",
          "name": "",
          "type": "address"
        }
      ],
      "stateMutability": "view",
      "type": "function"
    },
    {
      "inputs": [
        {
          "internalType": "bytes32",
          "name": "role",
          "type": "bytes32"
        },
        {
          "internalType": "address",
          "name": "account",
          "type": "address"
        }
      ],
      "name": "renounceRole",
      "outputs": [],
      "stateMutability": "nonpayable",
      "type": "function"
    },
    {
      "inputs": [
        {
          "internalType": "bytes32",
          "name": "role",
          "type": "bytes32"
        },
        {
          "internalType": "address",
          "name": "account",
          "type": "address"
        }
      ],
      "name": "revokeRole",
      "outputs": [],
      "stateMutability": "nonpayable",
      "type": "function"
    },
    {
      "inputs": [
        {
          "internalType": "address",
          "name": "to",
          "type": "address"
        },
        {
          "internalType": "string",
          "name": "uri",
          "type": "string"
        }
      ],
      "name": "safeMint",
      "outputs": [],
      "stateMutability": "nonpayable",
      "type": "function"
    },
    {
      "inputs": [
        {
          "internalType": "address",
          "name": "from",
          "type": "address"
        },
        {
          "internalType": "address",
          "name": "to",
          "type": "address"
        },
        {
          "internalType": "uint256",
          "name": "tokenId",
          "type": "uint256"
        }
      ],
      "name": "safeTransferFrom",
      "outputs": [],
      "stateMutability": "nonpayable",
      "type": "function"
    },
    {
      "inputs": [
        {
          "internalType": "address",
          "name": "from",
          "type": "address"
        },
        {
          "internalType": "address",
          "name": "to",
          "type": "address"
        },
        {
          "internalType": "uint256",
          "name": "tokenId",
          "type": "uint256"
        },
        {
          "internalType": "bytes",
          "name": "data",
          "type": "bytes"
        }
      ],
      "name": "safeTransferFrom",
      "outputs": [],
      "stateMutability": "nonpayable",
      "type": "function"
    },
    {
      "inputs": [
        {
          "internalType": "address",
          "name": "operator",
          "type": "address"
        },
        {
          "internalType": "bool",
          "name": "approved",
          "type": "bool"
        }
      ],
      "name": "setApprovalForAll",
      "outputs": [],
      "stateMutability": "nonpayable",
      "type": "function"
    },
    {
      "inputs": [
        {
          "internalType": "bytes4",
          "name": "interfaceId",
          "type": "bytes4"
        }
      ],
      "name": "supportsInterface",
      "outputs": [
        {
          "internalType": "bool",
          "name": "",
          "type": "bool"
        }
      ],
      "stateMutability": "view",
      "type": "function"
    },
    {
      "inputs": [],
      "name": "symbol",
      "outputs": [
        {
          "internalType": "string",
          "name": "",
          "type": "string"
        }
      ],
      "stateMutability": "view",
      "type": "function"
    },
    {
      "inputs": [
        {
          "internalType": "uint256",
          "name": "tokenId",
          "type": "uint256"
        }
      ],
      "name": "tokenURI",
      "outputs": [
        {
          "internalType": "string",
          "name": "",
          "type": "string"
        }
      ],
      "stateMutability": "view",
      "type": "function"
    },
    {
      "inputs": [
        {
          "internalType": "address",
          "name": "from",
          "type": "address"
        },
        {
          "internalType": "address",
          "name": "to",
          "type": "address"
        },
        {
          "internalType": "uint256",
          "name": "tokenId",
          "type": "uint256"
        }
      ],
      "name": "transferFrom",
      "outputs": [],
      "stateMutability": "nonpayable",
      "type": "function"
    }
  ],
  "bytecode": "0x60806040523480156200001157600080fd5b50604080518082018252600f81526e13595b5948119d5b99195c88139195608a1b602080830191825283518085019094526005845264135153919560da1b908401528151919291620000669160009162000165565b5080516200007c90600190602084019062000165565b506200008e91506000905033620000c0565b620000ba7f9f2df0fed2c77648de5860a4cc508cd0818c85b8b8a1ab4ceeef8d981c8956a633620000c0565b62000248565b60008281526007602090815260408083206001600160a01b038516845290915290205460ff16620001615760008281526007602090815260408083206001600160a01b03851684529091529020805460ff19166001179055620001203390565b6001600160a01b0316816001600160a01b0316837f2f8788117e7eff1d82e926ec794901d17c78024a50270940304540a733656f0d60405160405180910390a45b5050565b82805462000173906200020b565b90600052602060002090601f016020900481019282620001975760008555620001e2565b82601f10620001b257805160ff1916838001178555620001e2565b82800160010185558215620001e2579182015b82811115620001e2578251825591602001919060010190620001c5565b50620001f0929150620001f4565b5090565b5b80821115620001f05760008155600101620001f5565b600181811c908216806200022057607f821691505b602082108114156200024257634e487b7160e01b600052602260045260246000fd5b50919050565b611efa80620002586000396000f3fe608060405234801561001057600080fd5b50600436106101775760003560e01c806370a08231116100d8578063b88d4fde1161008c578063d539139311610066578063d539139314610331578063d547741f14610358578063e985e9c51461036b57600080fd5b8063b88d4fde146102f8578063c87b56dd1461030b578063d204c45e1461031e57600080fd5b806395d89b41116100bd57806395d89b41146102d5578063a217fddf146102dd578063a22cb465146102e557600080fd5b806370a082311461028957806391d148541461029c57600080fd5b8063248a9ca31161012f57806336568abe1161011457806336568abe1461025057806342842e0e146102635780636352211e1461027657600080fd5b8063248a9ca31461020c5780632f2ff15d1461023d57600080fd5b8063081812fc11610160578063081812fc146101b9578063095ea7b3146101e457806323b872dd146101f957600080fd5b806301ffc9a71461017c57806306fdde03146101a4575b600080fd5b61018f61018a36600461195c565b6103a7565b60405190151581526020015b60405180910390f35b6101ac6103b8565b60405161019b91906119d1565b6101cc6101c73660046119e4565b61044a565b6040516001600160a01b03909116815260200161019b565b6101f76101f2366004611a19565b610471565b005b6101f7610207366004611a43565b6105a8565b61022f61021a3660046119e4565b60009081526007602052604090206001015490565b60405190815260200161019b565b6101f761024b366004611a7f565b61062f565b6101f761025e366004611a7f565b610654565b6101f7610271366004611a43565b6106e0565b6101cc6102843660046119e4565b6106fb565b61022f610297366004611aab565b610760565b61018f6102aa366004611a7f565b60009182526007602090815260408084206001600160a01b0393909316845291905290205460ff1690565b6101ac6107fa565b61022f600081565b6101f76102f3366004611ac6565b610809565b6101f7610306366004611b8e565b610814565b6101ac6103193660046119e4565b6108a2565b6101f761032c366004611c0a565b6108ad565b61022f7f9f2df0fed2c77648de5860a4cc508cd0818c85b8b8a1ab4ceeef8d981c8956a681565b6101f7610366366004611a7f565b610906565b61018f610379366004611c6c565b6001600160a01b03918216600090815260056020908152604080832093909416825291909152205460ff1690565b60006103b28261092b565b92915050565b6060600080546103c790611c96565b80601f01602080910402602001604051908101604052809291908181526020018280546103f390611c96565b80156104405780601f1061041557610100808354040283529160200191610440565b820191906000526020600020905b81548152906001019060200180831161042357829003601f168201915b5050505050905090565b600061045582610969565b506000908152600460205260409020546001600160a01b031690565b600061047c826106fb565b9050806001600160a01b0316836001600160a01b0316141561050b5760405162461bcd60e51b815260206004820152602160248201527f4552433732313a20617070726f76616c20746f2063757272656e74206f776e6560448201527f720000000000000000000000000000000000000000000000000000000000000060648201526084015b60405180910390fd5b336001600160a01b038216148061052757506105278133610379565b6105995760405162461bcd60e51b815260206004820152603e60248201527f4552433732313a20617070726f76652063616c6c6572206973206e6f7420746f60448201527f6b656e206f776e6572206e6f7220617070726f76656420666f7220616c6c00006064820152608401610502565b6105a383836109d0565b505050565b6105b23382610a4b565b6106245760405162461bcd60e51b815260206004820152602e60248201527f4552433732313a2063616c6c6572206973206e6f7420746f6b656e206f776e6560448201527f72206e6f7220617070726f7665640000000000000000000000000000000000006064820152608401610502565b6105a3838383610aca565b60008281526007602052604090206001015461064a81610ca4565b6105a38383610cae565b6001600160a01b03811633146106d25760405162461bcd60e51b815260206004820152602f60248201527f416363657373436f6e74726f6c3a2063616e206f6e6c792072656e6f756e636560448201527f20726f6c657320666f722073656c6600000000000000000000000000000000006064820152608401610502565b6106dc8282610d50565b5050565b6105a383838360405180602001604052806000815250610814565b6000818152600260205260408120546001600160a01b0316806103b25760405162461bcd60e51b815260206004820152601860248201527f4552433732313a20696e76616c696420746f6b656e20494400000000000000006044820152606401610502565b60006001600160a01b0382166107de5760405162461bcd60e51b815260206004820152602960248201527f4552433732313a2061646472657373207a65726f206973206e6f74206120766160448201527f6c6964206f776e657200000000000000000000000000000000000000000000006064820152608401610502565b506001600160a01b031660009081526003602052604090205490565b6060600180546103c790611c96565b6106dc338383610dd3565b61081e3383610a4b565b6108905760405162461bcd60e51b815260206004820152602e60248201527f4552433732313a2063616c6c6572206973206e6f7420746f6b656e206f776e6560448201527f72206e6f7220617070726f7665640000000000000000000000000000000000006064820152608401610502565b61089c84848484610ea2565b50505050565b60606103b282610f20565b7f9f2df0fed2c77648de5860a4cc508cd0818c85b8b8a1ab4ceeef8d981c8956a66108d781610ca4565b60006108e260085490565b90506108f2600880546001019055565b6108fc848261104e565b61089c8184611068565b60008281526007602052604090206001015461092181610ca4565b6105a38383610d50565b60006001600160e01b031982167f7965db0b0000000000000000000000000000000000000000000000000000000014806103b257506103b282611111565b6000818152600260205260409020546001600160a01b03166109cd5760405162461bcd60e51b815260206004820152601860248201527f4552433732313a20696e76616c696420746f6b656e20494400000000000000006044820152606401610502565b50565b6000818152600460205260409020805473ffffffffffffffffffffffffffffffffffffffff19166001600160a01b0384169081179091558190610a12826106fb565b6001600160a01b03167f8c5be1e5ebec7d5bd14f71427d1e84f3dd0314c0f7b2291e5b200ac8c7c3b92560405160405180910390a45050565b600080610a57836106fb565b9050806001600160a01b0316846001600160a01b03161480610a9e57506001600160a01b0380821660009081526005602090815260408083209388168352929052205460ff165b80610ac25750836001600160a01b0316610ab78461044a565b6001600160a01b0316145b949350505050565b826001600160a01b0316610add826106fb565b6001600160a01b031614610b595760405162461bcd60e51b815260206004820152602560248201527f4552433732313a207472616e736665722066726f6d20696e636f72726563742060448201527f6f776e65720000000000000000000000000000000000000000000000000000006064820152608401610502565b6001600160a01b038216610bd45760405162461bcd60e51b8152602060048201526024808201527f4552433732313a207472616e7366657220746f20746865207a65726f2061646460448201527f72657373000000000000000000000000000000000000000000000000000000006064820152608401610502565b610bdf6000826109d0565b6001600160a01b0383166000908152600360205260408120805460019290610c08908490611ce7565b90915550506001600160a01b0382166000908152600360205260408120805460019290610c36908490611cfe565b9091555050600081815260026020526040808220805473ffffffffffffffffffffffffffffffffffffffff19166001600160a01b0386811691821790925591518493918716917fddf252ad1be2c89b69c2b068fc378daa952ba7f163c4a11628f55a4df523b3ef91a4505050565b6109cd81336111ac565b60008281526007602090815260408083206001600160a01b038516845290915290205460ff166106dc5760008281526007602090815260408083206001600160a01b03851684529091529020805460ff19166001179055610d0c3390565b6001600160a01b0316816001600160a01b0316837f2f8788117e7eff1d82e926ec794901d17c78024a50270940304540a733656f0d60405160405180910390a45050565b60008281526007602090815260408083206001600160a01b038516845290915290205460ff16156106dc5760008281526007602090815260408083206001600160a01b0385168085529252808320805460ff1916905551339285917ff6391f5c32d9c69d2a47ea670b442974b53935d1edc7fd64eb21e047a839171b9190a45050565b816001600160a01b0316836001600160a01b03161415610e355760405162461bcd60e51b815260206004820152601960248201527f4552433732313a20617070726f766520746f2063616c6c6572000000000000006044820152606401610502565b6001600160a01b03838116600081815260056020908152604080832094871680845294825291829020805460ff191686151590811790915591519182527f17307eab39ab6107e8899845ad3d59bd9653f200f220920489ca2b5937696c31910160405180910390a3505050565b610ead848484610aca565b610eb98484848461122c565b61089c5760405162461bcd60e51b815260206004820152603260248201527f4552433732313a207472616e7366657220746f206e6f6e20455243373231526560448201527131b2b4bb32b91034b6b83632b6b2b73a32b960711b6064820152608401610502565b6060610f2b82610969565b60008281526006602052604081208054610f4490611c96565b80601f0160208091040260200160405190810160405280929190818152602001828054610f7090611c96565b8015610fbd5780601f10610f9257610100808354040283529160200191610fbd565b820191906000526020600020905b815481529060010190602001808311610fa057829003601f168201915b50505050509050600061100060408051808201909152601581527f68747470733a2f2f697066732e696f2f697066732f0000000000000000000000602082015290565b9050805160001415611013575092915050565b81511561104557808260405160200161102d929190611d16565b60405160208183030381529060405292505050919050565b610ac284611384565b6106dc82826040518060200160405280600081525061141d565b6000828152600260205260409020546001600160a01b03166110f25760405162461bcd60e51b815260206004820152602e60248201527f45524337323155524953746f726167653a2055524920736574206f66206e6f6e60448201527f6578697374656e7420746f6b656e0000000000000000000000000000000000006064820152608401610502565b600082815260066020908152604090912082516105a3928401906118ad565b60006001600160e01b031982167f80ac58cd00000000000000000000000000000000000000000000000000000000148061117457506001600160e01b031982167f5b5e139f00000000000000000000000000000000000000000000000000000000145b806103b257507f01ffc9a7000000000000000000000000000000000000000000000000000000006001600160e01b03198316146103b2565b60008281526007602090815260408083206001600160a01b038516845290915290205460ff166106dc576111ea816001600160a01b0316601461149b565b6111f583602061149b565b604051602001611206929190611d45565b60408051601f198184030181529082905262461bcd60e51b8252610502916004016119d1565b60006001600160a01b0384163b1561137957604051630a85bd0160e11b81526001600160a01b0385169063150b7a0290611270903390899088908890600401611dc6565b602060405180830381600087803b15801561128a57600080fd5b505af19250505080156112ba575060408051601f3d908101601f191682019092526112b791810190611e02565b60015b61135f573d8080156112e8576040519150601f19603f3d011682016040523d82523d6000602084013e6112ed565b606091505b5080516113575760405162461bcd60e51b815260206004820152603260248201527f4552433732313a207472616e7366657220746f206e6f6e20455243373231526560448201527131b2b4bb32b91034b6b83632b6b2b73a32b960711b6064820152608401610502565b805181602001fd5b6001600160e01b031916630a85bd0160e11b149050610ac2565b506001949350505050565b606061138f82610969565b60006113cb60408051808201909152601581527f68747470733a2f2f697066732e696f2f697066732f0000000000000000000000602082015290565b905060008151116113eb5760405180602001604052806000815250611416565b806113f584611660565b604051602001611406929190611d16565b6040516020818303038152906040525b9392505050565b611427838361175e565b611434600084848461122c565b6105a35760405162461bcd60e51b815260206004820152603260248201527f4552433732313a207472616e7366657220746f206e6f6e20455243373231526560448201527131b2b4bb32b91034b6b83632b6b2b73a32b960711b6064820152608401610502565b606060006114aa836002611e1f565b6114b5906002611cfe565b67ffffffffffffffff8111156114cd576114cd611b02565b6040519080825280601f01601f1916602001820160405280156114f7576020820181803683370190505b509050600360fc1b8160008151811061151257611512611e3e565b60200101906001600160f81b031916908160001a9053507f78000000000000000000000000000000000000000000000000000000000000008160018151811061155d5761155d611e3e565b60200101906001600160f81b031916908160001a9053506000611581846002611e1f565b61158c906001611cfe565b90505b6001811115611611577f303132333435363738396162636465660000000000000000000000000000000085600f16601081106115cd576115cd611e3e565b1a60f81b8282815181106115e3576115e3611e3e565b60200101906001600160f81b031916908160001a90535060049490941c9361160a81611e54565b905061158f565b5083156114165760405162461bcd60e51b815260206004820181905260248201527f537472696e67733a20686578206c656e67746820696e73756666696369656e746044820152606401610502565b6060816116845750506040805180820190915260018152600360fc1b602082015290565b8160005b81156116ae578061169881611e6b565b91506116a79050600a83611e9c565b9150611688565b60008167ffffffffffffffff8111156116c9576116c9611b02565b6040519080825280601f01601f1916602001820160405280156116f3576020820181803683370190505b5090505b8415610ac257611708600183611ce7565b9150611715600a86611eb0565b611720906030611cfe565b60f81b81838151811061173557611735611e3e565b60200101906001600160f81b031916908160001a905350611757600a86611e9c565b94506116f7565b6001600160a01b0382166117b45760405162461bcd60e51b815260206004820181905260248201527f4552433732313a206d696e7420746f20746865207a65726f20616464726573736044820152606401610502565b6000818152600260205260409020546001600160a01b0316156118195760405162461bcd60e51b815260206004820152601c60248201527f4552433732313a20746f6b656e20616c7265616479206d696e746564000000006044820152606401610502565b6001600160a01b0382166000908152600360205260408120805460019290611842908490611cfe565b9091555050600081815260026020526040808220805473ffffffffffffffffffffffffffffffffffffffff19166001600160a01b03861690811790915590518392907fddf252ad1be2c89b69c2b068fc378daa952ba7f163c4a11628f55a4df523b3ef908290a45050565b8280546118b990611c96565b90600052602060002090601f0160209004810192826118db5760008555611921565b82601f106118f457805160ff1916838001178555611921565b82800160010185558215611921579182015b82811115611921578251825591602001919060010190611906565b5061192d929150611931565b5090565b5b8082111561192d5760008155600101611932565b6001600160e01b0319811681146109cd57600080fd5b60006020828403121561196e57600080fd5b813561141681611946565b60005b8381101561199457818101518382015260200161197c565b8381111561089c5750506000910152565b600081518084526119bd816020860160208601611979565b601f01601f19169290920160200192915050565b60208152600061141660208301846119a5565b6000602082840312156119f657600080fd5b5035919050565b80356001600160a01b0381168114611a1457600080fd5b919050565b60008060408385031215611a2c57600080fd5b611a35836119fd565b946020939093013593505050565b600080600060608486031215611a5857600080fd5b611a61846119fd565b9250611a6f602085016119fd565b9150604084013590509250925092565b60008060408385031215611a9257600080fd5b82359150611aa2602084016119fd565b90509250929050565b600060208284031215611abd57600080fd5b611416826119fd565b60008060408385031215611ad957600080fd5b611ae2836119fd565b915060208301358015158114611af757600080fd5b809150509250929050565b634e487b7160e01b600052604160045260246000fd5b600067ffffffffffffffff80841115611b3357611b33611b02565b604051601f8501601f19908116603f01168101908282118183101715611b5b57611b5b611b02565b81604052809350858152868686011115611b7457600080fd5b858560208301376000602087830101525050509392505050565b60008060008060808587031215611ba457600080fd5b611bad856119fd565b9350611bbb602086016119fd565b925060408501359150606085013567ffffffffffffffff811115611bde57600080fd5b8501601f81018713611bef57600080fd5b611bfe87823560208401611b18565b91505092959194509250565b60008060408385031215611c1d57600080fd5b611c26836119fd565b9150602083013567ffffffffffffffff811115611c4257600080fd5b8301601f81018513611c5357600080fd5b611c6285823560208401611b18565b9150509250929050565b60008060408385031215611c7f57600080fd5b611c88836119fd565b9150611aa2602084016119fd565b600181811c90821680611caa57607f821691505b60208210811415611ccb57634e487b7160e01b600052602260045260246000fd5b50919050565b634e487b7160e01b600052601160045260246000fd5b600082821015611cf957611cf9611cd1565b500390565b60008219821115611d1157611d11611cd1565b500190565b60008351611d28818460208801611979565b835190830190611d3c818360208801611979565b01949350505050565b7f416363657373436f6e74726f6c3a206163636f756e7420000000000000000000815260008351611d7d816017850160208801611979565b7f206973206d697373696e6720726f6c65200000000000000000000000000000006017918401918201528351611dba816028840160208801611979565b01602801949350505050565b60006001600160a01b03808716835280861660208401525083604083015260806060830152611df860808301846119a5565b9695505050505050565b600060208284031215611e1457600080fd5b815161141681611946565b6000816000190483118215151615611e3957611e39611cd1565b500290565b634e487b7160e01b600052603260045260246000fd5b600081611e6357611e63611cd1565b506000190190565b6000600019821415611e7f57611e7f611cd1565b5060010190565b634e487b7160e01b600052601260045260246000fd5b600082611eab57611eab611e86565b500490565b600082611ebf57611ebf611e86565b50069056fea2646970667358221220470a9e2fd4ffc290ae5afef7a1bf7b95d0a6b5a76dc3f70d7c7ff2ab336d8e8c64736f6c63430008090033",
  "linkReferences": {},
  "deployedLinkReferences": {}
}