{"contracts/Auction.sol":{"Auction":{"abi":[{"inputs":[{"internalType":"uint256","name":"_startingBid","type":"uint256"},{"internalType":"address","name":"_paymentToken","type":"address"},{"internalType":"address","name":"_nft","type":"address"},{"internalType":"string","name":"_uri","type":"string"},{"internalType":"address","name":"_recipient","type":"address"},{"internalType":"address","name":"_saleOwner","type":"address"},{"internalType":"uint256","name":"_closingTime","type":"uint256"}],"stateMutability":"nonpayable","type":"constructor"},{"anonymous":false,"inputs":[{"indexed":true,"internalType":"address","name":"sender","type":"address"},{"indexed":false,"internalType":"uint256","name":"amount","type":"uint256"}],"name":"Bid","type":"event"},{"anonymous":false,"inputs":[{"indexed":false,"internalType":"address","name":"winner","type":"address"}],"name":"End","type":"event"},{"anonymous":false,"inputs":[{"indexed":false,"internalType":"string","name":"message","type":"string"}],"name":"EndWithNoBids","type":"event"},{"anonymous":false,"inputs":[{"indexed":false,"internalType":"uint256","name":"auctionClosingTime","type":"uint256"}],"name":"Start","type":"event"},{"anonymous":false,"inputs":[{"indexed":true,"internalType":"address","name":"bidder","type":"address"},{"indexed":false,"internalType":"uint256","name":"amount","type":"uint256"}],"name":"Withdraw","type":"event"},{"inputs":[],"name":"auctionClosingTime","outputs":[{"internalType":"uint256","name":"","type":"uint256"}],"stateMutability":"view","type":"function"},{"inputs":[],"name":"auctionOpen","outputs":[{"internalType":"bool","name":"","type":"bool"}],"stateMutability":"view","type":"function"},{"inputs":[],"name":"beneficiary","outputs":[{"internalType":"address","name":"","type":"address"}],"stateMutability":"view","type":"function"},{"inputs":[{"internalType":"uint256","name":"amount","type":"uint256"}],"name":"bid","outputs":[],"stateMutability":"nonpayable","type":"function"},{"inputs":[{"internalType":"address","name":"","type":"address"}],"name":"bids","outputs":[{"internalType":"uint256","name":"","type":"uint256"}],"stateMutability":"view","type":"function"},{"inputs":[],"name":"end","outputs":[],"stateMutability":"nonpayable","type":"function"},{"inputs":[],"name":"highestBid","outputs":[{"internalType":"uint256","name":"","type":"uint256"}],"stateMutability":"view","type":"function"},{"inputs":[],"name":"highestBidder","outputs":[{"internalType":"address","name":"","type":"address"}],"stateMutability":"view","type":"function"},{"inputs":[],"name":"nft","outputs":[{"internalType":"contract IERC721","name":"","type":"address"}],"stateMutability":"view","type":"function"},{"inputs":[],"name":"paymentToken","outputs":[{"internalType":"contract IERC20","name":"","type":"address"}],"stateMutability":"view","type":"function"},{"inputs":[],"name":"saleOwner","outputs":[{"internalType":"address","name":"","type":"address"}],"stateMutability":"view","type":"function"},{"inputs":[],"name":"saleWinner","outputs":[{"internalType":"address","name":"","type":"address"}],"stateMutability":"view","type":"function"},{"inputs":[{"internalType":"uint256","name":"closingTime","type":"uint256"}],"name":"start","outputs":[],"stateMutability":"nonpayable","type":"function"},{"inputs":[],"name":"withdraw","outputs":[],"stateMutability":"nonpayable","type":"function"}],"evm":{"bytecode":{"linkReferences":{},"object":"60806040523480156200001157600080fd5b5060405162000fe938038062000fe983398101604081905262000034916200028c565b600180546001600160a01b0319166001600160a01b038716179055835162000064906000906020870190620001b3565b50600280546001600160a01b038089166001600160a01b0319928316179092556009899055600380548684169083161790556008899055600480549285169290911691909117905560065460ff600160a01b9091041615620000f75760405162461bcd60e51b81526020600482015260076024820152661cdd185c9d195960ca1b60448201526064015b60405180910390fd5b428111620001535760405162461bcd60e51b815260206004820152602260248201527f436c6f73696e672074696d65206d75737420626520696e207468652066757475604482015261726560f01b6064820152608401620000ee565b6006805460ff60a01b1916600160a01b17905560078190556040517ff06a29c94c6f4edc1085072972d9441f7603e81c8535a308f214285d0653c850906200019e9083815260200190565b60405180910390a15050505050505062000406565b828054620001c190620003c9565b90600052602060002090601f016020900481019282620001e5576000855562000230565b82601f106200020057805160ff191683800117855562000230565b8280016001018555821562000230579182015b828111156200023057825182559160200191906001019062000213565b506200023e92915062000242565b5090565b5b808211156200023e576000815560010162000243565b80516001600160a01b03811681146200027157600080fd5b919050565b634e487b7160e01b600052604160045260246000fd5b600080600080600080600060e0888a031215620002a857600080fd5b875196506020620002bb818a0162000259565b9650620002cb60408a0162000259565b60608a01519096506001600160401b0380821115620002e957600080fd5b818b0191508b601f830112620002fe57600080fd5b81518181111562000313576200031362000276565b604051601f8201601f19908116603f011681019083821181831017156200033e576200033e62000276565b816040528281528e868487010111156200035757600080fd5b600093505b828410156200037b57848401860151818501870152928501926200035c565b828411156200038d5760008684830101525b809950505050505050620003a46080890162000259565b9250620003b460a0890162000259565b915060c0880151905092959891949750929550565b600181811c90821680620003de57607f821691505b602082108114156200040057634e487b7160e01b600052602260045260246000fd5b50919050565b610bd380620004166000396000f3fe608060405234801561001057600080fd5b50600436106100ea5760003560e01c8063786ee8ab1161008c578063b3890faf11610066578063b3890faf146101e3578063bbc54591146101f6578063d57bde7914610209578063efbe1c1c1461021257600080fd5b8063786ee8ab1461019957806391f90157146101bd57806395805dad146101d057600080fd5b8063454a2ab3116100c8578063454a2ab31461013c57806347ccca021461014f57806362ea82db146101625780636d2da76f1461019057600080fd5b80633013ce29146100ef57806338af3eed1461011f5780633ccfd60b14610132575b600080fd5b600254610102906001600160a01b031681565b6040516001600160a01b0390911681526020015b60405180910390f35b600354610102906001600160a01b031681565b61013a61021a565b005b61013a61014a366004610a52565b610350565b600154610102906001600160a01b031681565b610182610170366004610a6b565b600a6020526000908152604090205481565b604051908152602001610116565b61018260075481565b6006546101ad90600160a01b900460ff1681565b6040519015158152602001610116565b600554610102906001600160a01b031681565b61013a6101de366004610a52565b61059e565b600454610102906001600160a01b031681565b600654610102906001600160a01b031681565b61018260095481565b61013a61071c565b6005546001600160a01b031633141561027a5760405162461bcd60e51b815260206004820152601b60248201527f796f75206172652074686520686967686573742062696464657221000000000060448201526064015b60405180910390fd5b336000818152600a60205260408082208054929055600254905163a9059cbb60e01b815260048101939093526024830182905290916001600160a01b039091169063a9059cbb90604401602060405180830381600087803b1580156102de57600080fd5b505af11580156102f2573d6000803e3d6000fd5b505050506040513d601f19601f820116820180604052508101906103169190610a9b565b5060405181815233907f884edad9ce6fa2440d8a54cc123490eb96d2768479d49ff9c7366125a9424364906020015b60405180910390a250565b600654600160a01b900460ff166103975760405162461bcd60e51b815260206004820152600b60248201526a1b9bdd081cdd185c9d195960aa1b6044820152606401610271565b60075442106103e85760405162461bcd60e51b815260206004820152601260248201527f61756374696f6e2068617320656e6465642100000000000000000000000000006044820152606401610271565b600954811161045f5760405162461bcd60e51b815260206004820152602a60248201527f62696420616d6f756e74206d75737420626520686967686572207468616e206860448201527f69676865737420626964000000000000000000000000000000000000000000006064820152608401610271565b6002546040517f23b872dd000000000000000000000000000000000000000000000000000000008152336004820152306024820152604481018390526001600160a01b03909116906323b872dd90606401602060405180830381600087803b1580156104ca57600080fd5b505af11580156104de573d6000803e3d6000fd5b505050506040513d601f19601f820116820180604052508101906105029190610a9b565b506005546001600160a01b031615610547576009546005546001600160a01b03166000908152600a602052604081208054909190610541908490610abd565b90915550505b6005805473ffffffffffffffffffffffffffffffffffffffff19163390811790915560098290556040518281527fe684a55f31b79eca403df938249029212a5925ec6be8012e099b45bc1019e5d290602001610345565b600654600160a01b900460ff16156105f85760405162461bcd60e51b815260206004820152600760248201527f73746172746564000000000000000000000000000000000000000000000000006044820152606401610271565b42811161066d5760405162461bcd60e51b815260206004820152602260248201527f436c6f73696e672074696d65206d75737420626520696e20746865206675747560448201527f72650000000000000000000000000000000000000000000000000000000000006064820152608401610271565b6004546001600160a01b031633146106c75760405162461bcd60e51b815260206004820152600d60248201527f6e6f742073616c654f776e6572000000000000000000000000000000000000006044820152606401610271565b6006805460ff60a01b1916600160a01b17905560078190556040517ff06a29c94c6f4edc1085072972d9441f7603e81c8535a308f214285d0653c850906107119083815260200190565b60405180910390a150565b600654600160a01b900460ff166107635760405162461bcd60e51b815260206004820152600b60248201526a1b9bdd081cdd185c9d195960aa1b6044820152606401610271565b6007544210156107b55760405162461bcd60e51b815260206004820152600960248201527f6e6f7420656e64656400000000000000000000000000000000000000000000006044820152606401610271565b6006805460ff60a01b191690556005546001600160a01b0316158015906107df5750600854600954115b156109f3576001546005546040517fd204c45e0000000000000000000000000000000000000000000000000000000081526001600160a01b039283169263d204c45e9261083492911690600090600401610ae3565b600060405180830381600087803b15801561084e57600080fd5b505af1158015610862573d6000803e3d6000fd5b50506001546040517f36568abe0000000000000000000000000000000000000000000000000000000081527f9f2df0fed2c77648de5860a4cc508cd0818c85b8b8a1ab4ceeef8d981c8956a660048201523060248201526001600160a01b0390911692506336568abe9150604401600060405180830381600087803b1580156108ea57600080fd5b505af11580156108fe573d6000803e3d6000fd5b505060025460035460095460405163a9059cbb60e01b81526001600160a01b03928316600482015260248101919091529116925063a9059cbb9150604401602060405180830381600087803b15801561095657600080fd5b505af115801561096a573d6000803e3d6000fd5b505050506040513d601f19601f8201168201806040525081019061098e9190610a9b565b506005546006805473ffffffffffffffffffffffffffffffffffffffff19166001600160a01b0390921691821790556040519081527fae1fbc361f1e1931e3a4c89d061fc635889296619c3c92a670ac62983f72c335906020015b60405180910390a1565b7fe66cd229a88c7de73f985a5f074db6c68dd65231260a8d8e81f864d5272f30e56040516109e9906020808252601d908201527f6e6f20626964732c2072657374617274207468652061756374696f6e21000000604082015260600190565b600060208284031215610a6457600080fd5b5035919050565b600060208284031215610a7d57600080fd5b81356001600160a01b0381168114610a9457600080fd5b9392505050565b600060208284031215610aad57600080fd5b81518015158114610a9457600080fd5b60008219821115610ade57634e487b7160e01b600052601160045260246000fd5b500190565b6001600160a01b0383168152600060206040818401526000845481600182811c915080831680610b1457607f831692505b858310811415610b3257634e487b7160e01b85526022600452602485fd5b6040880183905260608801818015610b515760018114610b6257610b8d565b60ff19861682528782019650610b8d565b60008b81526020902060005b86811015610b8757815484820152908501908901610b6e565b83019750505b50949a995050505050505050505056fea26469706673582212204a65f92846554fae18f6ac93f6fe6a483a4966528641698ea13aabadbd86909e64736f6c63430008090033","opcodes":"PUSH1 0x80 PUSH1 0x40 MSTORE CALLVALUE DUP1 ISZERO PUSH3 0x11 JUMPI PUSH1 0x0 DUP1 REVERT JUMPDEST POP PUSH1 0x40 MLOAD PUSH3 0xFE9 CODESIZE SUB DUP1 PUSH3 0xFE9 DUP4 CODECOPY DUP2 ADD PUSH1 0x40 DUP2 SWAP1 MSTORE PUSH3 0x34 SWAP2 PUSH3 0x28C JUMP JUMPDEST PUSH1 0x1 DUP1 SLOAD PUSH1 0x1 PUSH1 0x1 PUSH1 0xA0 SHL SUB NOT AND PUSH1 0x1 PUSH1 0x1 PUSH1 0xA0 SHL SUB DUP8 AND OR SWAP1 SSTORE DUP4 MLOAD PUSH3 0x64 SWAP1 PUSH1 0x0 SWAP1 PUSH1 0x20 DUP8 ADD SWAP1 PUSH3 0x1B3 JUMP JUMPDEST POP PUSH1 0x2 DUP1 SLOAD PUSH1 0x1 PUSH1 0x1 PUSH1 0xA0 SHL SUB DUP1 DUP10 AND PUSH1 0x1 PUSH1 0x1 PUSH1 0xA0 SHL SUB NOT SWAP3 DUP4 AND OR SWAP1 SWAP3 SSTORE PUSH1 0x9 DUP10 SWAP1 SSTORE PUSH1 0x3 DUP1 SLOAD DUP7 DUP5 AND SWAP1 DUP4 AND OR SWAP1 SSTORE PUSH1 0x8 DUP10 SWAP1 SSTORE PUSH1 0x4 DUP1 SLOAD SWAP3 DUP6 AND SWAP3 SWAP1 SWAP2 AND SWAP2 SWAP1 SWAP2 OR SWAP1 SSTORE PUSH1 0x6 SLOAD PUSH1 0xFF PUSH1 0x1 PUSH1 0xA0 SHL SWAP1 SWAP2 DIV AND ISZERO PUSH3 0xF7 JUMPI PUSH1 0x40 MLOAD PUSH3 0x461BCD PUSH1 0xE5 SHL DUP2 MSTORE PUSH1 0x20 PUSH1 0x4 DUP3 ADD MSTORE PUSH1 0x7 PUSH1 0x24 DUP3 ADD MSTORE PUSH7 0x1CDD185C9D1959 PUSH1 0xCA SHL PUSH1 0x44 DUP3 ADD MSTORE PUSH1 0x64 ADD JUMPDEST PUSH1 0x40 MLOAD DUP1 SWAP2 SUB SWAP1 REVERT JUMPDEST TIMESTAMP DUP2 GT PUSH3 0x153 JUMPI PUSH1 0x40 MLOAD PUSH3 0x461BCD PUSH1 0xE5 SHL DUP2 MSTORE PUSH1 0x20 PUSH1 0x4 DUP3 ADD MSTORE PUSH1 0x22 PUSH1 0x24 DUP3 ADD MSTORE PUSH32 0x436C6F73696E672074696D65206D75737420626520696E207468652066757475 PUSH1 0x44 DUP3 ADD MSTORE PUSH2 0x7265 PUSH1 0xF0 SHL PUSH1 0x64 DUP3 ADD MSTORE PUSH1 0x84 ADD PUSH3 0xEE JUMP JUMPDEST PUSH1 0x6 DUP1 SLOAD PUSH1 0xFF PUSH1 0xA0 SHL NOT AND PUSH1 0x1 PUSH1 0xA0 SHL OR SWAP1 SSTORE PUSH1 0x7 DUP2 SWAP1 SSTORE PUSH1 0x40 MLOAD PUSH32 0xF06A29C94C6F4EDC1085072972D9441F7603E81C8535A308F214285D0653C850 SWAP1 PUSH3 0x19E SWAP1 DUP4 DUP2 MSTORE PUSH1 0x20 ADD SWAP1 JUMP JUMPDEST PUSH1 0x40 MLOAD DUP1 SWAP2 SUB SWAP1 LOG1 POP POP POP POP POP POP POP PUSH3 0x406 JUMP JUMPDEST DUP3 DUP1 SLOAD PUSH3 0x1C1 SWAP1 PUSH3 0x3C9 JUMP JUMPDEST SWAP1 PUSH1 0x0 MSTORE PUSH1 0x20 PUSH1 0x0 KECCAK256 SWAP1 PUSH1 0x1F ADD PUSH1 0x20 SWAP1 DIV DUP2 ADD SWAP3 DUP3 PUSH3 0x1E5 JUMPI PUSH1 0x0 DUP6 SSTORE PUSH3 0x230 JUMP JUMPDEST DUP3 PUSH1 0x1F LT PUSH3 0x200 JUMPI DUP1 MLOAD PUSH1 0xFF NOT AND DUP4 DUP1 ADD OR DUP6 SSTORE PUSH3 0x230 JUMP JUMPDEST DUP3 DUP1 ADD PUSH1 0x1 ADD DUP6 SSTORE DUP3 ISZERO PUSH3 0x230 JUMPI SWAP2 DUP3 ADD JUMPDEST DUP3 DUP2 GT ISZERO PUSH3 0x230 JUMPI DUP3 MLOAD DUP3 SSTORE SWAP2 PUSH1 0x20 ADD SWAP2 SWAP1 PUSH1 0x1 ADD SWAP1 PUSH3 0x213 JUMP JUMPDEST POP PUSH3 0x23E SWAP3 SWAP2 POP PUSH3 0x242 JUMP JUMPDEST POP SWAP1 JUMP JUMPDEST JUMPDEST DUP1 DUP3 GT ISZERO PUSH3 0x23E JUMPI PUSH1 0x0 DUP2 SSTORE PUSH1 0x1 ADD PUSH3 0x243 JUMP JUMPDEST DUP1 MLOAD PUSH1 0x1 PUSH1 0x1 PUSH1 0xA0 SHL SUB DUP2 AND DUP2 EQ PUSH3 0x271 JUMPI PUSH1 0x0 DUP1 REVERT JUMPDEST SWAP2 SWAP1 POP JUMP JUMPDEST PUSH4 0x4E487B71 PUSH1 0xE0 SHL PUSH1 0x0 MSTORE PUSH1 0x41 PUSH1 0x4 MSTORE PUSH1 0x24 PUSH1 0x0 REVERT JUMPDEST PUSH1 0x0 DUP1 PUSH1 0x0 DUP1 PUSH1 0x0 DUP1 PUSH1 0x0 PUSH1 0xE0 DUP9 DUP11 SUB SLT ISZERO PUSH3 0x2A8 JUMPI PUSH1 0x0 DUP1 REVERT JUMPDEST DUP8 MLOAD SWAP7 POP PUSH1 0x20 PUSH3 0x2BB DUP2 DUP11 ADD PUSH3 0x259 JUMP JUMPDEST SWAP7 POP PUSH3 0x2CB PUSH1 0x40 DUP11 ADD PUSH3 0x259 JUMP JUMPDEST PUSH1 0x60 DUP11 ADD MLOAD SWAP1 SWAP7 POP PUSH1 0x1 PUSH1 0x1 PUSH1 0x40 SHL SUB DUP1 DUP3 GT ISZERO PUSH3 0x2E9 JUMPI PUSH1 0x0 DUP1 REVERT JUMPDEST DUP2 DUP12 ADD SWAP2 POP DUP12 PUSH1 0x1F DUP4 ADD SLT PUSH3 0x2FE JUMPI PUSH1 0x0 DUP1 REVERT JUMPDEST DUP2 MLOAD DUP2 DUP2 GT ISZERO PUSH3 0x313 JUMPI PUSH3 0x313 PUSH3 0x276 JUMP JUMPDEST PUSH1 0x40 MLOAD PUSH1 0x1F DUP3 ADD PUSH1 0x1F NOT SWAP1 DUP2 AND PUSH1 0x3F ADD AND DUP2 ADD SWAP1 DUP4 DUP3 GT DUP2 DUP4 LT OR ISZERO PUSH3 0x33E JUMPI PUSH3 0x33E PUSH3 0x276 JUMP JUMPDEST DUP2 PUSH1 0x40 MSTORE DUP3 DUP2 MSTORE DUP15 DUP7 DUP5 DUP8 ADD ADD GT ISZERO PUSH3 0x357 JUMPI PUSH1 0x0 DUP1 REVERT JUMPDEST PUSH1 0x0 SWAP4 POP JUMPDEST DUP3 DUP5 LT ISZERO PUSH3 0x37B JUMPI DUP5 DUP5 ADD DUP7 ADD MLOAD DUP2 DUP6 ADD DUP8 ADD MSTORE SWAP3 DUP6 ADD SWAP3 PUSH3 0x35C JUMP JUMPDEST DUP3 DUP5 GT ISZERO PUSH3 0x38D JUMPI PUSH1 0x0 DUP7 DUP5 DUP4 ADD ADD MSTORE JUMPDEST DUP1 SWAP10 POP POP POP POP POP POP POP PUSH3 0x3A4 PUSH1 0x80 DUP10 ADD PUSH3 0x259 JUMP JUMPDEST SWAP3 POP PUSH3 0x3B4 PUSH1 0xA0 DUP10 ADD PUSH3 0x259 JUMP JUMPDEST SWAP2 POP PUSH1 0xC0 DUP9 ADD MLOAD SWAP1 POP SWAP3 SWAP6 SWAP9 SWAP2 SWAP5 SWAP8 POP SWAP3 SWAP6 POP JUMP JUMPDEST PUSH1 0x1 DUP2 DUP2 SHR SWAP1 DUP3 AND DUP1 PUSH3 0x3DE JUMPI PUSH1 0x7F DUP3 AND SWAP2 POP JUMPDEST PUSH1 0x20 DUP3 LT DUP2 EQ ISZERO PUSH3 0x400 JUMPI PUSH4 0x4E487B71 PUSH1 0xE0 SHL PUSH1 0x0 MSTORE PUSH1 0x22 PUSH1 0x4 MSTORE PUSH1 0x24 PUSH1 0x0 REVERT JUMPDEST POP SWAP2 SWAP1 POP JUMP JUMPDEST PUSH2 0xBD3 DUP1 PUSH3 0x416 PUSH1 0x0 CODECOPY PUSH1 0x0 RETURN INVALID PUSH1 0x80 PUSH1 0x40 MSTORE CALLVALUE DUP1 ISZERO PUSH2 0x10 JUMPI PUSH1 0x0 DUP1 REVERT JUMPDEST POP PUSH1 0x4 CALLDATASIZE LT PUSH2 0xEA JUMPI PUSH1 0x0 CALLDATALOAD PUSH1 0xE0 SHR DUP1 PUSH4 0x786EE8AB GT PUSH2 0x8C JUMPI DUP1 PUSH4 0xB3890FAF GT PUSH2 0x66 JUMPI DUP1 PUSH4 0xB3890FAF EQ PUSH2 0x1E3 JUMPI DUP1 PUSH4 0xBBC54591 EQ PUSH2 0x1F6 JUMPI DUP1 PUSH4 0xD57BDE79 EQ PUSH2 0x209 JUMPI DUP1 PUSH4 0xEFBE1C1C EQ PUSH2 0x212 JUMPI PUSH1 0x0 DUP1 REVERT JUMPDEST DUP1 PUSH4 0x786EE8AB EQ PUSH2 0x199 JUMPI DUP1 PUSH4 0x91F90157 EQ PUSH2 0x1BD JUMPI DUP1 PUSH4 0x95805DAD EQ PUSH2 0x1D0 JUMPI PUSH1 0x0 DUP1 REVERT JUMPDEST DUP1 PUSH4 0x454A2AB3 GT PUSH2 0xC8 JUMPI DUP1 PUSH4 0x454A2AB3 EQ PUSH2 0x13C JUMPI DUP1 PUSH4 0x47CCCA02 EQ PUSH2 0x14F JUMPI DUP1 PUSH4 0x62EA82DB EQ PUSH2 0x162 JUMPI DUP1 PUSH4 0x6D2DA76F EQ PUSH2 0x190 JUMPI PUSH1 0x0 DUP1 REVERT JUMPDEST DUP1 PUSH4 0x3013CE29 EQ PUSH2 0xEF JUMPI DUP1 PUSH4 0x38AF3EED EQ PUSH2 0x11F JUMPI DUP1 PUSH4 0x3CCFD60B EQ PUSH2 0x132 JUMPI JUMPDEST PUSH1 0x0 DUP1 REVERT JUMPDEST PUSH1 0x2 SLOAD PUSH2 0x102 SWAP1 PUSH1 0x1 PUSH1 0x1 PUSH1 0xA0 SHL SUB AND DUP2 JUMP JUMPDEST PUSH1 0x40 MLOAD PUSH1 0x1 PUSH1 0x1 PUSH1 0xA0 SHL SUB SWAP1 SWAP2 AND DUP2 MSTORE PUSH1 0x20 ADD JUMPDEST PUSH1 0x40 MLOAD DUP1 SWAP2 SUB SWAP1 RETURN JUMPDEST PUSH1 0x3 SLOAD PUSH2 0x102 SWAP1 PUSH1 0x1 PUSH1 0x1 PUSH1 0xA0 SHL SUB AND DUP2 JUMP JUMPDEST PUSH2 0x13A PUSH2 0x21A JUMP JUMPDEST STOP JUMPDEST PUSH2 0x13A PUSH2 0x14A CALLDATASIZE PUSH1 0x4 PUSH2 0xA52 JUMP JUMPDEST PUSH2 0x350 JUMP JUMPDEST PUSH1 0x1 SLOAD PUSH2 0x102 SWAP1 PUSH1 0x1 PUSH1 0x1 PUSH1 0xA0 SHL SUB AND DUP2 JUMP JUMPDEST PUSH2 0x182 PUSH2 0x170 CALLDATASIZE PUSH1 0x4 PUSH2 0xA6B JUMP JUMPDEST PUSH1 0xA PUSH1 0x20 MSTORE PUSH1 0x0 SWAP1 DUP2 MSTORE PUSH1 0x40 SWAP1 KECCAK256 SLOAD DUP2 JUMP JUMPDEST PUSH1 0x40 MLOAD SWAP1 DUP2 MSTORE PUSH1 0x20 ADD PUSH2 0x116 JUMP JUMPDEST PUSH2 0x182 PUSH1 0x7 SLOAD DUP2 JUMP JUMPDEST PUSH1 0x6 SLOAD PUSH2 0x1AD SWAP1 PUSH1 0x1 PUSH1 0xA0 SHL SWAP1 DIV PUSH1 0xFF AND DUP2 JUMP JUMPDEST PUSH1 0x40 MLOAD SWAP1 ISZERO ISZERO DUP2 MSTORE PUSH1 0x20 ADD PUSH2 0x116 JUMP JUMPDEST PUSH1 0x5 SLOAD PUSH2 0x102 SWAP1 PUSH1 0x1 PUSH1 0x1 PUSH1 0xA0 SHL SUB AND DUP2 JUMP JUMPDEST PUSH2 0x13A PUSH2 0x1DE CALLDATASIZE PUSH1 0x4 PUSH2 0xA52 JUMP JUMPDEST PUSH2 0x59E JUMP JUMPDEST PUSH1 0x4 SLOAD PUSH2 0x102 SWAP1 PUSH1 0x1 PUSH1 0x1 PUSH1 0xA0 SHL SUB AND DUP2 JUMP JUMPDEST PUSH1 0x6 SLOAD PUSH2 0x102 SWAP1 PUSH1 0x1 PUSH1 0x1 PUSH1 0xA0 SHL SUB AND DUP2 JUMP JUMPDEST PUSH2 0x182 PUSH1 0x9 SLOAD DUP2 JUMP JUMPDEST PUSH2 0x13A PUSH2 0x71C JUMP JUMPDEST PUSH1 0x5 SLOAD PUSH1 0x1 PUSH1 0x1 PUSH1 0xA0 SHL SUB AND CALLER EQ ISZERO PUSH2 0x27A JUMPI PUSH1 0x40 MLOAD PUSH3 0x461BCD PUSH1 0xE5 SHL DUP2 MSTORE PUSH1 0x20 PUSH1 0x4 DUP3 ADD MSTORE PUSH1 0x1B PUSH1 0x24 DUP3 ADD MSTORE PUSH32 0x796F752061726520746865206869676865737420626964646572210000000000 PUSH1 0x44 DUP3 ADD MSTORE PUSH1 0x64 ADD JUMPDEST PUSH1 0x40 MLOAD DUP1 SWAP2 SUB SWAP1 REVERT JUMPDEST CALLER PUSH1 0x0 DUP2 DUP2 MSTORE PUSH1 0xA PUSH1 0x20 MSTORE PUSH1 0x40 DUP1 DUP3 KECCAK256 DUP1 SLOAD SWAP3 SWAP1 SSTORE PUSH1 0x2 SLOAD SWAP1 MLOAD PUSH4 0xA9059CBB PUSH1 0xE0 SHL DUP2 MSTORE PUSH1 0x4 DUP2 ADD SWAP4 SWAP1 SWAP4 MSTORE PUSH1 0x24 DUP4 ADD DUP3 SWAP1 MSTORE SWAP1 SWAP2 PUSH1 0x1 PUSH1 0x1 PUSH1 0xA0 SHL SUB SWAP1 SWAP2 AND SWAP1 PUSH4 0xA9059CBB SWAP1 PUSH1 0x44 ADD PUSH1 0x20 PUSH1 0x40 MLOAD DUP1 DUP4 SUB DUP2 PUSH1 0x0 DUP8 DUP1 EXTCODESIZE ISZERO DUP1 ISZERO PUSH2 0x2DE JUMPI PUSH1 0x0 DUP1 REVERT JUMPDEST POP GAS CALL ISZERO DUP1 ISZERO PUSH2 0x2F2 JUMPI RETURNDATASIZE PUSH1 0x0 DUP1 RETURNDATACOPY RETURNDATASIZE PUSH1 0x0 REVERT JUMPDEST POP POP POP POP PUSH1 0x40 MLOAD RETURNDATASIZE PUSH1 0x1F NOT PUSH1 0x1F DUP3 ADD AND DUP3 ADD DUP1 PUSH1 0x40 MSTORE POP DUP2 ADD SWAP1 PUSH2 0x316 SWAP2 SWAP1 PUSH2 0xA9B JUMP JUMPDEST POP PUSH1 0x40 MLOAD DUP2 DUP2 MSTORE CALLER SWAP1 PUSH32 0x884EDAD9CE6FA2440D8A54CC123490EB96D2768479D49FF9C7366125A9424364 SWAP1 PUSH1 0x20 ADD JUMPDEST PUSH1 0x40 MLOAD DUP1 SWAP2 SUB SWAP1 LOG2 POP JUMP JUMPDEST PUSH1 0x6 SLOAD PUSH1 0x1 PUSH1 0xA0 SHL SWAP1 DIV PUSH1 0xFF AND PUSH2 0x397 JUMPI PUSH1 0x40 MLOAD PUSH3 0x461BCD PUSH1 0xE5 SHL DUP2 MSTORE PUSH1 0x20 PUSH1 0x4 DUP3 ADD MSTORE PUSH1 0xB PUSH1 0x24 DUP3 ADD MSTORE PUSH11 0x1B9BDD081CDD185C9D1959 PUSH1 0xAA SHL PUSH1 0x44 DUP3 ADD MSTORE PUSH1 0x64 ADD PUSH2 0x271 JUMP JUMPDEST PUSH1 0x7 SLOAD TIMESTAMP LT PUSH2 0x3E8 JUMPI PUSH1 0x40 MLOAD PUSH3 0x461BCD PUSH1 0xE5 SHL DUP2 MSTORE PUSH1 0x20 PUSH1 0x4 DUP3 ADD MSTORE PUSH1 0x12 PUSH1 0x24 DUP3 ADD MSTORE PUSH32 0x61756374696F6E2068617320656E646564210000000000000000000000000000 PUSH1 0x44 DUP3 ADD MSTORE PUSH1 0x64 ADD PUSH2 0x271 JUMP JUMPDEST PUSH1 0x9 SLOAD DUP2 GT PUSH2 0x45F JUMPI PUSH1 0x40 MLOAD PUSH3 0x461BCD PUSH1 0xE5 SHL DUP2 MSTORE PUSH1 0x20 PUSH1 0x4 DUP3 ADD MSTORE PUSH1 0x2A PUSH1 0x24 DUP3 ADD MSTORE PUSH32 0x62696420616D6F756E74206D75737420626520686967686572207468616E2068 PUSH1 0x44 DUP3 ADD MSTORE PUSH32 0x6967686573742062696400000000000000000000000000000000000000000000 PUSH1 0x64 DUP3 ADD MSTORE PUSH1 0x84 ADD PUSH2 0x271 JUMP JUMPDEST PUSH1 0x2 SLOAD PUSH1 0x40 MLOAD PUSH32 0x23B872DD00000000000000000000000000000000000000000000000000000000 DUP2 MSTORE CALLER PUSH1 0x4 DUP3 ADD MSTORE ADDRESS PUSH1 0x24 DUP3 ADD MSTORE PUSH1 0x44 DUP2 ADD DUP4 SWAP1 MSTORE PUSH1 0x1 PUSH1 0x1 PUSH1 0xA0 SHL SUB SWAP1 SWAP2 AND SWAP1 PUSH4 0x23B872DD SWAP1 PUSH1 0x64 ADD PUSH1 0x20 PUSH1 0x40 MLOAD DUP1 DUP4 SUB DUP2 PUSH1 0x0 DUP8 DUP1 EXTCODESIZE ISZERO DUP1 ISZERO PUSH2 0x4CA JUMPI PUSH1 0x0 DUP1 REVERT JUMPDEST POP GAS CALL ISZERO DUP1 ISZERO PUSH2 0x4DE JUMPI RETURNDATASIZE PUSH1 0x0 DUP1 RETURNDATACOPY RETURNDATASIZE PUSH1 0x0 REVERT JUMPDEST POP POP POP POP PUSH1 0x40 MLOAD RETURNDATASIZE PUSH1 0x1F NOT PUSH1 0x1F DUP3 ADD AND DUP3 ADD DUP1 PUSH1 0x40 MSTORE POP DUP2 ADD SWAP1 PUSH2 0x502 SWAP2 SWAP1 PUSH2 0xA9B JUMP JUMPDEST POP PUSH1 0x5 SLOAD PUSH1 0x1 PUSH1 0x1 PUSH1 0xA0 SHL SUB AND ISZERO PUSH2 0x547 JUMPI PUSH1 0x9 SLOAD PUSH1 0x5 SLOAD PUSH1 0x1 PUSH1 0x1 PUSH1 0xA0 SHL SUB AND PUSH1 0x0 SWAP1 DUP2 MSTORE PUSH1 0xA PUSH1 0x20 MSTORE PUSH1 0x40 DUP2 KECCAK256 DUP1 SLOAD SWAP1 SWAP2 SWAP1 PUSH2 0x541 SWAP1 DUP5 SWAP1 PUSH2 0xABD JUMP JUMPDEST SWAP1 SWAP2 SSTORE POP POP JUMPDEST PUSH1 0x5 DUP1 SLOAD PUSH20 0xFFFFFFFFFFFFFFFFFFFFFFFFFFFFFFFFFFFFFFFF NOT AND CALLER SWAP1 DUP2 OR SWAP1 SWAP2 SSTORE PUSH1 0x9 DUP3 SWAP1 SSTORE PUSH1 0x40 MLOAD DUP3 DUP2 MSTORE PUSH32 0xE684A55F31B79ECA403DF938249029212A5925EC6BE8012E099B45BC1019E5D2 SWAP1 PUSH1 0x20 ADD PUSH2 0x345 JUMP JUMPDEST PUSH1 0x6 SLOAD PUSH1 0x1 PUSH1 0xA0 SHL SWAP1 DIV PUSH1 0xFF AND ISZERO PUSH2 0x5F8 JUMPI PUSH1 0x40 MLOAD PUSH3 0x461BCD PUSH1 0xE5 SHL DUP2 MSTORE PUSH1 0x20 PUSH1 0x4 DUP3 ADD MSTORE PUSH1 0x7 PUSH1 0x24 DUP3 ADD MSTORE PUSH32 0x7374617274656400000000000000000000000000000000000000000000000000 PUSH1 0x44 DUP3 ADD MSTORE PUSH1 0x64 ADD PUSH2 0x271 JUMP JUMPDEST TIMESTAMP DUP2 GT PUSH2 0x66D JUMPI PUSH1 0x40 MLOAD PUSH3 0x461BCD PUSH1 0xE5 SHL DUP2 MSTORE PUSH1 0x20 PUSH1 0x4 DUP3 ADD MSTORE PUSH1 0x22 PUSH1 0x24 DUP3 ADD MSTORE PUSH32 0x436C6F73696E672074696D65206D75737420626520696E207468652066757475 PUSH1 0x44 DUP3 ADD MSTORE PUSH32 0x7265000000000000000000000000000000000000000000000000000000000000 PUSH1 0x64 DUP3 ADD MSTORE PUSH1 0x84 ADD PUSH2 0x271 JUMP JUMPDEST PUSH1 0x4 SLOAD PUSH1 0x1 PUSH1 0x1 PUSH1 0xA0 SHL SUB AND CALLER EQ PUSH2 0x6C7 JUMPI PUSH1 0x40 MLOAD PUSH3 0x461BCD PUSH1 0xE5 SHL DUP2 MSTORE PUSH1 0x20 PUSH1 0x4 DUP3 ADD MSTORE PUSH1 0xD PUSH1 0x24 DUP3 ADD MSTORE PUSH32 0x6E6F742073616C654F776E657200000000000000000000000000000000000000 PUSH1 0x44 DUP3 ADD MSTORE PUSH1 0x64 ADD PUSH2 0x271 JUMP JUMPDEST PUSH1 0x6 DUP1 SLOAD PUSH1 0xFF PUSH1 0xA0 SHL NOT AND PUSH1 0x1 PUSH1 0xA0 SHL OR SWAP1 SSTORE PUSH1 0x7 DUP2 SWAP1 SSTORE PUSH1 0x40 MLOAD PUSH32 0xF06A29C94C6F4EDC1085072972D9441F7603E81C8535A308F214285D0653C850 SWAP1 PUSH2 0x711 SWAP1 DUP4 DUP2 MSTORE PUSH1 0x20 ADD SWAP1 JUMP JUMPDEST PUSH1 0x40 MLOAD DUP1 SWAP2 SUB SWAP1 LOG1 POP JUMP JUMPDEST PUSH1 0x6 SLOAD PUSH1 0x1 PUSH1 0xA0 SHL SWAP1 DIV PUSH1 0xFF AND PUSH2 0x763 JUMPI PUSH1 0x40 MLOAD PUSH3 0x461BCD PUSH1 0xE5 SHL DUP2 MSTORE PUSH1 0x20 PUSH1 0x4 DUP3 ADD MSTORE PUSH1 0xB PUSH1 0x24 DUP3 ADD MSTORE PUSH11 0x1B9BDD081CDD185C9D1959 PUSH1 0xAA SHL PUSH1 0x44 DUP3 ADD MSTORE PUSH1 0x64 ADD PUSH2 0x271 JUMP JUMPDEST PUSH1 0x7 SLOAD TIMESTAMP LT ISZERO PUSH2 0x7B5 JUMPI PUSH1 0x40 MLOAD PUSH3 0x461BCD PUSH1 0xE5 SHL DUP2 MSTORE PUSH1 0x20 PUSH1 0x4 DUP3 ADD MSTORE PUSH1 0x9 PUSH1 0x24 DUP3 ADD MSTORE PUSH32 0x6E6F7420656E6465640000000000000000000000000000000000000000000000 PUSH1 0x44 DUP3 ADD MSTORE PUSH1 0x64 ADD PUSH2 0x271 JUMP JUMPDEST PUSH1 0x6 DUP1 SLOAD PUSH1 0xFF PUSH1 0xA0 SHL NOT AND SWAP1 SSTORE PUSH1 0x5 SLOAD PUSH1 0x1 PUSH1 0x1 PUSH1 0xA0 SHL SUB AND ISZERO DUP1 ISZERO SWAP1 PUSH2 0x7DF JUMPI POP PUSH1 0x8 SLOAD PUSH1 0x9 SLOAD GT JUMPDEST ISZERO PUSH2 0x9F3 JUMPI PUSH1 0x1 SLOAD PUSH1 0x5 SLOAD PUSH1 0x40 MLOAD PUSH32 0xD204C45E00000000000000000000000000000000000000000000000000000000 DUP2 MSTORE PUSH1 0x1 PUSH1 0x1 PUSH1 0xA0 SHL SUB SWAP3 DUP4 AND SWAP3 PUSH4 0xD204C45E SWAP3 PUSH2 0x834 SWAP3 SWAP2 AND SWAP1 PUSH1 0x0 SWAP1 PUSH1 0x4 ADD PUSH2 0xAE3 JUMP JUMPDEST PUSH1 0x0 PUSH1 0x40 MLOAD DUP1 DUP4 SUB DUP2 PUSH1 0x0 DUP8 DUP1 EXTCODESIZE ISZERO DUP1 ISZERO PUSH2 0x84E JUMPI PUSH1 0x0 DUP1 REVERT JUMPDEST POP GAS CALL ISZERO DUP1 ISZERO PUSH2 0x862 JUMPI RETURNDATASIZE PUSH1 0x0 DUP1 RETURNDATACOPY RETURNDATASIZE PUSH1 0x0 REVERT JUMPDEST POP POP PUSH1 0x1 SLOAD PUSH1 0x40 MLOAD PUSH32 0x36568ABE00000000000000000000000000000000000000000000000000000000 DUP2 MSTORE PUSH32 0x9F2DF0FED2C77648DE5860A4CC508CD0818C85B8B8A1AB4CEEEF8D981C8956A6 PUSH1 0x4 DUP3 ADD MSTORE ADDRESS PUSH1 0x24 DUP3 ADD MSTORE PUSH1 0x1 PUSH1 0x1 PUSH1 0xA0 SHL SUB SWAP1 SWAP2 AND SWAP3 POP PUSH4 0x36568ABE SWAP2 POP PUSH1 0x44 ADD PUSH1 0x0 PUSH1 0x40 MLOAD DUP1 DUP4 SUB DUP2 PUSH1 0x0 DUP8 DUP1 EXTCODESIZE ISZERO DUP1 ISZERO PUSH2 0x8EA JUMPI PUSH1 0x0 DUP1 REVERT JUMPDEST POP GAS CALL ISZERO DUP1 ISZERO PUSH2 0x8FE JUMPI RETURNDATASIZE PUSH1 0x0 DUP1 RETURNDATACOPY RETURNDATASIZE PUSH1 0x0 REVERT JUMPDEST POP POP PUSH1 0x2 SLOAD PUSH1 0x3 SLOAD PUSH1 0x9 SLOAD PUSH1 0x40 MLOAD PUSH4 0xA9059CBB PUSH1 0xE0 SHL DUP2 MSTORE PUSH1 0x1 PUSH1 0x1 PUSH1 0xA0 SHL SUB SWAP3 DUP4 AND PUSH1 0x4 DUP3 ADD MSTORE PUSH1 0x24 DUP2 ADD SWAP2 SWAP1 SWAP2 MSTORE SWAP2 AND SWAP3 POP PUSH4 0xA9059CBB SWAP2 POP PUSH1 0x44 ADD PUSH1 0x20 PUSH1 0x40 MLOAD DUP1 DUP4 SUB DUP2 PUSH1 0x0 DUP8 DUP1 EXTCODESIZE ISZERO DUP1 ISZERO PUSH2 0x956 JUMPI PUSH1 0x0 DUP1 REVERT JUMPDEST POP GAS CALL ISZERO DUP1 ISZERO PUSH2 0x96A JUMPI RETURNDATASIZE PUSH1 0x0 DUP1 RETURNDATACOPY RETURNDATASIZE PUSH1 0x0 REVERT JUMPDEST POP POP POP POP PUSH1 0x40 MLOAD RETURNDATASIZE PUSH1 0x1F NOT PUSH1 0x1F DUP3 ADD AND DUP3 ADD DUP1 PUSH1 0x40 MSTORE POP DUP2 ADD SWAP1 PUSH2 0x98E SWAP2 SWAP1 PUSH2 0xA9B JUMP JUMPDEST POP PUSH1 0x5 SLOAD PUSH1 0x6 DUP1 SLOAD PUSH20 0xFFFFFFFFFFFFFFFFFFFFFFFFFFFFFFFFFFFFFFFF NOT AND PUSH1 0x1 PUSH1 0x1 PUSH1 0xA0 SHL SUB SWAP1 SWAP3 AND SWAP2 DUP3 OR SWAP1 SSTORE PUSH1 0x40 MLOAD SWAP1 DUP2 MSTORE PUSH32 0xAE1FBC361F1E1931E3A4C89D061FC635889296619C3C92A670AC62983F72C335 SWAP1 PUSH1 0x20 ADD JUMPDEST PUSH1 0x40 MLOAD DUP1 SWAP2 SUB SWAP1 LOG1 JUMP JUMPDEST PUSH32 0xE66CD229A88C7DE73F985A5F074DB6C68DD65231260A8D8E81F864D5272F30E5 PUSH1 0x40 MLOAD PUSH2 0x9E9 SWAP1 PUSH1 0x20 DUP1 DUP3 MSTORE PUSH1 0x1D SWAP1 DUP3 ADD MSTORE PUSH32 0x6E6F20626964732C2072657374617274207468652061756374696F6E21000000 PUSH1 0x40 DUP3 ADD MSTORE PUSH1 0x60 ADD SWAP1 JUMP JUMPDEST PUSH1 0x0 PUSH1 0x20 DUP3 DUP5 SUB SLT ISZERO PUSH2 0xA64 JUMPI PUSH1 0x0 DUP1 REVERT JUMPDEST POP CALLDATALOAD SWAP2 SWAP1 POP JUMP JUMPDEST PUSH1 0x0 PUSH1 0x20 DUP3 DUP5 SUB SLT ISZERO PUSH2 0xA7D JUMPI PUSH1 0x0 DUP1 REVERT JUMPDEST DUP2 CALLDATALOAD PUSH1 0x1 PUSH1 0x1 PUSH1 0xA0 SHL SUB DUP2 AND DUP2 EQ PUSH2 0xA94 JUMPI PUSH1 0x0 DUP1 REVERT JUMPDEST SWAP4 SWAP3 POP POP POP JUMP JUMPDEST PUSH1 0x0 PUSH1 0x20 DUP3 DUP5 SUB SLT ISZERO PUSH2 0xAAD JUMPI PUSH1 0x0 DUP1 REVERT JUMPDEST DUP2 MLOAD DUP1 ISZERO ISZERO DUP2 EQ PUSH2 0xA94 JUMPI PUSH1 0x0 DUP1 REVERT JUMPDEST PUSH1 0x0 DUP3 NOT DUP3 GT ISZERO PUSH2 0xADE JUMPI PUSH4 0x4E487B71 PUSH1 0xE0 SHL PUSH1 0x0 MSTORE PUSH1 0x11 PUSH1 0x4 MSTORE PUSH1 0x24 PUSH1 0x0 REVERT JUMPDEST POP ADD SWAP1 JUMP JUMPDEST PUSH1 0x1 PUSH1 0x1 PUSH1 0xA0 SHL SUB DUP4 AND DUP2 MSTORE PUSH1 0x0 PUSH1 0x20 PUSH1 0x40 DUP2 DUP5 ADD MSTORE PUSH1 0x0 DUP5 SLOAD DUP2 PUSH1 0x1 DUP3 DUP2 SHR SWAP2 POP DUP1 DUP4 AND DUP1 PUSH2 0xB14 JUMPI PUSH1 0x7F DUP4 AND SWAP3 POP JUMPDEST DUP6 DUP4 LT DUP2 EQ ISZERO PUSH2 0xB32 JUMPI PUSH4 0x4E487B71 PUSH1 0xE0 SHL DUP6 MSTORE PUSH1 0x22 PUSH1 0x4 MSTORE PUSH1 0x24 DUP6 REVERT JUMPDEST PUSH1 0x40 DUP9 ADD DUP4 SWAP1 MSTORE PUSH1 0x60 DUP9 ADD DUP2 DUP1 ISZERO PUSH2 0xB51 JUMPI PUSH1 0x1 DUP2 EQ PUSH2 0xB62 JUMPI PUSH2 0xB8D JUMP JUMPDEST PUSH1 0xFF NOT DUP7 AND DUP3 MSTORE DUP8 DUP3 ADD SWAP7 POP PUSH2 0xB8D JUMP JUMPDEST PUSH1 0x0 DUP12 DUP2 MSTORE PUSH1 0x20 SWAP1 KECCAK256 PUSH1 0x0 JUMPDEST DUP7 DUP2 LT ISZERO PUSH2 0xB87 JUMPI DUP2 SLOAD DUP5 DUP3 ADD MSTORE SWAP1 DUP6 ADD SWAP1 DUP10 ADD PUSH2 0xB6E JUMP JUMPDEST DUP4 ADD SWAP8 POP POP JUMPDEST POP SWAP5 SWAP11 SWAP10 POP POP POP POP POP POP POP POP POP POP JUMP INVALID LOG2 PUSH5 0x6970667358 0x22 SLT KECCAK256 0x4A PUSH6 0xF92846554FAE XOR 0xF6 0xAC SWAP4 0xF6 INVALID PUSH11 0x483A4966528641698EA13A 0xAB 0xAD 0xBD DUP7 SWAP1 SWAP15 PUSH5 0x736F6C6343 STOP ADDMOD MULMOD STOP CALLER "},"methodIdentifiers":{"auctionClosingTime()":"6d2da76f","auctionOpen()":"786ee8ab","beneficiary()":"38af3eed","bid(uint256)":"454a2ab3","bids(address)":"62ea82db","end()":"efbe1c1c","highestBid()":"d57bde79","highestBidder()":"91f90157","nft()":"47ccca02","paymentToken()":"3013ce29","saleOwner()":"b3890faf","saleWinner()":"bbc54591","start(uint256)":"95805dad","withdraw()":"3ccfd60b"}}}}}