{"contracts/Lottery.sol":{"Lottery":{"abi":[{"inputs":[{"internalType":"uint256","name":"_betPrice","type":"uint256"},{"internalType":"address","name":"_paymentToken","type":"address"},{"internalType":"address","name":"_nft","type":"address"},{"internalType":"string","name":"_uri","type":"string"},{"internalType":"address","name":"_recipient","type":"address"},{"internalType":"address","name":"_saleOwner","type":"address"},{"internalType":"uint256","name":"_closingTime","type":"uint256"}],"stateMutability":"nonpayable","type":"constructor"},{"anonymous":false,"inputs":[{"indexed":false,"internalType":"address","name":"winner","type":"address"}],"name":"End","type":"event"},{"anonymous":false,"inputs":[{"indexed":false,"internalType":"string","name":"message","type":"string"}],"name":"EndNotEnoughBets","type":"event"},{"anonymous":false,"inputs":[{"indexed":false,"internalType":"uint256","name":"lotteryClosingTime","type":"uint256"}],"name":"Start","type":"event"},{"inputs":[],"name":"bet","outputs":[],"stateMutability":"nonpayable","type":"function"},{"inputs":[{"internalType":"uint256","name":"times","type":"uint256"}],"name":"betMany","outputs":[],"stateMutability":"nonpayable","type":"function"},{"inputs":[],"name":"betPrice","outputs":[{"internalType":"uint256","name":"","type":"uint256"}],"stateMutability":"view","type":"function"},{"inputs":[],"name":"betsOpen","outputs":[{"internalType":"bool","name":"","type":"bool"}],"stateMutability":"view","type":"function"},{"inputs":[],"name":"closeLottery","outputs":[],"stateMutability":"nonpayable","type":"function"},{"inputs":[],"name":"getRandomNumber","outputs":[{"internalType":"uint256","name":"randomNumber","type":"uint256"}],"stateMutability":"view","type":"function"},{"inputs":[],"name":"lotteryClosingTime","outputs":[{"internalType":"uint256","name":"","type":"uint256"}],"stateMutability":"view","type":"function"},{"inputs":[],"name":"nft","outputs":[{"internalType":"contract IERC721","name":"","type":"address"}],"stateMutability":"view","type":"function"},{"inputs":[{"internalType":"uint256","name":"closingTime","type":"uint256"}],"name":"openBets","outputs":[],"stateMutability":"nonpayable","type":"function"},{"inputs":[],"name":"ownerPool","outputs":[{"internalType":"uint256","name":"","type":"uint256"}],"stateMutability":"view","type":"function"},{"inputs":[],"name":"paymentToken","outputs":[{"internalType":"contract IERC20","name":"","type":"address"}],"stateMutability":"view","type":"function"},{"inputs":[],"name":"recipient","outputs":[{"internalType":"address","name":"","type":"address"}],"stateMutability":"view","type":"function"},{"inputs":[],"name":"saleOwner","outputs":[{"internalType":"address","name":"","type":"address"}],"stateMutability":"view","type":"function"},{"inputs":[],"name":"saleWinner","outputs":[{"internalType":"address","name":"","type":"address"}],"stateMutability":"view","type":"function"}],"evm":{"bytecode":{"linkReferences":{},"object":"60806040523480156200001157600080fd5b5060405162000df238038062000df2833981016040819052620000349162000247565b6004879055600080546001600160a01b038089166001600160a01b031992831617909255600280549288169290911691909117905583516200007e9060039060208701906200016e565b50600180546001600160a01b038086166001600160a01b03199283161790925560088054928516929091169190911790554281116200010e5760405162461bcd60e51b815260206004820152602260248201527f436c6f73696e672074696d65206d75737420626520696e207468652066757475604482015261726560f01b606482015260840160405180910390fd5b60078190556006805460ff60a01b1916600160a01b1790556040517ff06a29c94c6f4edc1085072972d9441f7603e81c8535a308f214285d0653c85090620001599083815260200190565b60405180910390a150505050505050620003c1565b8280546200017c9062000384565b90600052602060002090601f016020900481019282620001a05760008555620001eb565b82601f10620001bb57805160ff1916838001178555620001eb565b82800160010185558215620001eb579182015b82811115620001eb578251825591602001919060010190620001ce565b50620001f9929150620001fd565b5090565b5b80821115620001f95760008155600101620001fe565b80516001600160a01b03811681146200022c57600080fd5b919050565b634e487b7160e01b600052604160045260246000fd5b600080600080600080600060e0888a0312156200026357600080fd5b87519650602062000276818a0162000214565b96506200028660408a0162000214565b60608a01519096506001600160401b0380821115620002a457600080fd5b818b0191508b601f830112620002b957600080fd5b815181811115620002ce57620002ce62000231565b604051601f8201601f19908116603f01168101908382118183101715620002f957620002f962000231565b816040528281528e868487010111156200031257600080fd5b600093505b8284101562000336578484018601518185018701529285019262000317565b82841115620003485760008684830101525b8099505050505050506200035f6080890162000214565b92506200036f60a0890162000214565b915060c0880151905092959891949750929550565b600181811c908216806200039957607f821691505b60208210811415620003bb57634e487b7160e01b600052602260045260246000fd5b50919050565b610a2180620003d16000396000f3fe608060405234801561001057600080fd5b50600436106100ea5760003560e01c8063729e91e91161008c578063bbc5459111610066578063bbc54591146101b0578063cfd8a175146101c3578063d1b258ff146101cc578063dbdff2c1146101f057600080fd5b8063729e91e914610177578063990a49f51461018a578063b3890faf1461019d57600080fd5b806347ccca02116100c857806347ccca021461014057806359aff8b71461015357806366d003ac1461015c5780636fd098161461016f57600080fd5b806311610c25146100ef5780632b65e040146100f95780633013ce2914610115575b600080fd5b6100f76101f6565b005b61010260055481565b6040519081526020015b60405180910390f35b600054610128906001600160a01b031681565b6040516001600160a01b03909116815260200161010c565b600254610128906001600160a01b031681565b61010260075481565b600154610128906001600160a01b031681565b6100f7610374565b6100f7610185366004610872565b6106d8565b6100f7610198366004610872565b610705565b600854610128906001600160a01b031681565b600654610128906001600160a01b031681565b61010260045481565b6006546101e090600160a01b900460ff1681565b604051901515815260200161010c565b44610102565b600654600160a01b900460ff168015610210575060075442105b6102615760405162461bcd60e51b815260206004820152601160248201527f4c6f747465727920697320636c6f73656400000000000000000000000000000060448201526064015b60405180910390fd5b6004546005600082825461027591906108a1565b90915550506009805460018101825560009182527f6e1540171b6c0c960b71a7020d9f60077f6af931a8bbf590da0223dacf75c7af01805473ffffffffffffffffffffffffffffffffffffffff1916339081179091559054600480546040517f23b872dd0000000000000000000000000000000000000000000000000000000081529182019390935230602482015260448101929092526001600160a01b0316906323b872dd90606401602060405180830381600087803b15801561033957600080fd5b505af115801561034d573d6000803e3d6000fd5b505050506040513d601f19601f8201168201806040525081019061037191906108b9565b50565b6007544210156103c65760405162461bcd60e51b815260206004820152601160248201527f546f6f20736f6f6e20746f20636c6f73650000000000000000000000000000006044820152606401610258565b6009541561063b576009546000906103de90446108e2565b90506000600982815481106103f5576103f5610904565b600091825260208220015490546001546005546040517fa9059cbb0000000000000000000000000000000000000000000000000000000081526001600160a01b03928316600482015260248101919091529281169350169063a9059cbb90604401602060405180830381600087803b15801561047057600080fd5b505af1158015610484573d6000803e3d6000fd5b505050506040513d601f19601f820116820180604052508101906104a891906108b9565b506002546040517fd204c45e0000000000000000000000000000000000000000000000000000000081526001600160a01b039091169063d204c45e906104f590849060039060040161091a565b600060405180830381600087803b15801561050f57600080fd5b505af1158015610523573d6000803e3d6000fd5b50506002546040517f36568abe0000000000000000000000000000000000000000000000000000000081527f9f2df0fed2c77648de5860a4cc508cd0818c85b8b8a1ab4ceeef8d981c8956a660048201523060248201526001600160a01b0390911692506336568abe9150604401600060405180830381600087803b1580156105ab57600080fd5b505af11580156105bf573d6000803e3d6000fd5b50505050600960006105d19190610840565b6006805473ffffffffffffffffffffffffffffffffffffffff19166001600160a01b0383169081179091556040519081527fae1fbc361f1e1931e3a4c89d061fc635889296619c3c92a670ac62983f72c3359060200160405180910390a1505060006005556106c9565b7f93bc30cea42983d185c1648f31d96c372cf599106e973083129a624d92ad845a6040516106c09060208082526026908201527f6e6f7420656e6f7567682020626574732c207265737461727420746865206c6f60408201527f7474657279210000000000000000000000000000000000000000000000000000606082015260800190565b60405180910390a15b6006805460ff60a01b19169055565b600081116106e557600080fd5b8015610371576106f36101f6565b806106fd816109d4565b9150506106e5565b600654600160a01b900460ff161561075f5760405162461bcd60e51b815260206004820152600f60248201527f4c6f7474657279206973206f70656e00000000000000000000000000000000006044820152606401610258565b4281116107d45760405162461bcd60e51b815260206004820152602260248201527f436c6f73696e672074696d65206d75737420626520696e20746865206675747560448201527f72650000000000000000000000000000000000000000000000000000000000006064820152608401610258565b6008546001600160a01b031633146107eb57600080fd5b60078190556006805460ff60a01b1916600160a01b1790556040517ff06a29c94c6f4edc1085072972d9441f7603e81c8535a308f214285d0653c850906108359083815260200190565b60405180910390a150565b508054600082559060005260206000209081019061037191905b8082111561086e576000815560010161085a565b5090565b60006020828403121561088457600080fd5b5035919050565b634e487b7160e01b600052601160045260246000fd5b600082198211156108b4576108b461088b565b500190565b6000602082840312156108cb57600080fd5b815180151581146108db57600080fd5b9392505050565b6000826108ff57634e487b7160e01b600052601260045260246000fd5b500690565b634e487b7160e01b600052603260045260246000fd5b6001600160a01b0383168152600060206040818401526000845481600182811c91508083168061094b57607f831692505b85831081141561096957634e487b7160e01b85526022600452602485fd5b60408801839052606088018180156109885760018114610999576109c4565b60ff198616825287820196506109c4565b60008b81526020902060005b868110156109be578154848201529085019089016109a5565b83019750505b50949a9950505050505050505050565b6000816109e3576109e361088b565b50600019019056fea26469706673582212201ce527d465f878faf37ca759dc6c3154c8cac5f7cac9f2e2988048e01cf773c964736f6c63430008090033","opcodes":"PUSH1 0x80 PUSH1 0x40 MSTORE CALLVALUE DUP1 ISZERO PUSH3 0x11 JUMPI PUSH1 0x0 DUP1 REVERT JUMPDEST POP PUSH1 0x40 MLOAD PUSH3 0xDF2 CODESIZE SUB DUP1 PUSH3 0xDF2 DUP4 CODECOPY DUP2 ADD PUSH1 0x40 DUP2 SWAP1 MSTORE PUSH3 0x34 SWAP2 PUSH3 0x247 JUMP JUMPDEST PUSH1 0x4 DUP8 SWAP1 SSTORE PUSH1 0x0 DUP1 SLOAD PUSH1 0x1 PUSH1 0x1 PUSH1 0xA0 SHL SUB DUP1 DUP10 AND PUSH1 0x1 PUSH1 0x1 PUSH1 0xA0 SHL SUB NOT SWAP3 DUP4 AND OR SWAP1 SWAP3 SSTORE PUSH1 0x2 DUP1 SLOAD SWAP3 DUP9 AND SWAP3 SWAP1 SWAP2 AND SWAP2 SWAP1 SWAP2 OR SWAP1 SSTORE DUP4 MLOAD PUSH3 0x7E SWAP1 PUSH1 0x3 SWAP1 PUSH1 0x20 DUP8 ADD SWAP1 PUSH3 0x16E JUMP JUMPDEST POP PUSH1 0x1 DUP1 SLOAD PUSH1 0x1 PUSH1 0x1 PUSH1 0xA0 SHL SUB DUP1 DUP7 AND PUSH1 0x1 PUSH1 0x1 PUSH1 0xA0 SHL SUB NOT SWAP3 DUP4 AND OR SWAP1 SWAP3 SSTORE PUSH1 0x8 DUP1 SLOAD SWAP3 DUP6 AND SWAP3 SWAP1 SWAP2 AND SWAP2 SWAP1 SWAP2 OR SWAP1 SSTORE TIMESTAMP DUP2 GT PUSH3 0x10E JUMPI PUSH1 0x40 MLOAD PUSH3 0x461BCD PUSH1 0xE5 SHL DUP2 MSTORE PUSH1 0x20 PUSH1 0x4 DUP3 ADD MSTORE PUSH1 0x22 PUSH1 0x24 DUP3 ADD MSTORE PUSH32 0x436C6F73696E672074696D65206D75737420626520696E207468652066757475 PUSH1 0x44 DUP3 ADD MSTORE PUSH2 0x7265 PUSH1 0xF0 SHL PUSH1 0x64 DUP3 ADD MSTORE PUSH1 0x84 ADD PUSH1 0x40 MLOAD DUP1 SWAP2 SUB SWAP1 REVERT JUMPDEST PUSH1 0x7 DUP2 SWAP1 SSTORE PUSH1 0x6 DUP1 SLOAD PUSH1 0xFF PUSH1 0xA0 SHL NOT AND PUSH1 0x1 PUSH1 0xA0 SHL OR SWAP1 SSTORE PUSH1 0x40 MLOAD PUSH32 0xF06A29C94C6F4EDC1085072972D9441F7603E81C8535A308F214285D0653C850 SWAP1 PUSH3 0x159 SWAP1 DUP4 DUP2 MSTORE PUSH1 0x20 ADD SWAP1 JUMP JUMPDEST PUSH1 0x40 MLOAD DUP1 SWAP2 SUB SWAP1 LOG1 POP POP POP POP POP POP POP PUSH3 0x3C1 JUMP JUMPDEST DUP3 DUP1 SLOAD PUSH3 0x17C SWAP1 PUSH3 0x384 JUMP JUMPDEST SWAP1 PUSH1 0x0 MSTORE PUSH1 0x20 PUSH1 0x0 KECCAK256 SWAP1 PUSH1 0x1F ADD PUSH1 0x20 SWAP1 DIV DUP2 ADD SWAP3 DUP3 PUSH3 0x1A0 JUMPI PUSH1 0x0 DUP6 SSTORE PUSH3 0x1EB JUMP JUMPDEST DUP3 PUSH1 0x1F LT PUSH3 0x1BB JUMPI DUP1 MLOAD PUSH1 0xFF NOT AND DUP4 DUP1 ADD OR DUP6 SSTORE PUSH3 0x1EB JUMP JUMPDEST DUP3 DUP1 ADD PUSH1 0x1 ADD DUP6 SSTORE DUP3 ISZERO PUSH3 0x1EB JUMPI SWAP2 DUP3 ADD JUMPDEST DUP3 DUP2 GT ISZERO PUSH3 0x1EB JUMPI DUP3 MLOAD DUP3 SSTORE SWAP2 PUSH1 0x20 ADD SWAP2 SWAP1 PUSH1 0x1 ADD SWAP1 PUSH3 0x1CE JUMP JUMPDEST POP PUSH3 0x1F9 SWAP3 SWAP2 POP PUSH3 0x1FD JUMP JUMPDEST POP SWAP1 JUMP JUMPDEST JUMPDEST DUP1 DUP3 GT ISZERO PUSH3 0x1F9 JUMPI PUSH1 0x0 DUP2 SSTORE PUSH1 0x1 ADD PUSH3 0x1FE JUMP JUMPDEST DUP1 MLOAD PUSH1 0x1 PUSH1 0x1 PUSH1 0xA0 SHL SUB DUP2 AND DUP2 EQ PUSH3 0x22C JUMPI PUSH1 0x0 DUP1 REVERT JUMPDEST SWAP2 SWAP1 POP JUMP JUMPDEST PUSH4 0x4E487B71 PUSH1 0xE0 SHL PUSH1 0x0 MSTORE PUSH1 0x41 PUSH1 0x4 MSTORE PUSH1 0x24 PUSH1 0x0 REVERT JUMPDEST PUSH1 0x0 DUP1 PUSH1 0x0 DUP1 PUSH1 0x0 DUP1 PUSH1 0x0 PUSH1 0xE0 DUP9 DUP11 SUB SLT ISZERO PUSH3 0x263 JUMPI PUSH1 0x0 DUP1 REVERT JUMPDEST DUP8 MLOAD SWAP7 POP PUSH1 0x20 PUSH3 0x276 DUP2 DUP11 ADD PUSH3 0x214 JUMP JUMPDEST SWAP7 POP PUSH3 0x286 PUSH1 0x40 DUP11 ADD PUSH3 0x214 JUMP JUMPDEST PUSH1 0x60 DUP11 ADD MLOAD SWAP1 SWAP7 POP PUSH1 0x1 PUSH1 0x1 PUSH1 0x40 SHL SUB DUP1 DUP3 GT ISZERO PUSH3 0x2A4 JUMPI PUSH1 0x0 DUP1 REVERT JUMPDEST DUP2 DUP12 ADD SWAP2 POP DUP12 PUSH1 0x1F DUP4 ADD SLT PUSH3 0x2B9 JUMPI PUSH1 0x0 DUP1 REVERT JUMPDEST DUP2 MLOAD DUP2 DUP2 GT ISZERO PUSH3 0x2CE JUMPI PUSH3 0x2CE PUSH3 0x231 JUMP JUMPDEST PUSH1 0x40 MLOAD PUSH1 0x1F DUP3 ADD PUSH1 0x1F NOT SWAP1 DUP2 AND PUSH1 0x3F ADD AND DUP2 ADD SWAP1 DUP4 DUP3 GT DUP2 DUP4 LT OR ISZERO PUSH3 0x2F9 JUMPI PUSH3 0x2F9 PUSH3 0x231 JUMP JUMPDEST DUP2 PUSH1 0x40 MSTORE DUP3 DUP2 MSTORE DUP15 DUP7 DUP5 DUP8 ADD ADD GT ISZERO PUSH3 0x312 JUMPI PUSH1 0x0 DUP1 REVERT JUMPDEST PUSH1 0x0 SWAP4 POP JUMPDEST DUP3 DUP5 LT ISZERO PUSH3 0x336 JUMPI DUP5 DUP5 ADD DUP7 ADD MLOAD DUP2 DUP6 ADD DUP8 ADD MSTORE SWAP3 DUP6 ADD SWAP3 PUSH3 0x317 JUMP JUMPDEST DUP3 DUP5 GT ISZERO PUSH3 0x348 JUMPI PUSH1 0x0 DUP7 DUP5 DUP4 ADD ADD MSTORE JUMPDEST DUP1 SWAP10 POP POP POP POP POP POP POP PUSH3 0x35F PUSH1 0x80 DUP10 ADD PUSH3 0x214 JUMP JUMPDEST SWAP3 POP PUSH3 0x36F PUSH1 0xA0 DUP10 ADD PUSH3 0x214 JUMP JUMPDEST SWAP2 POP PUSH1 0xC0 DUP9 ADD MLOAD SWAP1 POP SWAP3 SWAP6 SWAP9 SWAP2 SWAP5 SWAP8 POP SWAP3 SWAP6 POP JUMP JUMPDEST PUSH1 0x1 DUP2 DUP2 SHR SWAP1 DUP3 AND DUP1 PUSH3 0x399 JUMPI PUSH1 0x7F DUP3 AND SWAP2 POP JUMPDEST PUSH1 0x20 DUP3 LT DUP2 EQ ISZERO PUSH3 0x3BB JUMPI PUSH4 0x4E487B71 PUSH1 0xE0 SHL PUSH1 0x0 MSTORE PUSH1 0x22 PUSH1 0x4 MSTORE PUSH1 0x24 PUSH1 0x0 REVERT JUMPDEST POP SWAP2 SWAP1 POP JUMP JUMPDEST PUSH2 0xA21 DUP1 PUSH3 0x3D1 PUSH1 0x0 CODECOPY PUSH1 0x0 RETURN INVALID PUSH1 0x80 PUSH1 0x40 MSTORE CALLVALUE DUP1 ISZERO PUSH2 0x10 JUMPI PUSH1 0x0 DUP1 REVERT JUMPDEST POP PUSH1 0x4 CALLDATASIZE LT PUSH2 0xEA JUMPI PUSH1 0x0 CALLDATALOAD PUSH1 0xE0 SHR DUP1 PUSH4 0x729E91E9 GT PUSH2 0x8C JUMPI DUP1 PUSH4 0xBBC54591 GT PUSH2 0x66 JUMPI DUP1 PUSH4 0xBBC54591 EQ PUSH2 0x1B0 JUMPI DUP1 PUSH4 0xCFD8A175 EQ PUSH2 0x1C3 JUMPI DUP1 PUSH4 0xD1B258FF EQ PUSH2 0x1CC JUMPI DUP1 PUSH4 0xDBDFF2C1 EQ PUSH2 0x1F0 JUMPI PUSH1 0x0 DUP1 REVERT JUMPDEST DUP1 PUSH4 0x729E91E9 EQ PUSH2 0x177 JUMPI DUP1 PUSH4 0x990A49F5 EQ PUSH2 0x18A JUMPI DUP1 PUSH4 0xB3890FAF EQ PUSH2 0x19D JUMPI PUSH1 0x0 DUP1 REVERT JUMPDEST DUP1 PUSH4 0x47CCCA02 GT PUSH2 0xC8 JUMPI DUP1 PUSH4 0x47CCCA02 EQ PUSH2 0x140 JUMPI DUP1 PUSH4 0x59AFF8B7 EQ PUSH2 0x153 JUMPI DUP1 PUSH4 0x66D003AC EQ PUSH2 0x15C JUMPI DUP1 PUSH4 0x6FD09816 EQ PUSH2 0x16F JUMPI PUSH1 0x0 DUP1 REVERT JUMPDEST DUP1 PUSH4 0x11610C25 EQ PUSH2 0xEF JUMPI DUP1 PUSH4 0x2B65E040 EQ PUSH2 0xF9 JUMPI DUP1 PUSH4 0x3013CE29 EQ PUSH2 0x115 JUMPI JUMPDEST PUSH1 0x0 DUP1 REVERT JUMPDEST PUSH2 0xF7 PUSH2 0x1F6 JUMP JUMPDEST STOP JUMPDEST PUSH2 0x102 PUSH1 0x5 SLOAD DUP2 JUMP JUMPDEST PUSH1 0x40 MLOAD SWAP1 DUP2 MSTORE PUSH1 0x20 ADD JUMPDEST PUSH1 0x40 MLOAD DUP1 SWAP2 SUB SWAP1 RETURN JUMPDEST PUSH1 0x0 SLOAD PUSH2 0x128 SWAP1 PUSH1 0x1 PUSH1 0x1 PUSH1 0xA0 SHL SUB AND DUP2 JUMP JUMPDEST PUSH1 0x40 MLOAD PUSH1 0x1 PUSH1 0x1 PUSH1 0xA0 SHL SUB SWAP1 SWAP2 AND DUP2 MSTORE PUSH1 0x20 ADD PUSH2 0x10C JUMP JUMPDEST PUSH1 0x2 SLOAD PUSH2 0x128 SWAP1 PUSH1 0x1 PUSH1 0x1 PUSH1 0xA0 SHL SUB AND DUP2 JUMP JUMPDEST PUSH2 0x102 PUSH1 0x7 SLOAD DUP2 JUMP JUMPDEST PUSH1 0x1 SLOAD PUSH2 0x128 SWAP1 PUSH1 0x1 PUSH1 0x1 PUSH1 0xA0 SHL SUB AND DUP2 JUMP JUMPDEST PUSH2 0xF7 PUSH2 0x374 JUMP JUMPDEST PUSH2 0xF7 PUSH2 0x185 CALLDATASIZE PUSH1 0x4 PUSH2 0x872 JUMP JUMPDEST PUSH2 0x6D8 JUMP JUMPDEST PUSH2 0xF7 PUSH2 0x198 CALLDATASIZE PUSH1 0x4 PUSH2 0x872 JUMP JUMPDEST PUSH2 0x705 JUMP JUMPDEST PUSH1 0x8 SLOAD PUSH2 0x128 SWAP1 PUSH1 0x1 PUSH1 0x1 PUSH1 0xA0 SHL SUB AND DUP2 JUMP JUMPDEST PUSH1 0x6 SLOAD PUSH2 0x128 SWAP1 PUSH1 0x1 PUSH1 0x1 PUSH1 0xA0 SHL SUB AND DUP2 JUMP JUMPDEST PUSH2 0x102 PUSH1 0x4 SLOAD DUP2 JUMP JUMPDEST PUSH1 0x6 SLOAD PUSH2 0x1E0 SWAP1 PUSH1 0x1 PUSH1 0xA0 SHL SWAP1 DIV PUSH1 0xFF AND DUP2 JUMP JUMPDEST PUSH1 0x40 MLOAD SWAP1 ISZERO ISZERO DUP2 MSTORE PUSH1 0x20 ADD PUSH2 0x10C JUMP JUMPDEST DIFFICULTY PUSH2 0x102 JUMP JUMPDEST PUSH1 0x6 SLOAD PUSH1 0x1 PUSH1 0xA0 SHL SWAP1 DIV PUSH1 0xFF AND DUP1 ISZERO PUSH2 0x210 JUMPI POP PUSH1 0x7 SLOAD TIMESTAMP LT JUMPDEST PUSH2 0x261 JUMPI PUSH1 0x40 MLOAD PUSH3 0x461BCD PUSH1 0xE5 SHL DUP2 MSTORE PUSH1 0x20 PUSH1 0x4 DUP3 ADD MSTORE PUSH1 0x11 PUSH1 0x24 DUP3 ADD MSTORE PUSH32 0x4C6F747465727920697320636C6F736564000000000000000000000000000000 PUSH1 0x44 DUP3 ADD MSTORE PUSH1 0x64 ADD JUMPDEST PUSH1 0x40 MLOAD DUP1 SWAP2 SUB SWAP1 REVERT JUMPDEST PUSH1 0x4 SLOAD PUSH1 0x5 PUSH1 0x0 DUP3 DUP3 SLOAD PUSH2 0x275 SWAP2 SWAP1 PUSH2 0x8A1 JUMP JUMPDEST SWAP1 SWAP2 SSTORE POP POP PUSH1 0x9 DUP1 SLOAD PUSH1 0x1 DUP2 ADD DUP3 SSTORE PUSH1 0x0 SWAP2 DUP3 MSTORE PUSH32 0x6E1540171B6C0C960B71A7020D9F60077F6AF931A8BBF590DA0223DACF75C7AF ADD DUP1 SLOAD PUSH20 0xFFFFFFFFFFFFFFFFFFFFFFFFFFFFFFFFFFFFFFFF NOT AND CALLER SWAP1 DUP2 OR SWAP1 SWAP2 SSTORE SWAP1 SLOAD PUSH1 0x4 DUP1 SLOAD PUSH1 0x40 MLOAD PUSH32 0x23B872DD00000000000000000000000000000000000000000000000000000000 DUP2 MSTORE SWAP2 DUP3 ADD SWAP4 SWAP1 SWAP4 MSTORE ADDRESS PUSH1 0x24 DUP3 ADD MSTORE PUSH1 0x44 DUP2 ADD SWAP3 SWAP1 SWAP3 MSTORE PUSH1 0x1 PUSH1 0x1 PUSH1 0xA0 SHL SUB AND SWAP1 PUSH4 0x23B872DD SWAP1 PUSH1 0x64 ADD PUSH1 0x20 PUSH1 0x40 MLOAD DUP1 DUP4 SUB DUP2 PUSH1 0x0 DUP8 DUP1 EXTCODESIZE ISZERO DUP1 ISZERO PUSH2 0x339 JUMPI PUSH1 0x0 DUP1 REVERT JUMPDEST POP GAS CALL ISZERO DUP1 ISZERO PUSH2 0x34D JUMPI RETURNDATASIZE PUSH1 0x0 DUP1 RETURNDATACOPY RETURNDATASIZE PUSH1 0x0 REVERT JUMPDEST POP POP POP POP PUSH1 0x40 MLOAD RETURNDATASIZE PUSH1 0x1F NOT PUSH1 0x1F DUP3 ADD AND DUP3 ADD DUP1 PUSH1 0x40 MSTORE POP DUP2 ADD SWAP1 PUSH2 0x371 SWAP2 SWAP1 PUSH2 0x8B9 JUMP JUMPDEST POP JUMP JUMPDEST PUSH1 0x7 SLOAD TIMESTAMP LT ISZERO PUSH2 0x3C6 JUMPI PUSH1 0x40 MLOAD PUSH3 0x461BCD PUSH1 0xE5 SHL DUP2 MSTORE PUSH1 0x20 PUSH1 0x4 DUP3 ADD MSTORE PUSH1 0x11 PUSH1 0x24 DUP3 ADD MSTORE PUSH32 0x546F6F20736F6F6E20746F20636C6F7365000000000000000000000000000000 PUSH1 0x44 DUP3 ADD MSTORE PUSH1 0x64 ADD PUSH2 0x258 JUMP JUMPDEST PUSH1 0x9 SLOAD ISZERO PUSH2 0x63B JUMPI PUSH1 0x9 SLOAD PUSH1 0x0 SWAP1 PUSH2 0x3DE SWAP1 DIFFICULTY PUSH2 0x8E2 JUMP JUMPDEST SWAP1 POP PUSH1 0x0 PUSH1 0x9 DUP3 DUP2 SLOAD DUP2 LT PUSH2 0x3F5 JUMPI PUSH2 0x3F5 PUSH2 0x904 JUMP JUMPDEST PUSH1 0x0 SWAP2 DUP3 MSTORE PUSH1 0x20 DUP3 KECCAK256 ADD SLOAD SWAP1 SLOAD PUSH1 0x1 SLOAD PUSH1 0x5 SLOAD PUSH1 0x40 MLOAD PUSH32 0xA9059CBB00000000000000000000000000000000000000000000000000000000 DUP2 MSTORE PUSH1 0x1 PUSH1 0x1 PUSH1 0xA0 SHL SUB SWAP3 DUP4 AND PUSH1 0x4 DUP3 ADD MSTORE PUSH1 0x24 DUP2 ADD SWAP2 SWAP1 SWAP2 MSTORE SWAP3 DUP2 AND SWAP4 POP AND SWAP1 PUSH4 0xA9059CBB SWAP1 PUSH1 0x44 ADD PUSH1 0x20 PUSH1 0x40 MLOAD DUP1 DUP4 SUB DUP2 PUSH1 0x0 DUP8 DUP1 EXTCODESIZE ISZERO DUP1 ISZERO PUSH2 0x470 JUMPI PUSH1 0x0 DUP1 REVERT JUMPDEST POP GAS CALL ISZERO DUP1 ISZERO PUSH2 0x484 JUMPI RETURNDATASIZE PUSH1 0x0 DUP1 RETURNDATACOPY RETURNDATASIZE PUSH1 0x0 REVERT JUMPDEST POP POP POP POP PUSH1 0x40 MLOAD RETURNDATASIZE PUSH1 0x1F NOT PUSH1 0x1F DUP3 ADD AND DUP3 ADD DUP1 PUSH1 0x40 MSTORE POP DUP2 ADD SWAP1 PUSH2 0x4A8 SWAP2 SWAP1 PUSH2 0x8B9 JUMP JUMPDEST POP PUSH1 0x2 SLOAD PUSH1 0x40 MLOAD PUSH32 0xD204C45E00000000000000000000000000000000000000000000000000000000 DUP2 MSTORE PUSH1 0x1 PUSH1 0x1 PUSH1 0xA0 SHL SUB SWAP1 SWAP2 AND SWAP1 PUSH4 0xD204C45E SWAP1 PUSH2 0x4F5 SWAP1 DUP5 SWAP1 PUSH1 0x3 SWAP1 PUSH1 0x4 ADD PUSH2 0x91A JUMP JUMPDEST PUSH1 0x0 PUSH1 0x40 MLOAD DUP1 DUP4 SUB DUP2 PUSH1 0x0 DUP8 DUP1 EXTCODESIZE ISZERO DUP1 ISZERO PUSH2 0x50F JUMPI PUSH1 0x0 DUP1 REVERT JUMPDEST POP GAS CALL ISZERO DUP1 ISZERO PUSH2 0x523 JUMPI RETURNDATASIZE PUSH1 0x0 DUP1 RETURNDATACOPY RETURNDATASIZE PUSH1 0x0 REVERT JUMPDEST POP POP PUSH1 0x2 SLOAD PUSH1 0x40 MLOAD PUSH32 0x36568ABE00000000000000000000000000000000000000000000000000000000 DUP2 MSTORE PUSH32 0x9F2DF0FED2C77648DE5860A4CC508CD0818C85B8B8A1AB4CEEEF8D981C8956A6 PUSH1 0x4 DUP3 ADD MSTORE ADDRESS PUSH1 0x24 DUP3 ADD MSTORE PUSH1 0x1 PUSH1 0x1 PUSH1 0xA0 SHL SUB SWAP1 SWAP2 AND SWAP3 POP PUSH4 0x36568ABE SWAP2 POP PUSH1 0x44 ADD PUSH1 0x0 PUSH1 0x40 MLOAD DUP1 DUP4 SUB DUP2 PUSH1 0x0 DUP8 DUP1 EXTCODESIZE ISZERO DUP1 ISZERO PUSH2 0x5AB JUMPI PUSH1 0x0 DUP1 REVERT JUMPDEST POP GAS CALL ISZERO DUP1 ISZERO PUSH2 0x5BF JUMPI RETURNDATASIZE PUSH1 0x0 DUP1 RETURNDATACOPY RETURNDATASIZE PUSH1 0x0 REVERT JUMPDEST POP POP POP POP PUSH1 0x9 PUSH1 0x0 PUSH2 0x5D1 SWAP2 SWAP1 PUSH2 0x840 JUMP JUMPDEST PUSH1 0x6 DUP1 SLOAD PUSH20 0xFFFFFFFFFFFFFFFFFFFFFFFFFFFFFFFFFFFFFFFF NOT AND PUSH1 0x1 PUSH1 0x1 PUSH1 0xA0 SHL SUB DUP4 AND SWAP1 DUP2 OR SWAP1 SWAP2 SSTORE PUSH1 0x40 MLOAD SWAP1 DUP2 MSTORE PUSH32 0xAE1FBC361F1E1931E3A4C89D061FC635889296619C3C92A670AC62983F72C335 SWAP1 PUSH1 0x20 ADD PUSH1 0x40 MLOAD DUP1 SWAP2 SUB SWAP1 LOG1 POP POP PUSH1 0x0 PUSH1 0x5 SSTORE PUSH2 0x6C9 JUMP JUMPDEST PUSH32 0x93BC30CEA42983D185C1648F31D96C372CF599106E973083129A624D92AD845A PUSH1 0x40 MLOAD PUSH2 0x6C0 SWAP1 PUSH1 0x20 DUP1 DUP3 MSTORE PUSH1 0x26 SWAP1 DUP3 ADD MSTORE PUSH32 0x6E6F7420656E6F7567682020626574732C207265737461727420746865206C6F PUSH1 0x40 DUP3 ADD MSTORE PUSH32 0x7474657279210000000000000000000000000000000000000000000000000000 PUSH1 0x60 DUP3 ADD MSTORE PUSH1 0x80 ADD SWAP1 JUMP JUMPDEST PUSH1 0x40 MLOAD DUP1 SWAP2 SUB SWAP1 LOG1 JUMPDEST PUSH1 0x6 DUP1 SLOAD PUSH1 0xFF PUSH1 0xA0 SHL NOT AND SWAP1 SSTORE JUMP JUMPDEST PUSH1 0x0 DUP2 GT PUSH2 0x6E5 JUMPI PUSH1 0x0 DUP1 REVERT JUMPDEST DUP1 ISZERO PUSH2 0x371 JUMPI PUSH2 0x6F3 PUSH2 0x1F6 JUMP JUMPDEST DUP1 PUSH2 0x6FD DUP2 PUSH2 0x9D4 JUMP JUMPDEST SWAP2 POP POP PUSH2 0x6E5 JUMP JUMPDEST PUSH1 0x6 SLOAD PUSH1 0x1 PUSH1 0xA0 SHL SWAP1 DIV PUSH1 0xFF AND ISZERO PUSH2 0x75F JUMPI PUSH1 0x40 MLOAD PUSH3 0x461BCD PUSH1 0xE5 SHL DUP2 MSTORE PUSH1 0x20 PUSH1 0x4 DUP3 ADD MSTORE PUSH1 0xF PUSH1 0x24 DUP3 ADD MSTORE PUSH32 0x4C6F7474657279206973206F70656E0000000000000000000000000000000000 PUSH1 0x44 DUP3 ADD MSTORE PUSH1 0x64 ADD PUSH2 0x258 JUMP JUMPDEST TIMESTAMP DUP2 GT PUSH2 0x7D4 JUMPI PUSH1 0x40 MLOAD PUSH3 0x461BCD PUSH1 0xE5 SHL DUP2 MSTORE PUSH1 0x20 PUSH1 0x4 DUP3 ADD MSTORE PUSH1 0x22 PUSH1 0x24 DUP3 ADD MSTORE PUSH32 0x436C6F73696E672074696D65206D75737420626520696E207468652066757475 PUSH1 0x44 DUP3 ADD MSTORE PUSH32 0x7265000000000000000000000000000000000000000000000000000000000000 PUSH1 0x64 DUP3 ADD MSTORE PUSH1 0x84 ADD PUSH2 0x258 JUMP JUMPDEST PUSH1 0x8 SLOAD PUSH1 0x1 PUSH1 0x1 PUSH1 0xA0 SHL SUB AND CALLER EQ PUSH2 0x7EB JUMPI PUSH1 0x0 DUP1 REVERT JUMPDEST PUSH1 0x7 DUP2 SWAP1 SSTORE PUSH1 0x6 DUP1 SLOAD PUSH1 0xFF PUSH1 0xA0 SHL NOT AND PUSH1 0x1 PUSH1 0xA0 SHL OR SWAP1 SSTORE PUSH1 0x40 MLOAD PUSH32 0xF06A29C94C6F4EDC1085072972D9441F7603E81C8535A308F214285D0653C850 SWAP1 PUSH2 0x835 SWAP1 DUP4 DUP2 MSTORE PUSH1 0x20 ADD SWAP1 JUMP JUMPDEST PUSH1 0x40 MLOAD DUP1 SWAP2 SUB SWAP1 LOG1 POP JUMP JUMPDEST POP DUP1 SLOAD PUSH1 0x0 DUP3 SSTORE SWAP1 PUSH1 0x0 MSTORE PUSH1 0x20 PUSH1 0x0 KECCAK256 SWAP1 DUP2 ADD SWAP1 PUSH2 0x371 SWAP2 SWAP1 JUMPDEST DUP1 DUP3 GT ISZERO PUSH2 0x86E JUMPI PUSH1 0x0 DUP2 SSTORE PUSH1 0x1 ADD PUSH2 0x85A JUMP JUMPDEST POP SWAP1 JUMP JUMPDEST PUSH1 0x0 PUSH1 0x20 DUP3 DUP5 SUB SLT ISZERO PUSH2 0x884 JUMPI PUSH1 0x0 DUP1 REVERT JUMPDEST POP CALLDATALOAD SWAP2 SWAP1 POP JUMP JUMPDEST PUSH4 0x4E487B71 PUSH1 0xE0 SHL PUSH1 0x0 MSTORE PUSH1 0x11 PUSH1 0x4 MSTORE PUSH1 0x24 PUSH1 0x0 REVERT JUMPDEST PUSH1 0x0 DUP3 NOT DUP3 GT ISZERO PUSH2 0x8B4 JUMPI PUSH2 0x8B4 PUSH2 0x88B JUMP JUMPDEST POP ADD SWAP1 JUMP JUMPDEST PUSH1 0x0 PUSH1 0x20 DUP3 DUP5 SUB SLT ISZERO PUSH2 0x8CB JUMPI PUSH1 0x0 DUP1 REVERT JUMPDEST DUP2 MLOAD DUP1 ISZERO ISZERO DUP2 EQ PUSH2 0x8DB JUMPI PUSH1 0x0 DUP1 REVERT JUMPDEST SWAP4 SWAP3 POP POP POP JUMP JUMPDEST PUSH1 0x0 DUP3 PUSH2 0x8FF JUMPI PUSH4 0x4E487B71 PUSH1 0xE0 SHL PUSH1 0x0 MSTORE PUSH1 0x12 PUSH1 0x4 MSTORE PUSH1 0x24 PUSH1 0x0 REVERT JUMPDEST POP MOD SWAP1 JUMP JUMPDEST PUSH4 0x4E487B71 PUSH1 0xE0 SHL PUSH1 0x0 MSTORE PUSH1 0x32 PUSH1 0x4 MSTORE PUSH1 0x24 PUSH1 0x0 REVERT JUMPDEST PUSH1 0x1 PUSH1 0x1 PUSH1 0xA0 SHL SUB DUP4 AND DUP2 MSTORE PUSH1 0x0 PUSH1 0x20 PUSH1 0x40 DUP2 DUP5 ADD MSTORE PUSH1 0x0 DUP5 SLOAD DUP2 PUSH1 0x1 DUP3 DUP2 SHR SWAP2 POP DUP1 DUP4 AND DUP1 PUSH2 0x94B JUMPI PUSH1 0x7F DUP4 AND SWAP3 POP JUMPDEST DUP6 DUP4 LT DUP2 EQ ISZERO PUSH2 0x969 JUMPI PUSH4 0x4E487B71 PUSH1 0xE0 SHL DUP6 MSTORE PUSH1 0x22 PUSH1 0x4 MSTORE PUSH1 0x24 DUP6 REVERT JUMPDEST PUSH1 0x40 DUP9 ADD DUP4 SWAP1 MSTORE PUSH1 0x60 DUP9 ADD DUP2 DUP1 ISZERO PUSH2 0x988 JUMPI PUSH1 0x1 DUP2 EQ PUSH2 0x999 JUMPI PUSH2 0x9C4 JUMP JUMPDEST PUSH1 0xFF NOT DUP7 AND DUP3 MSTORE DUP8 DUP3 ADD SWAP7 POP PUSH2 0x9C4 JUMP JUMPDEST PUSH1 0x0 DUP12 DUP2 MSTORE PUSH1 0x20 SWAP1 KECCAK256 PUSH1 0x0 JUMPDEST DUP7 DUP2 LT ISZERO PUSH2 0x9BE JUMPI DUP2 SLOAD DUP5 DUP3 ADD MSTORE SWAP1 DUP6 ADD SWAP1 DUP10 ADD PUSH2 0x9A5 JUMP JUMPDEST DUP4 ADD SWAP8 POP POP JUMPDEST POP SWAP5 SWAP11 SWAP10 POP POP POP POP POP POP POP POP POP POP JUMP JUMPDEST PUSH1 0x0 DUP2 PUSH2 0x9E3 JUMPI PUSH2 0x9E3 PUSH2 0x88B JUMP JUMPDEST POP PUSH1 0x0 NOT ADD SWAP1 JUMP INVALID LOG2 PUSH5 0x6970667358 0x22 SLT KECCAK256 SHR 0xE5 0x27 0xD4 PUSH6 0xF878FAF37CA7 MSIZE 0xDC PUSH13 0x3154C8CAC5F7CAC9F2E2988048 0xE0 SHR 0xF7 PUSH20 0xC964736F6C634300080900330000000000000000 "},"methodIdentifiers":{"bet()":"11610c25","betMany(uint256)":"729e91e9","betPrice()":"cfd8a175","betsOpen()":"d1b258ff","closeLottery()":"6fd09816","getRandomNumber()":"dbdff2c1","lotteryClosingTime()":"59aff8b7","nft()":"47ccca02","openBets(uint256)":"990a49f5","ownerPool()":"2b65e040","paymentToken()":"3013ce29","recipient()":"66d003ac","saleOwner()":"b3890faf","saleWinner()":"bbc54591"}}}}}