{"contracts/SaleFactory.sol":{"SaleFactory":{"abi":[{"inputs":[{"internalType":"address","name":"_nft","type":"address"}],"stateMutability":"nonpayable","type":"constructor"},{"anonymous":false,"inputs":[{"indexed":true,"internalType":"address","name":"previousOwner","type":"address"},{"indexed":true,"internalType":"address","name":"newOwner","type":"address"}],"name":"OwnershipTransferred","type":"event"},{"anonymous":false,"inputs":[{"indexed":false,"internalType":"address","name":"saleAddress","type":"address"},{"indexed":false,"internalType":"string","name":"typeOfSale","type":"string"},{"indexed":false,"internalType":"address","name":"saleOwner","type":"address"},{"indexed":false,"internalType":"string","name":"nftURI","type":"string"}],"name":"SaleCreated","type":"event"},{"inputs":[{"internalType":"uint256","name":"startingBid","type":"uint256"},{"internalType":"address","name":"paymentToken","type":"address"},{"internalType":"string","name":"uri","type":"string"},{"internalType":"address","name":"recipient","type":"address"}],"name":"launchAuction","outputs":[],"stateMutability":"nonpayable","type":"function"},{"inputs":[{"internalType":"uint256","name":"betPrice","type":"uint256"},{"internalType":"address","name":"paymentToken","type":"address"},{"internalType":"string","name":"uri","type":"string"},{"internalType":"address","name":"recipient","type":"address"}],"name":"launchLottery","outputs":[],"stateMutability":"nonpayable","type":"function"},{"inputs":[],"name":"nft","outputs":[{"internalType":"contract IMemeFunderNFT","name":"","type":"address"}],"stateMutability":"view","type":"function"},{"inputs":[],"name":"nftAddress","outputs":[{"internalType":"address","name":"","type":"address"}],"stateMutability":"view","type":"function"},{"inputs":[],"name":"owner","outputs":[{"internalType":"address","name":"","type":"address"}],"stateMutability":"view","type":"function"},{"inputs":[],"name":"renounceOwnership","outputs":[],"stateMutability":"nonpayable","type":"function"},{"inputs":[{"internalType":"address","name":"newAddress","type":"address"}],"name":"setNFT","outputs":[],"stateMutability":"nonpayable","type":"function"},{"inputs":[{"internalType":"address","name":"newOwner","type":"address"}],"name":"transferOwnership","outputs":[],"stateMutability":"nonpayable","type":"function"}],"evm":{"bytecode":{"linkReferences":{},"object":"608060405234801561001057600080fd5b5060405161248e38038061248e83398101604081905261002f916100b7565b61003833610067565b600480546001600160a01b039092166001600160a01b03199283168117909155600380549092161790556100e7565b600080546001600160a01b038381166001600160a01b0319831681178455604051919092169283917f8be0079c531659141344cd1fd0a4f28419497f9722a3daafe3b4186f6b6457e09190a35050565b6000602082840312156100c957600080fd5b81516001600160a01b03811681146100e057600080fd5b9392505050565b612398806100f66000396000f3fe60806040523480156200001157600080fd5b5060043610620000935760003560e01c806371bbccdf116200006257806371bbccdf14620000ff5780638da5cb5b1462000116578063f2fde38b1462000128578063f56e9c66146200013f57600080fd5b806334ea33aa146200009857806347ccca0214620000b15780635bf8633a14620000e1578063715018a614620000f5575b600080fd5b620000af620000a9366004620005d8565b62000156565b005b600454620000c5906001600160a01b031681565b6040516001600160a01b03909116815260200160405180910390f35b600354620000c5906001600160a01b031681565b620000af620002a7565b620000af62000110366004620005d8565b620002bf565b6000546001600160a01b0316620000c5565b620000af62000139366004620006c2565b620003da565b620000af62000150366004620006c2565b62000474565b6003546040513391869186916001600160a01b0316908690869086906200017d9062000570565b6200018e9695949392919062000737565b604051809103906000f080158015620001ab573d6000803e3d6000fd5b506001805473ffffffffffffffffffffffffffffffffffffffff19166001600160a01b039290921691821790556040517f6627c30fafeec9f92de090e7bbe9186af6db97839104417362aadc3c35537cf8916200020c918490879062000785565b60405180910390a160048054600154604051632f2ff15d60e01b81527f9f2df0fed2c77648de5860a4cc508cd0818c85b8b8a1ab4ceeef8d981c8956a6938101939093526001600160a01b0390811660248401521690632f2ff15d906044015b600060405180830381600087803b1580156200028757600080fd5b505af11580156200029c573d6000803e3d6000fd5b505050505050505050565b620002b1620004b7565b620002bd600062000513565b565b6003546040513391869186916001600160a01b031690869086908690620002e6906200057e565b620002f79695949392919062000737565b604051809103906000f08015801562000314573d6000803e3d6000fd5b506002805473ffffffffffffffffffffffffffffffffffffffff19166001600160a01b039290921691821790556040517f6627c30fafeec9f92de090e7bbe9186af6db97839104417362aadc3c35537cf891620003759184908790620007f0565b60405180910390a160048054600254604051632f2ff15d60e01b81527f9f2df0fed2c77648de5860a4cc508cd0818c85b8b8a1ab4ceeef8d981c8956a6938101939093526001600160a01b0390811660248401521690632f2ff15d906044016200026c565b620003e4620004b7565b6001600160a01b038116620004665760405162461bcd60e51b815260206004820152602660248201527f4f776e61626c653a206e6577206f776e657220697320746865207a65726f206160448201527f646472657373000000000000000000000000000000000000000000000000000060648201526084015b60405180910390fd5b620004718162000513565b50565b6200047e620004b7565b600480546001600160a01b0390921673ffffffffffffffffffffffffffffffffffffffff19928316811790915560038054909216179055565b6000546001600160a01b03163314620002bd5760405162461bcd60e51b815260206004820181905260248201527f4f776e61626c653a2063616c6c6572206973206e6f7420746865206f776e657260448201526064016200045d565b600080546001600160a01b0383811673ffffffffffffffffffffffffffffffffffffffff19831681178455604051919092169283917f8be0079c531659141344cd1fd0a4f28419497f9722a3daafe3b4186f6b6457e09190a35050565b610e94806200085383390190565b610c7c80620016e783390190565b80356001600160a01b0381168114620005a457600080fd5b919050565b7f4e487b7100000000000000000000000000000000000000000000000000000000600052604160045260246000fd5b60008060008060808587031215620005ef57600080fd5b8435935062000601602086016200058c565b9250604085013567ffffffffffffffff808211156200061f57600080fd5b818701915087601f8301126200063457600080fd5b813581811115620006495762000649620005a9565b604051601f8201601f19908116603f01168101908382118183101715620006745762000674620005a9565b816040528281528a60208487010111156200068e57600080fd5b826020860160208301376000602084830101528096505050505050620006b7606086016200058c565b905092959194509250565b600060208284031215620006d557600080fd5b620006e0826200058c565b9392505050565b6000815180845260005b818110156200070f57602081850181015186830182015201620006f1565b8181111562000722576000602083870101525b50601f01601f19169290920160200192915050565b86815260006001600160a01b038088166020840152808716604084015260c060608401526200076a60c0840187620006e7565b94811660808401529290921660a09091015250949350505050565b60006001600160a01b03808616835260806020840152600760808401527f61756374696f6e0000000000000000000000000000000000000000000000000060a084015280851660408401525060c06060830152620007e760c0830184620006e7565b95945050505050565b60006001600160a01b03808616835260806020840152600760808401527f6c6f74746572790000000000000000000000000000000000000000000000000060a084015280851660408401525060c06060830152620007e760c0830184620006e756fe60806040523480156200001157600080fd5b5060405162000e9438038062000e94833981016040819052620000349162000193565b600180546001600160a01b0319166001600160a01b038616179055825162000064906000906020860190620000ba565b50600280546001600160a01b039687166001600160a01b03199182161790915560088790556003805493871693821693909317909255600795909555600480549590941694169390931790915550620003029050565b828054620000c890620002c5565b90600052602060002090601f016020900481019282620000ec576000855562000137565b82601f106200010757805160ff191683800117855562000137565b8280016001018555821562000137579182015b82811115620001375782518255916020019190600101906200011a565b506200014592915062000149565b5090565b5b808211156200014557600081556001016200014a565b80516001600160a01b03811681146200017857600080fd5b919050565b634e487b7160e01b600052604160045260246000fd5b60008060008060008060c08789031215620001ad57600080fd5b865195506020620001c081890162000160565b9550620001d06040890162000160565b60608901519095506001600160401b0380821115620001ee57600080fd5b818a0191508a601f8301126200020357600080fd5b8151818111156200021857620002186200017d565b604051601f8201601f19908116603f011681019083821181831017156200024357620002436200017d565b816040528281528d868487010111156200025c57600080fd5b600093505b8284101562000280578484018601518185018701529285019262000261565b82841115620002925760008684830101525b809850505050505050620002a96080880162000160565b9150620002b960a0880162000160565b90509295509295509295565b600181811c90821680620002da57607f821691505b60208210811415620002fc57634e487b7160e01b600052602260045260246000fd5b50919050565b610b8280620003126000396000f3fe608060405234801561001057600080fd5b50600436106100df5760003560e01c80636d2da76f1161008c57806395805dad1161006657806395805dad146101c5578063b3890faf146101d8578063d57bde79146101eb578063efbe1c1c146101f457600080fd5b80636d2da76f14610185578063786ee8ab1461018e57806391f90157146101b257600080fd5b8063454a2ab3116100bd578063454a2ab31461013157806347ccca021461014457806362ea82db1461015757600080fd5b80633013ce29146100e457806338af3eed146101145780633ccfd60b14610127575b600080fd5b6002546100f7906001600160a01b031681565b6040516001600160a01b0390911681526020015b60405180910390f35b6003546100f7906001600160a01b031681565b61012f6101fc565b005b61012f61013f366004610a01565b610332565b6001546100f7906001600160a01b031681565b610177610165366004610a1a565b60096020526000908152604090205481565b60405190815260200161010b565b61017760065481565b6005546101a290600160a01b900460ff1681565b604051901515815260200161010b565b6005546100f7906001600160a01b031681565b61012f6101d3366004610a01565b610565565b6004546100f7906001600160a01b031681565b61017760085481565b61012f6106e3565b6005546001600160a01b031633141561025c5760405162461bcd60e51b815260206004820152601b60248201527f796f75206172652074686520686967686573742062696464657221000000000060448201526064015b60405180910390fd5b336000818152600960205260408082208054929055600254905163a9059cbb60e01b815260048101939093526024830182905290916001600160a01b039091169063a9059cbb90604401602060405180830381600087803b1580156102c057600080fd5b505af11580156102d4573d6000803e3d6000fd5b505050506040513d601f19601f820116820180604052508101906102f89190610a4a565b5060405181815233907f884edad9ce6fa2440d8a54cc123490eb96d2768479d49ff9c7366125a9424364906020015b60405180910390a250565b600554600160a01b900460ff166103795760405162461bcd60e51b815260206004820152600b60248201526a1b9bdd081cdd185c9d195960aa1b6044820152606401610253565b60065442106103ca5760405162461bcd60e51b815260206004820152601c60248201527f6974206973207374696c6c20746f6f206561726c7920746f20656e64000000006044820152606401610253565b600854811161041b5760405162461bcd60e51b815260206004820152600f60248201527f76616c7565203c206869676865737400000000000000000000000000000000006044820152606401610253565b6002546040517f23b872dd000000000000000000000000000000000000000000000000000000008152336004820152306024820152604481018390526001600160a01b03909116906323b872dd90606401602060405180830381600087803b15801561048657600080fd5b505af115801561049a573d6000803e3d6000fd5b505050506040513d601f19601f820116820180604052508101906104be9190610a4a565b506005546001600160a01b031615610503576008546005546001600160a01b0316600090815260096020526040812080549091906104fd908490610a6c565b90915550505b600580547fffffffffffffffffffffffff0000000000000000000000000000000000000000163390811790915560088290556040518281527fe684a55f31b79eca403df938249029212a5925ec6be8012e099b45bc1019e5d290602001610327565b600554600160a01b900460ff16156105bf5760405162461bcd60e51b815260206004820152600760248201527f73746172746564000000000000000000000000000000000000000000000000006044820152606401610253565b4281116106345760405162461bcd60e51b815260206004820152602260248201527f436c6f73696e672074696d65206d75737420626520696e20746865206675747560448201527f72650000000000000000000000000000000000000000000000000000000000006064820152608401610253565b6004546001600160a01b0316331461068e5760405162461bcd60e51b815260206004820152600d60248201527f6e6f742073616c654f776e6572000000000000000000000000000000000000006044820152606401610253565b6005805460ff60a01b1916600160a01b17905560068190556040517ff06a29c94c6f4edc1085072972d9441f7603e81c8535a308f214285d0653c850906106d89083815260200190565b60405180910390a150565b600554600160a01b900460ff1661072a5760405162461bcd60e51b815260206004820152600b60248201526a1b9bdd081cdd185c9d195960aa1b6044820152606401610253565b60065442101561077c5760405162461bcd60e51b815260206004820152600960248201527f6e6f7420656e64656400000000000000000000000000000000000000000000006044820152606401610253565b6005805460ff60a01b1981169091556001600160a01b0316158015906107a55750600754600854115b156109a2576001546005546040517fd204c45e0000000000000000000000000000000000000000000000000000000081526001600160a01b039283169263d204c45e926107fa92911690600090600401610a92565b600060405180830381600087803b15801561081457600080fd5b505af1158015610828573d6000803e3d6000fd5b50506001546040517f36568abe0000000000000000000000000000000000000000000000000000000081527f9f2df0fed2c77648de5860a4cc508cd0818c85b8b8a1ab4ceeef8d981c8956a660048201523060248201526001600160a01b0390911692506336568abe9150604401600060405180830381600087803b1580156108b057600080fd5b505af11580156108c4573d6000803e3d6000fd5b505060025460035460085460405163a9059cbb60e01b81526001600160a01b03928316600482015260248101919091529116925063a9059cbb9150604401602060405180830381600087803b15801561091c57600080fd5b505af1158015610930573d6000803e3d6000fd5b505050506040513d601f19601f820116820180604052508101906109549190610a4a565b50600554600854604080516001600160a01b03909316835260208301919091527f7d7570b046e5ead3a4f3fbc9fa2445113625a1e79823776146316bafed6b8cc591015b60405180910390a1565b7fe66cd229a88c7de73f985a5f074db6c68dd65231260a8d8e81f864d5272f30e5604051610998906020808252601d908201527f6e6f20626964732c2072657374617274207468652061756374696f6e21000000604082015260600190565b600060208284031215610a1357600080fd5b5035919050565b600060208284031215610a2c57600080fd5b81356001600160a01b0381168114610a4357600080fd5b9392505050565b600060208284031215610a5c57600080fd5b81518015158114610a4357600080fd5b60008219821115610a8d57634e487b7160e01b600052601160045260246000fd5b500190565b6001600160a01b0383168152600060206040818401526000845481600182811c915080831680610ac357607f831692505b858310811415610ae157634e487b7160e01b85526022600452602485fd5b6040880183905260608801818015610b005760018114610b1157610b3c565b60ff19861682528782019650610b3c565b60008b81526020902060005b86811015610b3657815484820152908501908901610b1d565b83019750505b50949a995050505050505050505056fea2646970667358221220e1f5b99336b2b49550a0b66620c2732854982aff8a666ee906de23bb8bb841ff64736f6c6343000809003360806040523480156200001157600080fd5b5060405162000c7c38038062000c7c83398101604081905262000034916200018f565b6004869055600080546001600160a01b038088166001600160a01b031992831617909255600280549287169290911691909117905582516200007e906003906020860190620000b6565b50600180546001600160a01b039384166001600160a01b0319918216179091556009805492909316911617905550620002fe92505050565b828054620000c490620002c1565b90600052602060002090601f016020900481019282620000e8576000855562000133565b82601f106200010357805160ff191683800117855562000133565b8280016001018555821562000133579182015b828111156200013357825182559160200191906001019062000116565b506200014192915062000145565b5090565b5b8082111562000141576000815560010162000146565b80516001600160a01b03811681146200017457600080fd5b919050565b634e487b7160e01b600052604160045260246000fd5b60008060008060008060c08789031215620001a957600080fd5b865195506020620001bc8189016200015c565b9550620001cc604089016200015c565b60608901519095506001600160401b0380821115620001ea57600080fd5b818a0191508a601f830112620001ff57600080fd5b81518181111562000214576200021462000179565b604051601f8201601f19908116603f011681019083821181831017156200023f576200023f62000179565b816040528281528d868487010111156200025857600080fd5b600093505b828410156200027c57848401860151818501870152928501926200025d565b828411156200028e5760008684830101525b809850505050505050620002a5608088016200015c565b9150620002b560a088016200015c565b90509295509295509295565b600181811c90821680620002d657607f821691505b60208210811415620002f857634e487b7160e01b600052602260045260246000fd5b50919050565b61096e806200030e6000396000f3fe608060405234801561001057600080fd5b50600436106100f55760003560e01c806366d003ac11610097578063b3890faf11610066578063b3890faf146101c4578063cfd8a175146101d7578063d1b258ff146101e0578063dbdff2c1146101fd57600080fd5b806366d003ac146101835780636fd0981614610196578063729e91e91461019e578063990a49f5146101b157600080fd5b8063461645bf116100d3578063461645bf1461014b57806347ccca0214610154578063486f59541461016757806359aff8b71461017a57600080fd5b806311610c25146100fa5780632b65e040146101045780633013ce2914610120575b600080fd5b610102610203565b005b61010d60055481565b6040519081526020015b60405180910390f35b600054610133906001600160a01b031681565b6040516001600160a01b039091168152602001610117565b61010d60085481565b600254610133906001600160a01b031681565b61010d6101753660046107a0565b610385565b61010d60075481565b600154610133906001600160a01b031681565b6101026103a2565b6101026101ac3660046107a0565b610613565b6101026101bf3660046107a0565b610640565b600954610133906001600160a01b031681565b61010d60045481565b6006546101ed9060ff1681565b6040519015158152602001610117565b4461010d565b60065460ff168015610216575060075442105b6102675760405162461bcd60e51b815260206004820152601160248201527f4c6f747465727920697320636c6f73656400000000000000000000000000000060448201526064015b60405180910390fd5b6004546005600082825461027b91906107cf565b9091555050600a805460018101825560009182527fc65a7bb8d6351c1cf70c95a316cc6a92839c986682d98bc35f958f4883f9d2a80180547fffffffffffffffffffffffff000000000000000000000000000000000000000016339081179091559054600480546040517f23b872dd0000000000000000000000000000000000000000000000000000000081529182019390935230602482015260448101929092526001600160a01b0316906323b872dd90606401602060405180830381600087803b15801561034a57600080fd5b505af115801561035e573d6000803e3d6000fd5b505050506040513d601f19601f8201168201806040525081019061038291906107e7565b50565b600061039282603c610810565b61039c90426107cf565b92915050565b6007544210156103f45760405162461bcd60e51b815260206004820152601160248201527f546f6f20736f6f6e20746f20636c6f7365000000000000000000000000000000604482015260640161025e565b600a541561060757600a5460009061040c904461082f565b90506000600a828154811061042357610423610851565b600091825260208220015490546001546005546040517fa9059cbb0000000000000000000000000000000000000000000000000000000081526001600160a01b03928316600482015260248101919091529281169350169063a9059cbb90604401602060405180830381600087803b15801561049e57600080fd5b505af11580156104b2573d6000803e3d6000fd5b505050506040513d601f19601f820116820180604052508101906104d691906107e7565b506002546040517fd204c45e0000000000000000000000000000000000000000000000000000000081526001600160a01b039091169063d204c45e90610523908490600390600401610867565b600060405180830381600087803b15801561053d57600080fd5b505af1158015610551573d6000803e3d6000fd5b50506002546040517f36568abe0000000000000000000000000000000000000000000000000000000081527f9f2df0fed2c77648de5860a4cc508cd0818c85b8b8a1ab4ceeef8d981c8956a660048201523060248201526001600160a01b0390911692506336568abe9150604401600060405180830381600087803b1580156105d957600080fd5b505af11580156105ed573d6000803e3d6000fd5b50505050600a60006105ff919061076e565b505060006005555b6006805460ff19169055565b6000811161062057600080fd5b80156103825761062e610203565b8061063881610921565b915050610620565b60065460ff16156106935760405162461bcd60e51b815260206004820152600f60248201527f4c6f7474657279206973206f70656e0000000000000000000000000000000000604482015260640161025e565b4281116107085760405162461bcd60e51b815260206004820152602260248201527f436c6f73696e672074696d65206d75737420626520696e20746865206675747560448201527f7265000000000000000000000000000000000000000000000000000000000000606482015260840161025e565b6009546001600160a01b0316331461071f57600080fd5b60078190556006805460ff191660011790556040517ff06a29c94c6f4edc1085072972d9441f7603e81c8535a308f214285d0653c850906107639083815260200190565b60405180910390a150565b508054600082559060005260206000209081019061038291905b8082111561079c5760008155600101610788565b5090565b6000602082840312156107b257600080fd5b5035919050565b634e487b7160e01b600052601160045260246000fd5b600082198211156107e2576107e26107b9565b500190565b6000602082840312156107f957600080fd5b8151801515811461080957600080fd5b9392505050565b600081600019048311821515161561082a5761082a6107b9565b500290565b60008261084c57634e487b7160e01b600052601260045260246000fd5b500690565b634e487b7160e01b600052603260045260246000fd5b6001600160a01b0383168152600060206040818401526000845481600182811c91508083168061089857607f831692505b8583108114156108b657634e487b7160e01b85526022600452602485fd5b60408801839052606088018180156108d557600181146108e657610911565b60ff19861682528782019650610911565b60008b81526020902060005b8681101561090b578154848201529085019089016108f2565b83019750505b50949a9950505050505050505050565b600081610930576109306107b9565b50600019019056fea26469706673582212200a7ceb7ae6e17be7b50cb061ad468d0f39be3a20084dd2333649fd575d23471964736f6c63430008090033a2646970667358221220f76c75f967a5111c24e9583c19acd8a1c7646a9b57b5f20c6007322d0d203c3d64736f6c63430008090033","opcodes":"PUSH1 0x80 PUSH1 0x40 MSTORE CALLVALUE DUP1 ISZERO PUSH2 0x10 JUMPI PUSH1 0x0 DUP1 REVERT JUMPDEST POP PUSH1 0x40 MLOAD PUSH2 0x248E CODESIZE SUB DUP1 PUSH2 0x248E DUP4 CODECOPY DUP2 ADD PUSH1 0x40 DUP2 SWAP1 MSTORE PUSH2 0x2F SWAP2 PUSH2 0xB7 JUMP JUMPDEST PUSH2 0x38 CALLER PUSH2 0x67 JUMP JUMPDEST PUSH1 0x4 DUP1 SLOAD PUSH1 0x1 PUSH1 0x1 PUSH1 0xA0 SHL SUB SWAP1 SWAP3 AND PUSH1 0x1 PUSH1 0x1 PUSH1 0xA0 SHL SUB NOT SWAP3 DUP4 AND DUP2 OR SWAP1 SWAP2 SSTORE PUSH1 0x3 DUP1 SLOAD SWAP1 SWAP3 AND OR SWAP1 SSTORE PUSH2 0xE7 JUMP JUMPDEST PUSH1 0x0 DUP1 SLOAD PUSH1 0x1 PUSH1 0x1 PUSH1 0xA0 SHL SUB DUP4 DUP2 AND PUSH1 0x1 PUSH1 0x1 PUSH1 0xA0 SHL SUB NOT DUP4 AND DUP2 OR DUP5 SSTORE PUSH1 0x40 MLOAD SWAP2 SWAP1 SWAP3 AND SWAP3 DUP4 SWAP2 PUSH32 0x8BE0079C531659141344CD1FD0A4F28419497F9722A3DAAFE3B4186F6B6457E0 SWAP2 SWAP1 LOG3 POP POP JUMP JUMPDEST PUSH1 0x0 PUSH1 0x20 DUP3 DUP5 SUB SLT ISZERO PUSH2 0xC9 JUMPI PUSH1 0x0 DUP1 REVERT JUMPDEST DUP2 MLOAD PUSH1 0x1 PUSH1 0x1 PUSH1 0xA0 SHL SUB DUP2 AND DUP2 EQ PUSH2 0xE0 JUMPI PUSH1 0x0 DUP1 REVERT JUMPDEST SWAP4 SWAP3 POP POP POP JUMP JUMPDEST PUSH2 0x2398 DUP1 PUSH2 0xF6 PUSH1 0x0 CODECOPY PUSH1 0x0 RETURN INVALID PUSH1 0x80 PUSH1 0x40 MSTORE CALLVALUE DUP1 ISZERO PUSH3 0x11 JUMPI PUSH1 0x0 DUP1 REVERT JUMPDEST POP PUSH1 0x4 CALLDATASIZE LT PUSH3 0x93 JUMPI PUSH1 0x0 CALLDATALOAD PUSH1 0xE0 SHR DUP1 PUSH4 0x71BBCCDF GT PUSH3 0x62 JUMPI DUP1 PUSH4 0x71BBCCDF EQ PUSH3 0xFF JUMPI DUP1 PUSH4 0x8DA5CB5B EQ PUSH3 0x116 JUMPI DUP1 PUSH4 0xF2FDE38B EQ PUSH3 0x128 JUMPI DUP1 PUSH4 0xF56E9C66 EQ PUSH3 0x13F JUMPI PUSH1 0x0 DUP1 REVERT JUMPDEST DUP1 PUSH4 0x34EA33AA EQ PUSH3 0x98 JUMPI DUP1 PUSH4 0x47CCCA02 EQ PUSH3 0xB1 JUMPI DUP1 PUSH4 0x5BF8633A EQ PUSH3 0xE1 JUMPI DUP1 PUSH4 0x715018A6 EQ PUSH3 0xF5 JUMPI JUMPDEST PUSH1 0x0 DUP1 REVERT JUMPDEST PUSH3 0xAF PUSH3 0xA9 CALLDATASIZE PUSH1 0x4 PUSH3 0x5D8 JUMP JUMPDEST PUSH3 0x156 JUMP JUMPDEST STOP JUMPDEST PUSH1 0x4 SLOAD PUSH3 0xC5 SWAP1 PUSH1 0x1 PUSH1 0x1 PUSH1 0xA0 SHL SUB AND DUP2 JUMP JUMPDEST PUSH1 0x40 MLOAD PUSH1 0x1 PUSH1 0x1 PUSH1 0xA0 SHL SUB SWAP1 SWAP2 AND DUP2 MSTORE PUSH1 0x20 ADD PUSH1 0x40 MLOAD DUP1 SWAP2 SUB SWAP1 RETURN JUMPDEST PUSH1 0x3 SLOAD PUSH3 0xC5 SWAP1 PUSH1 0x1 PUSH1 0x1 PUSH1 0xA0 SHL SUB AND DUP2 JUMP JUMPDEST PUSH3 0xAF PUSH3 0x2A7 JUMP JUMPDEST PUSH3 0xAF PUSH3 0x110 CALLDATASIZE PUSH1 0x4 PUSH3 0x5D8 JUMP JUMPDEST PUSH3 0x2BF JUMP JUMPDEST PUSH1 0x0 SLOAD PUSH1 0x1 PUSH1 0x1 PUSH1 0xA0 SHL SUB AND PUSH3 0xC5 JUMP JUMPDEST PUSH3 0xAF PUSH3 0x139 CALLDATASIZE PUSH1 0x4 PUSH3 0x6C2 JUMP JUMPDEST PUSH3 0x3DA JUMP JUMPDEST PUSH3 0xAF PUSH3 0x150 CALLDATASIZE PUSH1 0x4 PUSH3 0x6C2 JUMP JUMPDEST PUSH3 0x474 JUMP JUMPDEST PUSH1 0x3 SLOAD PUSH1 0x40 MLOAD CALLER SWAP2 DUP7 SWAP2 DUP7 SWAP2 PUSH1 0x1 PUSH1 0x1 PUSH1 0xA0 SHL SUB AND SWAP1 DUP7 SWAP1 DUP7 SWAP1 DUP7 SWAP1 PUSH3 0x17D SWAP1 PUSH3 0x570 JUMP JUMPDEST PUSH3 0x18E SWAP7 SWAP6 SWAP5 SWAP4 SWAP3 SWAP2 SWAP1 PUSH3 0x737 JUMP JUMPDEST PUSH1 0x40 MLOAD DUP1 SWAP2 SUB SWAP1 PUSH1 0x0 CREATE DUP1 ISZERO DUP1 ISZERO PUSH3 0x1AB JUMPI RETURNDATASIZE PUSH1 0x0 DUP1 RETURNDATACOPY RETURNDATASIZE PUSH1 0x0 REVERT JUMPDEST POP PUSH1 0x1 DUP1 SLOAD PUSH20 0xFFFFFFFFFFFFFFFFFFFFFFFFFFFFFFFFFFFFFFFF NOT AND PUSH1 0x1 PUSH1 0x1 PUSH1 0xA0 SHL SUB SWAP3 SWAP1 SWAP3 AND SWAP2 DUP3 OR SWAP1 SSTORE PUSH1 0x40 MLOAD PUSH32 0x6627C30FAFEEC9F92DE090E7BBE9186AF6DB97839104417362AADC3C35537CF8 SWAP2 PUSH3 0x20C SWAP2 DUP5 SWAP1 DUP8 SWAP1 PUSH3 0x785 JUMP JUMPDEST PUSH1 0x40 MLOAD DUP1 SWAP2 SUB SWAP1 LOG1 PUSH1 0x4 DUP1 SLOAD PUSH1 0x1 SLOAD PUSH1 0x40 MLOAD PUSH4 0x2F2FF15D PUSH1 0xE0 SHL DUP2 MSTORE PUSH32 0x9F2DF0FED2C77648DE5860A4CC508CD0818C85B8B8A1AB4CEEEF8D981C8956A6 SWAP4 DUP2 ADD SWAP4 SWAP1 SWAP4 MSTORE PUSH1 0x1 PUSH1 0x1 PUSH1 0xA0 SHL SUB SWAP1 DUP2 AND PUSH1 0x24 DUP5 ADD MSTORE AND SWAP1 PUSH4 0x2F2FF15D SWAP1 PUSH1 0x44 ADD JUMPDEST PUSH1 0x0 PUSH1 0x40 MLOAD DUP1 DUP4 SUB DUP2 PUSH1 0x0 DUP8 DUP1 EXTCODESIZE ISZERO DUP1 ISZERO PUSH3 0x287 JUMPI PUSH1 0x0 DUP1 REVERT JUMPDEST POP GAS CALL ISZERO DUP1 ISZERO PUSH3 0x29C JUMPI RETURNDATASIZE PUSH1 0x0 DUP1 RETURNDATACOPY RETURNDATASIZE PUSH1 0x0 REVERT JUMPDEST POP POP POP POP POP POP POP POP POP JUMP JUMPDEST PUSH3 0x2B1 PUSH3 0x4B7 JUMP JUMPDEST PUSH3 0x2BD PUSH1 0x0 PUSH3 0x513 JUMP JUMPDEST JUMP JUMPDEST PUSH1 0x3 SLOAD PUSH1 0x40 MLOAD CALLER SWAP2 DUP7 SWAP2 DUP7 SWAP2 PUSH1 0x1 PUSH1 0x1 PUSH1 0xA0 SHL SUB AND SWAP1 DUP7 SWAP1 DUP7 SWAP1 DUP7 SWAP1 PUSH3 0x2E6 SWAP1 PUSH3 0x57E JUMP JUMPDEST PUSH3 0x2F7 SWAP7 SWAP6 SWAP5 SWAP4 SWAP3 SWAP2 SWAP1 PUSH3 0x737 JUMP JUMPDEST PUSH1 0x40 MLOAD DUP1 SWAP2 SUB SWAP1 PUSH1 0x0 CREATE DUP1 ISZERO DUP1 ISZERO PUSH3 0x314 JUMPI RETURNDATASIZE PUSH1 0x0 DUP1 RETURNDATACOPY RETURNDATASIZE PUSH1 0x0 REVERT JUMPDEST POP PUSH1 0x2 DUP1 SLOAD PUSH20 0xFFFFFFFFFFFFFFFFFFFFFFFFFFFFFFFFFFFFFFFF NOT AND PUSH1 0x1 PUSH1 0x1 PUSH1 0xA0 SHL SUB SWAP3 SWAP1 SWAP3 AND SWAP2 DUP3 OR SWAP1 SSTORE PUSH1 0x40 MLOAD PUSH32 0x6627C30FAFEEC9F92DE090E7BBE9186AF6DB97839104417362AADC3C35537CF8 SWAP2 PUSH3 0x375 SWAP2 DUP5 SWAP1 DUP8 SWAP1 PUSH3 0x7F0 JUMP JUMPDEST PUSH1 0x40 MLOAD DUP1 SWAP2 SUB SWAP1 LOG1 PUSH1 0x4 DUP1 SLOAD PUSH1 0x2 SLOAD PUSH1 0x40 MLOAD PUSH4 0x2F2FF15D PUSH1 0xE0 SHL DUP2 MSTORE PUSH32 0x9F2DF0FED2C77648DE5860A4CC508CD0818C85B8B8A1AB4CEEEF8D981C8956A6 SWAP4 DUP2 ADD SWAP4 SWAP1 SWAP4 MSTORE PUSH1 0x1 PUSH1 0x1 PUSH1 0xA0 SHL SUB SWAP1 DUP2 AND PUSH1 0x24 DUP5 ADD MSTORE AND SWAP1 PUSH4 0x2F2FF15D SWAP1 PUSH1 0x44 ADD PUSH3 0x26C JUMP JUMPDEST PUSH3 0x3E4 PUSH3 0x4B7 JUMP JUMPDEST PUSH1 0x1 PUSH1 0x1 PUSH1 0xA0 SHL SUB DUP2 AND PUSH3 0x466 JUMPI PUSH1 0x40 MLOAD PUSH3 0x461BCD PUSH1 0xE5 SHL DUP2 MSTORE PUSH1 0x20 PUSH1 0x4 DUP3 ADD MSTORE PUSH1 0x26 PUSH1 0x24 DUP3 ADD MSTORE PUSH32 0x4F776E61626C653A206E6577206F776E657220697320746865207A65726F2061 PUSH1 0x44 DUP3 ADD MSTORE PUSH32 0x6464726573730000000000000000000000000000000000000000000000000000 PUSH1 0x64 DUP3 ADD MSTORE PUSH1 0x84 ADD JUMPDEST PUSH1 0x40 MLOAD DUP1 SWAP2 SUB SWAP1 REVERT JUMPDEST PUSH3 0x471 DUP2 PUSH3 0x513 JUMP JUMPDEST POP JUMP JUMPDEST PUSH3 0x47E PUSH3 0x4B7 JUMP JUMPDEST PUSH1 0x4 DUP1 SLOAD PUSH1 0x1 PUSH1 0x1 PUSH1 0xA0 SHL SUB SWAP1 SWAP3 AND PUSH20 0xFFFFFFFFFFFFFFFFFFFFFFFFFFFFFFFFFFFFFFFF NOT SWAP3 DUP4 AND DUP2 OR SWAP1 SWAP2 SSTORE PUSH1 0x3 DUP1 SLOAD SWAP1 SWAP3 AND OR SWAP1 SSTORE JUMP JUMPDEST PUSH1 0x0 SLOAD PUSH1 0x1 PUSH1 0x1 PUSH1 0xA0 SHL SUB AND CALLER EQ PUSH3 0x2BD JUMPI PUSH1 0x40 MLOAD PUSH3 0x461BCD PUSH1 0xE5 SHL DUP2 MSTORE PUSH1 0x20 PUSH1 0x4 DUP3 ADD DUP2 SWAP1 MSTORE PUSH1 0x24 DUP3 ADD MSTORE PUSH32 0x4F776E61626C653A2063616C6C6572206973206E6F7420746865206F776E6572 PUSH1 0x44 DUP3 ADD MSTORE PUSH1 0x64 ADD PUSH3 0x45D JUMP JUMPDEST PUSH1 0x0 DUP1 SLOAD PUSH1 0x1 PUSH1 0x1 PUSH1 0xA0 SHL SUB DUP4 DUP2 AND PUSH20 0xFFFFFFFFFFFFFFFFFFFFFFFFFFFFFFFFFFFFFFFF NOT DUP4 AND DUP2 OR DUP5 SSTORE PUSH1 0x40 MLOAD SWAP2 SWAP1 SWAP3 AND SWAP3 DUP4 SWAP2 PUSH32 0x8BE0079C531659141344CD1FD0A4F28419497F9722A3DAAFE3B4186F6B6457E0 SWAP2 SWAP1 LOG3 POP POP JUMP JUMPDEST PUSH2 0xE94 DUP1 PUSH3 0x853 DUP4 CODECOPY ADD SWAP1 JUMP JUMPDEST PUSH2 0xC7C DUP1 PUSH3 0x16E7 DUP4 CODECOPY ADD SWAP1 JUMP JUMPDEST DUP1 CALLDATALOAD PUSH1 0x1 PUSH1 0x1 PUSH1 0xA0 SHL SUB DUP2 AND DUP2 EQ PUSH3 0x5A4 JUMPI PUSH1 0x0 DUP1 REVERT JUMPDEST SWAP2 SWAP1 POP JUMP JUMPDEST PUSH32 0x4E487B7100000000000000000000000000000000000000000000000000000000 PUSH1 0x0 MSTORE PUSH1 0x41 PUSH1 0x4 MSTORE PUSH1 0x24 PUSH1 0x0 REVERT JUMPDEST PUSH1 0x0 DUP1 PUSH1 0x0 DUP1 PUSH1 0x80 DUP6 DUP8 SUB SLT ISZERO PUSH3 0x5EF JUMPI PUSH1 0x0 DUP1 REVERT JUMPDEST DUP5 CALLDATALOAD SWAP4 POP PUSH3 0x601 PUSH1 0x20 DUP7 ADD PUSH3 0x58C JUMP JUMPDEST SWAP3 POP PUSH1 0x40 DUP6 ADD CALLDATALOAD PUSH8 0xFFFFFFFFFFFFFFFF DUP1 DUP3 GT ISZERO PUSH3 0x61F JUMPI PUSH1 0x0 DUP1 REVERT JUMPDEST DUP2 DUP8 ADD SWAP2 POP DUP8 PUSH1 0x1F DUP4 ADD SLT PUSH3 0x634 JUMPI PUSH1 0x0 DUP1 REVERT JUMPDEST DUP2 CALLDATALOAD DUP2 DUP2 GT ISZERO PUSH3 0x649 JUMPI PUSH3 0x649 PUSH3 0x5A9 JUMP JUMPDEST PUSH1 0x40 MLOAD PUSH1 0x1F DUP3 ADD PUSH1 0x1F NOT SWAP1 DUP2 AND PUSH1 0x3F ADD AND DUP2 ADD SWAP1 DUP4 DUP3 GT DUP2 DUP4 LT OR ISZERO PUSH3 0x674 JUMPI PUSH3 0x674 PUSH3 0x5A9 JUMP JUMPDEST DUP2 PUSH1 0x40 MSTORE DUP3 DUP2 MSTORE DUP11 PUSH1 0x20 DUP5 DUP8 ADD ADD GT ISZERO PUSH3 0x68E JUMPI PUSH1 0x0 DUP1 REVERT JUMPDEST DUP3 PUSH1 0x20 DUP7 ADD PUSH1 0x20 DUP4 ADD CALLDATACOPY PUSH1 0x0 PUSH1 0x20 DUP5 DUP4 ADD ADD MSTORE DUP1 SWAP7 POP POP POP POP POP POP PUSH3 0x6B7 PUSH1 0x60 DUP7 ADD PUSH3 0x58C JUMP JUMPDEST SWAP1 POP SWAP3 SWAP6 SWAP2 SWAP5 POP SWAP3 POP JUMP JUMPDEST PUSH1 0x0 PUSH1 0x20 DUP3 DUP5 SUB SLT ISZERO PUSH3 0x6D5 JUMPI PUSH1 0x0 DUP1 REVERT JUMPDEST PUSH3 0x6E0 DUP3 PUSH3 0x58C JUMP JUMPDEST SWAP4 SWAP3 POP POP POP JUMP JUMPDEST PUSH1 0x0 DUP2 MLOAD DUP1 DUP5 MSTORE PUSH1 0x0 JUMPDEST DUP2 DUP2 LT ISZERO PUSH3 0x70F JUMPI PUSH1 0x20 DUP2 DUP6 ADD DUP2 ADD MLOAD DUP7 DUP4 ADD DUP3 ADD MSTORE ADD PUSH3 0x6F1 JUMP JUMPDEST DUP2 DUP2 GT ISZERO PUSH3 0x722 JUMPI PUSH1 0x0 PUSH1 0x20 DUP4 DUP8 ADD ADD MSTORE JUMPDEST POP PUSH1 0x1F ADD PUSH1 0x1F NOT AND SWAP3 SWAP1 SWAP3 ADD PUSH1 0x20 ADD SWAP3 SWAP2 POP POP JUMP JUMPDEST DUP7 DUP2 MSTORE PUSH1 0x0 PUSH1 0x1 PUSH1 0x1 PUSH1 0xA0 SHL SUB DUP1 DUP9 AND PUSH1 0x20 DUP5 ADD MSTORE DUP1 DUP8 AND PUSH1 0x40 DUP5 ADD MSTORE PUSH1 0xC0 PUSH1 0x60 DUP5 ADD MSTORE PUSH3 0x76A PUSH1 0xC0 DUP5 ADD DUP8 PUSH3 0x6E7 JUMP JUMPDEST SWAP5 DUP2 AND PUSH1 0x80 DUP5 ADD MSTORE SWAP3 SWAP1 SWAP3 AND PUSH1 0xA0 SWAP1 SWAP2 ADD MSTORE POP SWAP5 SWAP4 POP POP POP POP JUMP JUMPDEST PUSH1 0x0 PUSH1 0x1 PUSH1 0x1 PUSH1 0xA0 SHL SUB DUP1 DUP7 AND DUP4 MSTORE PUSH1 0x80 PUSH1 0x20 DUP5 ADD MSTORE PUSH1 0x7 PUSH1 0x80 DUP5 ADD MSTORE PUSH32 0x61756374696F6E00000000000000000000000000000000000000000000000000 PUSH1 0xA0 DUP5 ADD MSTORE DUP1 DUP6 AND PUSH1 0x40 DUP5 ADD MSTORE POP PUSH1 0xC0 PUSH1 0x60 DUP4 ADD MSTORE PUSH3 0x7E7 PUSH1 0xC0 DUP4 ADD DUP5 PUSH3 0x6E7 JUMP JUMPDEST SWAP6 SWAP5 POP POP POP POP POP JUMP JUMPDEST PUSH1 0x0 PUSH1 0x1 PUSH1 0x1 PUSH1 0xA0 SHL SUB DUP1 DUP7 AND DUP4 MSTORE PUSH1 0x80 PUSH1 0x20 DUP5 ADD MSTORE PUSH1 0x7 PUSH1 0x80 DUP5 ADD MSTORE PUSH32 0x6C6F747465727900000000000000000000000000000000000000000000000000 PUSH1 0xA0 DUP5 ADD MSTORE DUP1 DUP6 AND PUSH1 0x40 DUP5 ADD MSTORE POP PUSH1 0xC0 PUSH1 0x60 DUP4 ADD MSTORE PUSH3 0x7E7 PUSH1 0xC0 DUP4 ADD DUP5 PUSH3 0x6E7 JUMP INVALID PUSH1 0x80 PUSH1 0x40 MSTORE CALLVALUE DUP1 ISZERO PUSH3 0x11 JUMPI PUSH1 0x0 DUP1 REVERT JUMPDEST POP PUSH1 0x40 MLOAD PUSH3 0xE94 CODESIZE SUB DUP1 PUSH3 0xE94 DUP4 CODECOPY DUP2 ADD PUSH1 0x40 DUP2 SWAP1 MSTORE PUSH3 0x34 SWAP2 PUSH3 0x193 JUMP JUMPDEST PUSH1 0x1 DUP1 SLOAD PUSH1 0x1 PUSH1 0x1 PUSH1 0xA0 SHL SUB NOT AND PUSH1 0x1 PUSH1 0x1 PUSH1 0xA0 SHL SUB DUP7 AND OR SWAP1 SSTORE DUP3 MLOAD PUSH3 0x64 SWAP1 PUSH1 0x0 SWAP1 PUSH1 0x20 DUP7 ADD SWAP1 PUSH3 0xBA JUMP JUMPDEST POP PUSH1 0x2 DUP1 SLOAD PUSH1 0x1 PUSH1 0x1 PUSH1 0xA0 SHL SUB SWAP7 DUP8 AND PUSH1 0x1 PUSH1 0x1 PUSH1 0xA0 SHL SUB NOT SWAP2 DUP3 AND OR SWAP1 SWAP2 SSTORE PUSH1 0x8 DUP8 SWAP1 SSTORE PUSH1 0x3 DUP1 SLOAD SWAP4 DUP8 AND SWAP4 DUP3 AND SWAP4 SWAP1 SWAP4 OR SWAP1 SWAP3 SSTORE PUSH1 0x7 SWAP6 SWAP1 SWAP6 SSTORE PUSH1 0x4 DUP1 SLOAD SWAP6 SWAP1 SWAP5 AND SWAP5 AND SWAP4 SWAP1 SWAP4 OR SWAP1 SWAP2 SSTORE POP PUSH3 0x302 SWAP1 POP JUMP JUMPDEST DUP3 DUP1 SLOAD PUSH3 0xC8 SWAP1 PUSH3 0x2C5 JUMP JUMPDEST SWAP1 PUSH1 0x0 MSTORE PUSH1 0x20 PUSH1 0x0 KECCAK256 SWAP1 PUSH1 0x1F ADD PUSH1 0x20 SWAP1 DIV DUP2 ADD SWAP3 DUP3 PUSH3 0xEC JUMPI PUSH1 0x0 DUP6 SSTORE PUSH3 0x137 JUMP JUMPDEST DUP3 PUSH1 0x1F LT PUSH3 0x107 JUMPI DUP1 MLOAD PUSH1 0xFF NOT AND DUP4 DUP1 ADD OR DUP6 SSTORE PUSH3 0x137 JUMP JUMPDEST DUP3 DUP1 ADD PUSH1 0x1 ADD DUP6 SSTORE DUP3 ISZERO PUSH3 0x137 JUMPI SWAP2 DUP3 ADD JUMPDEST DUP3 DUP2 GT ISZERO PUSH3 0x137 JUMPI DUP3 MLOAD DUP3 SSTORE SWAP2 PUSH1 0x20 ADD SWAP2 SWAP1 PUSH1 0x1 ADD SWAP1 PUSH3 0x11A JUMP JUMPDEST POP PUSH3 0x145 SWAP3 SWAP2 POP PUSH3 0x149 JUMP JUMPDEST POP SWAP1 JUMP JUMPDEST JUMPDEST DUP1 DUP3 GT ISZERO PUSH3 0x145 JUMPI PUSH1 0x0 DUP2 SSTORE PUSH1 0x1 ADD PUSH3 0x14A JUMP JUMPDEST DUP1 MLOAD PUSH1 0x1 PUSH1 0x1 PUSH1 0xA0 SHL SUB DUP2 AND DUP2 EQ PUSH3 0x178 JUMPI PUSH1 0x0 DUP1 REVERT JUMPDEST SWAP2 SWAP1 POP JUMP JUMPDEST PUSH4 0x4E487B71 PUSH1 0xE0 SHL PUSH1 0x0 MSTORE PUSH1 0x41 PUSH1 0x4 MSTORE PUSH1 0x24 PUSH1 0x0 REVERT JUMPDEST PUSH1 0x0 DUP1 PUSH1 0x0 DUP1 PUSH1 0x0 DUP1 PUSH1 0xC0 DUP8 DUP10 SUB SLT ISZERO PUSH3 0x1AD JUMPI PUSH1 0x0 DUP1 REVERT JUMPDEST DUP7 MLOAD SWAP6 POP PUSH1 0x20 PUSH3 0x1C0 DUP2 DUP10 ADD PUSH3 0x160 JUMP JUMPDEST SWAP6 POP PUSH3 0x1D0 PUSH1 0x40 DUP10 ADD PUSH3 0x160 JUMP JUMPDEST PUSH1 0x60 DUP10 ADD MLOAD SWAP1 SWAP6 POP PUSH1 0x1 PUSH1 0x1 PUSH1 0x40 SHL SUB DUP1 DUP3 GT ISZERO PUSH3 0x1EE JUMPI PUSH1 0x0 DUP1 REVERT JUMPDEST DUP2 DUP11 ADD SWAP2 POP DUP11 PUSH1 0x1F DUP4 ADD SLT PUSH3 0x203 JUMPI PUSH1 0x0 DUP1 REVERT JUMPDEST DUP2 MLOAD DUP2 DUP2 GT ISZERO PUSH3 0x218 JUMPI PUSH3 0x218 PUSH3 0x17D JUMP JUMPDEST PUSH1 0x40 MLOAD PUSH1 0x1F DUP3 ADD PUSH1 0x1F NOT SWAP1 DUP2 AND PUSH1 0x3F ADD AND DUP2 ADD SWAP1 DUP4 DUP3 GT DUP2 DUP4 LT OR ISZERO PUSH3 0x243 JUMPI PUSH3 0x243 PUSH3 0x17D JUMP JUMPDEST DUP2 PUSH1 0x40 MSTORE DUP3 DUP2 MSTORE DUP14 DUP7 DUP5 DUP8 ADD ADD GT ISZERO PUSH3 0x25C JUMPI PUSH1 0x0 DUP1 REVERT JUMPDEST PUSH1 0x0 SWAP4 POP JUMPDEST DUP3 DUP5 LT ISZERO PUSH3 0x280 JUMPI DUP5 DUP5 ADD DUP7 ADD MLOAD DUP2 DUP6 ADD DUP8 ADD MSTORE SWAP3 DUP6 ADD SWAP3 PUSH3 0x261 JUMP JUMPDEST DUP3 DUP5 GT ISZERO PUSH3 0x292 JUMPI PUSH1 0x0 DUP7 DUP5 DUP4 ADD ADD MSTORE JUMPDEST DUP1 SWAP9 POP POP POP POP POP POP POP PUSH3 0x2A9 PUSH1 0x80 DUP9 ADD PUSH3 0x160 JUMP JUMPDEST SWAP2 POP PUSH3 0x2B9 PUSH1 0xA0 DUP9 ADD PUSH3 0x160 JUMP JUMPDEST SWAP1 POP SWAP3 SWAP6 POP SWAP3 SWAP6 POP SWAP3 SWAP6 JUMP JUMPDEST PUSH1 0x1 DUP2 DUP2 SHR SWAP1 DUP3 AND DUP1 PUSH3 0x2DA JUMPI PUSH1 0x7F DUP3 AND SWAP2 POP JUMPDEST PUSH1 0x20 DUP3 LT DUP2 EQ ISZERO PUSH3 0x2FC JUMPI PUSH4 0x4E487B71 PUSH1 0xE0 SHL PUSH1 0x0 MSTORE PUSH1 0x22 PUSH1 0x4 MSTORE PUSH1 0x24 PUSH1 0x0 REVERT JUMPDEST POP SWAP2 SWAP1 POP JUMP JUMPDEST PUSH2 0xB82 DUP1 PUSH3 0x312 PUSH1 0x0 CODECOPY PUSH1 0x0 RETURN INVALID PUSH1 0x80 PUSH1 0x40 MSTORE CALLVALUE DUP1 ISZERO PUSH2 0x10 JUMPI PUSH1 0x0 DUP1 REVERT JUMPDEST POP PUSH1 0x4 CALLDATASIZE LT PUSH2 0xDF JUMPI PUSH1 0x0 CALLDATALOAD PUSH1 0xE0 SHR DUP1 PUSH4 0x6D2DA76F GT PUSH2 0x8C JUMPI DUP1 PUSH4 0x95805DAD GT PUSH2 0x66 JUMPI DUP1 PUSH4 0x95805DAD EQ PUSH2 0x1C5 JUMPI DUP1 PUSH4 0xB3890FAF EQ PUSH2 0x1D8 JUMPI DUP1 PUSH4 0xD57BDE79 EQ PUSH2 0x1EB JUMPI DUP1 PUSH4 0xEFBE1C1C EQ PUSH2 0x1F4 JUMPI PUSH1 0x0 DUP1 REVERT JUMPDEST DUP1 PUSH4 0x6D2DA76F EQ PUSH2 0x185 JUMPI DUP1 PUSH4 0x786EE8AB EQ PUSH2 0x18E JUMPI DUP1 PUSH4 0x91F90157 EQ PUSH2 0x1B2 JUMPI PUSH1 0x0 DUP1 REVERT JUMPDEST DUP1 PUSH4 0x454A2AB3 GT PUSH2 0xBD JUMPI DUP1 PUSH4 0x454A2AB3 EQ PUSH2 0x131 JUMPI DUP1 PUSH4 0x47CCCA02 EQ PUSH2 0x144 JUMPI DUP1 PUSH4 0x62EA82DB EQ PUSH2 0x157 JUMPI PUSH1 0x0 DUP1 REVERT JUMPDEST DUP1 PUSH4 0x3013CE29 EQ PUSH2 0xE4 JUMPI DUP1 PUSH4 0x38AF3EED EQ PUSH2 0x114 JUMPI DUP1 PUSH4 0x3CCFD60B EQ PUSH2 0x127 JUMPI JUMPDEST PUSH1 0x0 DUP1 REVERT JUMPDEST PUSH1 0x2 SLOAD PUSH2 0xF7 SWAP1 PUSH1 0x1 PUSH1 0x1 PUSH1 0xA0 SHL SUB AND DUP2 JUMP JUMPDEST PUSH1 0x40 MLOAD PUSH1 0x1 PUSH1 0x1 PUSH1 0xA0 SHL SUB SWAP1 SWAP2 AND DUP2 MSTORE PUSH1 0x20 ADD JUMPDEST PUSH1 0x40 MLOAD DUP1 SWAP2 SUB SWAP1 RETURN JUMPDEST PUSH1 0x3 SLOAD PUSH2 0xF7 SWAP1 PUSH1 0x1 PUSH1 0x1 PUSH1 0xA0 SHL SUB AND DUP2 JUMP JUMPDEST PUSH2 0x12F PUSH2 0x1FC JUMP JUMPDEST STOP JUMPDEST PUSH2 0x12F PUSH2 0x13F CALLDATASIZE PUSH1 0x4 PUSH2 0xA01 JUMP JUMPDEST PUSH2 0x332 JUMP JUMPDEST PUSH1 0x1 SLOAD PUSH2 0xF7 SWAP1 PUSH1 0x1 PUSH1 0x1 PUSH1 0xA0 SHL SUB AND DUP2 JUMP JUMPDEST PUSH2 0x177 PUSH2 0x165 CALLDATASIZE PUSH1 0x4 PUSH2 0xA1A JUMP JUMPDEST PUSH1 0x9 PUSH1 0x20 MSTORE PUSH1 0x0 SWAP1 DUP2 MSTORE PUSH1 0x40 SWAP1 KECCAK256 SLOAD DUP2 JUMP JUMPDEST PUSH1 0x40 MLOAD SWAP1 DUP2 MSTORE PUSH1 0x20 ADD PUSH2 0x10B JUMP JUMPDEST PUSH2 0x177 PUSH1 0x6 SLOAD DUP2 JUMP JUMPDEST PUSH1 0x5 SLOAD PUSH2 0x1A2 SWAP1 PUSH1 0x1 PUSH1 0xA0 SHL SWAP1 DIV PUSH1 0xFF AND DUP2 JUMP JUMPDEST PUSH1 0x40 MLOAD SWAP1 ISZERO ISZERO DUP2 MSTORE PUSH1 0x20 ADD PUSH2 0x10B JUMP JUMPDEST PUSH1 0x5 SLOAD PUSH2 0xF7 SWAP1 PUSH1 0x1 PUSH1 0x1 PUSH1 0xA0 SHL SUB AND DUP2 JUMP JUMPDEST PUSH2 0x12F PUSH2 0x1D3 CALLDATASIZE PUSH1 0x4 PUSH2 0xA01 JUMP JUMPDEST PUSH2 0x565 JUMP JUMPDEST PUSH1 0x4 SLOAD PUSH2 0xF7 SWAP1 PUSH1 0x1 PUSH1 0x1 PUSH1 0xA0 SHL SUB AND DUP2 JUMP JUMPDEST PUSH2 0x177 PUSH1 0x8 SLOAD DUP2 JUMP JUMPDEST PUSH2 0x12F PUSH2 0x6E3 JUMP JUMPDEST PUSH1 0x5 SLOAD PUSH1 0x1 PUSH1 0x1 PUSH1 0xA0 SHL SUB AND CALLER EQ ISZERO PUSH2 0x25C JUMPI PUSH1 0x40 MLOAD PUSH3 0x461BCD PUSH1 0xE5 SHL DUP2 MSTORE PUSH1 0x20 PUSH1 0x4 DUP3 ADD MSTORE PUSH1 0x1B PUSH1 0x24 DUP3 ADD MSTORE PUSH32 0x796F752061726520746865206869676865737420626964646572210000000000 PUSH1 0x44 DUP3 ADD MSTORE PUSH1 0x64 ADD JUMPDEST PUSH1 0x40 MLOAD DUP1 SWAP2 SUB SWAP1 REVERT JUMPDEST CALLER PUSH1 0x0 DUP2 DUP2 MSTORE PUSH1 0x9 PUSH1 0x20 MSTORE PUSH1 0x40 DUP1 DUP3 KECCAK256 DUP1 SLOAD SWAP3 SWAP1 SSTORE PUSH1 0x2 SLOAD SWAP1 MLOAD PUSH4 0xA9059CBB PUSH1 0xE0 SHL DUP2 MSTORE PUSH1 0x4 DUP2 ADD SWAP4 SWAP1 SWAP4 MSTORE PUSH1 0x24 DUP4 ADD DUP3 SWAP1 MSTORE SWAP1 SWAP2 PUSH1 0x1 PUSH1 0x1 PUSH1 0xA0 SHL SUB SWAP1 SWAP2 AND SWAP1 PUSH4 0xA9059CBB SWAP1 PUSH1 0x44 ADD PUSH1 0x20 PUSH1 0x40 MLOAD DUP1 DUP4 SUB DUP2 PUSH1 0x0 DUP8 DUP1 EXTCODESIZE ISZERO DUP1 ISZERO PUSH2 0x2C0 JUMPI PUSH1 0x0 DUP1 REVERT JUMPDEST POP GAS CALL ISZERO DUP1 ISZERO PUSH2 0x2D4 JUMPI RETURNDATASIZE PUSH1 0x0 DUP1 RETURNDATACOPY RETURNDATASIZE PUSH1 0x0 REVERT JUMPDEST POP POP POP POP PUSH1 0x40 MLOAD RETURNDATASIZE PUSH1 0x1F NOT PUSH1 0x1F DUP3 ADD AND DUP3 ADD DUP1 PUSH1 0x40 MSTORE POP DUP2 ADD SWAP1 PUSH2 0x2F8 SWAP2 SWAP1 PUSH2 0xA4A JUMP JUMPDEST POP PUSH1 0x40 MLOAD DUP2 DUP2 MSTORE CALLER SWAP1 PUSH32 0x884EDAD9CE6FA2440D8A54CC123490EB96D2768479D49FF9C7366125A9424364 SWAP1 PUSH1 0x20 ADD JUMPDEST PUSH1 0x40 MLOAD DUP1 SWAP2 SUB SWAP1 LOG2 POP JUMP JUMPDEST PUSH1 0x5 SLOAD PUSH1 0x1 PUSH1 0xA0 SHL SWAP1 DIV PUSH1 0xFF AND PUSH2 0x379 JUMPI PUSH1 0x40 MLOAD PUSH3 0x461BCD PUSH1 0xE5 SHL DUP2 MSTORE PUSH1 0x20 PUSH1 0x4 DUP3 ADD MSTORE PUSH1 0xB PUSH1 0x24 DUP3 ADD MSTORE PUSH11 0x1B9BDD081CDD185C9D1959 PUSH1 0xAA SHL PUSH1 0x44 DUP3 ADD MSTORE PUSH1 0x64 ADD PUSH2 0x253 JUMP JUMPDEST PUSH1 0x6 SLOAD TIMESTAMP LT PUSH2 0x3CA JUMPI PUSH1 0x40 MLOAD PUSH3 0x461BCD PUSH1 0xE5 SHL DUP2 MSTORE PUSH1 0x20 PUSH1 0x4 DUP3 ADD MSTORE PUSH1 0x1C PUSH1 0x24 DUP3 ADD MSTORE PUSH32 0x6974206973207374696C6C20746F6F206561726C7920746F20656E6400000000 PUSH1 0x44 DUP3 ADD MSTORE PUSH1 0x64 ADD PUSH2 0x253 JUMP JUMPDEST PUSH1 0x8 SLOAD DUP2 GT PUSH2 0x41B JUMPI PUSH1 0x40 MLOAD PUSH3 0x461BCD PUSH1 0xE5 SHL DUP2 MSTORE PUSH1 0x20 PUSH1 0x4 DUP3 ADD MSTORE PUSH1 0xF PUSH1 0x24 DUP3 ADD MSTORE PUSH32 0x76616C7565203C20686967686573740000000000000000000000000000000000 PUSH1 0x44 DUP3 ADD MSTORE PUSH1 0x64 ADD PUSH2 0x253 JUMP JUMPDEST PUSH1 0x2 SLOAD PUSH1 0x40 MLOAD PUSH32 0x23B872DD00000000000000000000000000000000000000000000000000000000 DUP2 MSTORE CALLER PUSH1 0x4 DUP3 ADD MSTORE ADDRESS PUSH1 0x24 DUP3 ADD MSTORE PUSH1 0x44 DUP2 ADD DUP4 SWAP1 MSTORE PUSH1 0x1 PUSH1 0x1 PUSH1 0xA0 SHL SUB SWAP1 SWAP2 AND SWAP1 PUSH4 0x23B872DD SWAP1 PUSH1 0x64 ADD PUSH1 0x20 PUSH1 0x40 MLOAD DUP1 DUP4 SUB DUP2 PUSH1 0x0 DUP8 DUP1 EXTCODESIZE ISZERO DUP1 ISZERO PUSH2 0x486 JUMPI PUSH1 0x0 DUP1 REVERT JUMPDEST POP GAS CALL ISZERO DUP1 ISZERO PUSH2 0x49A JUMPI RETURNDATASIZE PUSH1 0x0 DUP1 RETURNDATACOPY RETURNDATASIZE PUSH1 0x0 REVERT JUMPDEST POP POP POP POP PUSH1 0x40 MLOAD RETURNDATASIZE PUSH1 0x1F NOT PUSH1 0x1F DUP3 ADD AND DUP3 ADD DUP1 PUSH1 0x40 MSTORE POP DUP2 ADD SWAP1 PUSH2 0x4BE SWAP2 SWAP1 PUSH2 0xA4A JUMP JUMPDEST POP PUSH1 0x5 SLOAD PUSH1 0x1 PUSH1 0x1 PUSH1 0xA0 SHL SUB AND ISZERO PUSH2 0x503 JUMPI PUSH1 0x8 SLOAD PUSH1 0x5 SLOAD PUSH1 0x1 PUSH1 0x1 PUSH1 0xA0 SHL SUB AND PUSH1 0x0 SWAP1 DUP2 MSTORE PUSH1 0x9 PUSH1 0x20 MSTORE PUSH1 0x40 DUP2 KECCAK256 DUP1 SLOAD SWAP1 SWAP2 SWAP1 PUSH2 0x4FD SWAP1 DUP5 SWAP1 PUSH2 0xA6C JUMP JUMPDEST SWAP1 SWAP2 SSTORE POP POP JUMPDEST PUSH1 0x5 DUP1 SLOAD PUSH32 0xFFFFFFFFFFFFFFFFFFFFFFFF0000000000000000000000000000000000000000 AND CALLER SWAP1 DUP2 OR SWAP1 SWAP2 SSTORE PUSH1 0x8 DUP3 SWAP1 SSTORE PUSH1 0x40 MLOAD DUP3 DUP2 MSTORE PUSH32 0xE684A55F31B79ECA403DF938249029212A5925EC6BE8012E099B45BC1019E5D2 SWAP1 PUSH1 0x20 ADD PUSH2 0x327 JUMP JUMPDEST PUSH1 0x5 SLOAD PUSH1 0x1 PUSH1 0xA0 SHL SWAP1 DIV PUSH1 0xFF AND ISZERO PUSH2 0x5BF JUMPI PUSH1 0x40 MLOAD PUSH3 0x461BCD PUSH1 0xE5 SHL DUP2 MSTORE PUSH1 0x20 PUSH1 0x4 DUP3 ADD MSTORE PUSH1 0x7 PUSH1 0x24 DUP3 ADD MSTORE PUSH32 0x7374617274656400000000000000000000000000000000000000000000000000 PUSH1 0x44 DUP3 ADD MSTORE PUSH1 0x64 ADD PUSH2 0x253 JUMP JUMPDEST TIMESTAMP DUP2 GT PUSH2 0x634 JUMPI PUSH1 0x40 MLOAD PUSH3 0x461BCD PUSH1 0xE5 SHL DUP2 MSTORE PUSH1 0x20 PUSH1 0x4 DUP3 ADD MSTORE PUSH1 0x22 PUSH1 0x24 DUP3 ADD MSTORE PUSH32 0x436C6F73696E672074696D65206D75737420626520696E207468652066757475 PUSH1 0x44 DUP3 ADD MSTORE PUSH32 0x7265000000000000000000000000000000000000000000000000000000000000 PUSH1 0x64 DUP3 ADD MSTORE PUSH1 0x84 ADD PUSH2 0x253 JUMP JUMPDEST PUSH1 0x4 SLOAD PUSH1 0x1 PUSH1 0x1 PUSH1 0xA0 SHL SUB AND CALLER EQ PUSH2 0x68E JUMPI PUSH1 0x40 MLOAD PUSH3 0x461BCD PUSH1 0xE5 SHL DUP2 MSTORE PUSH1 0x20 PUSH1 0x4 DUP3 ADD MSTORE PUSH1 0xD PUSH1 0x24 DUP3 ADD MSTORE PUSH32 0x6E6F742073616C654F776E657200000000000000000000000000000000000000 PUSH1 0x44 DUP3 ADD MSTORE PUSH1 0x64 ADD PUSH2 0x253 JUMP JUMPDEST PUSH1 0x5 DUP1 SLOAD PUSH1 0xFF PUSH1 0xA0 SHL NOT AND PUSH1 0x1 PUSH1 0xA0 SHL OR SWAP1 SSTORE PUSH1 0x6 DUP2 SWAP1 SSTORE PUSH1 0x40 MLOAD PUSH32 0xF06A29C94C6F4EDC1085072972D9441F7603E81C8535A308F214285D0653C850 SWAP1 PUSH2 0x6D8 SWAP1 DUP4 DUP2 MSTORE PUSH1 0x20 ADD SWAP1 JUMP JUMPDEST PUSH1 0x40 MLOAD DUP1 SWAP2 SUB SWAP1 LOG1 POP JUMP JUMPDEST PUSH1 0x5 SLOAD PUSH1 0x1 PUSH1 0xA0 SHL SWAP1 DIV PUSH1 0xFF AND PUSH2 0x72A JUMPI PUSH1 0x40 MLOAD PUSH3 0x461BCD PUSH1 0xE5 SHL DUP2 MSTORE PUSH1 0x20 PUSH1 0x4 DUP3 ADD MSTORE PUSH1 0xB PUSH1 0x24 DUP3 ADD MSTORE PUSH11 0x1B9BDD081CDD185C9D1959 PUSH1 0xAA SHL PUSH1 0x44 DUP3 ADD MSTORE PUSH1 0x64 ADD PUSH2 0x253 JUMP JUMPDEST PUSH1 0x6 SLOAD TIMESTAMP LT ISZERO PUSH2 0x77C JUMPI PUSH1 0x40 MLOAD PUSH3 0x461BCD PUSH1 0xE5 SHL DUP2 MSTORE PUSH1 0x20 PUSH1 0x4 DUP3 ADD MSTORE PUSH1 0x9 PUSH1 0x24 DUP3 ADD MSTORE PUSH32 0x6E6F7420656E6465640000000000000000000000000000000000000000000000 PUSH1 0x44 DUP3 ADD MSTORE PUSH1 0x64 ADD PUSH2 0x253 JUMP JUMPDEST PUSH1 0x5 DUP1 SLOAD PUSH1 0xFF PUSH1 0xA0 SHL NOT DUP2 AND SWAP1 SWAP2 SSTORE PUSH1 0x1 PUSH1 0x1 PUSH1 0xA0 SHL SUB AND ISZERO DUP1 ISZERO SWAP1 PUSH2 0x7A5 JUMPI POP PUSH1 0x7 SLOAD PUSH1 0x8 SLOAD GT JUMPDEST ISZERO PUSH2 0x9A2 JUMPI PUSH1 0x1 SLOAD PUSH1 0x5 SLOAD PUSH1 0x40 MLOAD PUSH32 0xD204C45E00000000000000000000000000000000000000000000000000000000 DUP2 MSTORE PUSH1 0x1 PUSH1 0x1 PUSH1 0xA0 SHL SUB SWAP3 DUP4 AND SWAP3 PUSH4 0xD204C45E SWAP3 PUSH2 0x7FA SWAP3 SWAP2 AND SWAP1 PUSH1 0x0 SWAP1 PUSH1 0x4 ADD PUSH2 0xA92 JUMP JUMPDEST PUSH1 0x0 PUSH1 0x40 MLOAD DUP1 DUP4 SUB DUP2 PUSH1 0x0 DUP8 DUP1 EXTCODESIZE ISZERO DUP1 ISZERO PUSH2 0x814 JUMPI PUSH1 0x0 DUP1 REVERT JUMPDEST POP GAS CALL ISZERO DUP1 ISZERO PUSH2 0x828 JUMPI RETURNDATASIZE PUSH1 0x0 DUP1 RETURNDATACOPY RETURNDATASIZE PUSH1 0x0 REVERT JUMPDEST POP POP PUSH1 0x1 SLOAD PUSH1 0x40 MLOAD PUSH32 0x36568ABE00000000000000000000000000000000000000000000000000000000 DUP2 MSTORE PUSH32 0x9F2DF0FED2C77648DE5860A4CC508CD0818C85B8B8A1AB4CEEEF8D981C8956A6 PUSH1 0x4 DUP3 ADD MSTORE ADDRESS PUSH1 0x24 DUP3 ADD MSTORE PUSH1 0x1 PUSH1 0x1 PUSH1 0xA0 SHL SUB SWAP1 SWAP2 AND SWAP3 POP PUSH4 0x36568ABE SWAP2 POP PUSH1 0x44 ADD PUSH1 0x0 PUSH1 0x40 MLOAD DUP1 DUP4 SUB DUP2 PUSH1 0x0 DUP8 DUP1 EXTCODESIZE ISZERO DUP1 ISZERO PUSH2 0x8B0 JUMPI PUSH1 0x0 DUP1 REVERT JUMPDEST POP GAS CALL ISZERO DUP1 ISZERO PUSH2 0x8C4 JUMPI RETURNDATASIZE PUSH1 0x0 DUP1 RETURNDATACOPY RETURNDATASIZE PUSH1 0x0 REVERT JUMPDEST POP POP PUSH1 0x2 SLOAD PUSH1 0x3 SLOAD PUSH1 0x8 SLOAD PUSH1 0x40 MLOAD PUSH4 0xA9059CBB PUSH1 0xE0 SHL DUP2 MSTORE PUSH1 0x1 PUSH1 0x1 PUSH1 0xA0 SHL SUB SWAP3 DUP4 AND PUSH1 0x4 DUP3 ADD MSTORE PUSH1 0x24 DUP2 ADD SWAP2 SWAP1 SWAP2 MSTORE SWAP2 AND SWAP3 POP PUSH4 0xA9059CBB SWAP2 POP PUSH1 0x44 ADD PUSH1 0x20 PUSH1 0x40 MLOAD DUP1 DUP4 SUB DUP2 PUSH1 0x0 DUP8 DUP1 EXTCODESIZE ISZERO DUP1 ISZERO PUSH2 0x91C JUMPI PUSH1 0x0 DUP1 REVERT JUMPDEST POP GAS CALL ISZERO DUP1 ISZERO PUSH2 0x930 JUMPI RETURNDATASIZE PUSH1 0x0 DUP1 RETURNDATACOPY RETURNDATASIZE PUSH1 0x0 REVERT JUMPDEST POP POP POP POP PUSH1 0x40 MLOAD RETURNDATASIZE PUSH1 0x1F NOT PUSH1 0x1F DUP3 ADD AND DUP3 ADD DUP1 PUSH1 0x40 MSTORE POP DUP2 ADD SWAP1 PUSH2 0x954 SWAP2 SWAP1 PUSH2 0xA4A JUMP JUMPDEST POP PUSH1 0x5 SLOAD PUSH1 0x8 SLOAD PUSH1 0x40 DUP1 MLOAD PUSH1 0x1 PUSH1 0x1 PUSH1 0xA0 SHL SUB SWAP1 SWAP4 AND DUP4 MSTORE PUSH1 0x20 DUP4 ADD SWAP2 SWAP1 SWAP2 MSTORE PUSH32 0x7D7570B046E5EAD3A4F3FBC9FA2445113625A1E79823776146316BAFED6B8CC5 SWAP2 ADD JUMPDEST PUSH1 0x40 MLOAD DUP1 SWAP2 SUB SWAP1 LOG1 JUMP JUMPDEST PUSH32 0xE66CD229A88C7DE73F985A5F074DB6C68DD65231260A8D8E81F864D5272F30E5 PUSH1 0x40 MLOAD PUSH2 0x998 SWAP1 PUSH1 0x20 DUP1 DUP3 MSTORE PUSH1 0x1D SWAP1 DUP3 ADD MSTORE PUSH32 0x6E6F20626964732C2072657374617274207468652061756374696F6E21000000 PUSH1 0x40 DUP3 ADD MSTORE PUSH1 0x60 ADD SWAP1 JUMP JUMPDEST PUSH1 0x0 PUSH1 0x20 DUP3 DUP5 SUB SLT ISZERO PUSH2 0xA13 JUMPI PUSH1 0x0 DUP1 REVERT JUMPDEST POP CALLDATALOAD SWAP2 SWAP1 POP JUMP JUMPDEST PUSH1 0x0 PUSH1 0x20 DUP3 DUP5 SUB SLT ISZERO PUSH2 0xA2C JUMPI PUSH1 0x0 DUP1 REVERT JUMPDEST DUP2 CALLDATALOAD PUSH1 0x1 PUSH1 0x1 PUSH1 0xA0 SHL SUB DUP2 AND DUP2 EQ PUSH2 0xA43 JUMPI PUSH1 0x0 DUP1 REVERT JUMPDEST SWAP4 SWAP3 POP POP POP JUMP JUMPDEST PUSH1 0x0 PUSH1 0x20 DUP3 DUP5 SUB SLT ISZERO PUSH2 0xA5C JUMPI PUSH1 0x0 DUP1 REVERT JUMPDEST DUP2 MLOAD DUP1 ISZERO ISZERO DUP2 EQ PUSH2 0xA43 JUMPI PUSH1 0x0 DUP1 REVERT JUMPDEST PUSH1 0x0 DUP3 NOT DUP3 GT ISZERO PUSH2 0xA8D JUMPI PUSH4 0x4E487B71 PUSH1 0xE0 SHL PUSH1 0x0 MSTORE PUSH1 0x11 PUSH1 0x4 MSTORE PUSH1 0x24 PUSH1 0x0 REVERT JUMPDEST POP ADD SWAP1 JUMP JUMPDEST PUSH1 0x1 PUSH1 0x1 PUSH1 0xA0 SHL SUB DUP4 AND DUP2 MSTORE PUSH1 0x0 PUSH1 0x20 PUSH1 0x40 DUP2 DUP5 ADD MSTORE PUSH1 0x0 DUP5 SLOAD DUP2 PUSH1 0x1 DUP3 DUP2 SHR SWAP2 POP DUP1 DUP4 AND DUP1 PUSH2 0xAC3 JUMPI PUSH1 0x7F DUP4 AND SWAP3 POP JUMPDEST DUP6 DUP4 LT DUP2 EQ ISZERO PUSH2 0xAE1 JUMPI PUSH4 0x4E487B71 PUSH1 0xE0 SHL DUP6 MSTORE PUSH1 0x22 PUSH1 0x4 MSTORE PUSH1 0x24 DUP6 REVERT JUMPDEST PUSH1 0x40 DUP9 ADD DUP4 SWAP1 MSTORE PUSH1 0x60 DUP9 ADD DUP2 DUP1 ISZERO PUSH2 0xB00 JUMPI PUSH1 0x1 DUP2 EQ PUSH2 0xB11 JUMPI PUSH2 0xB3C JUMP JUMPDEST PUSH1 0xFF NOT DUP7 AND DUP3 MSTORE DUP8 DUP3 ADD SWAP7 POP PUSH2 0xB3C JUMP JUMPDEST PUSH1 0x0 DUP12 DUP2 MSTORE PUSH1 0x20 SWAP1 KECCAK256 PUSH1 0x0 JUMPDEST DUP7 DUP2 LT ISZERO PUSH2 0xB36 JUMPI DUP2 SLOAD DUP5 DUP3 ADD MSTORE SWAP1 DUP6 ADD SWAP1 DUP10 ADD PUSH2 0xB1D JUMP JUMPDEST DUP4 ADD SWAP8 POP POP JUMPDEST POP SWAP5 SWAP11 SWAP10 POP POP POP POP POP POP POP POP POP POP JUMP INVALID LOG2 PUSH5 0x6970667358 0x22 SLT KECCAK256 0xE1 CREATE2 0xB9 SWAP4 CALLDATASIZE 0xB2 0xB4 SWAP6 POP LOG0 0xB6 PUSH7 0x20C2732854982A SELFDESTRUCT DUP11 PUSH7 0x6EE906DE23BB8B 0xB8 COINBASE SELFDESTRUCT PUSH5 0x736F6C6343 STOP ADDMOD MULMOD STOP CALLER PUSH1 0x80 PUSH1 0x40 MSTORE CALLVALUE DUP1 ISZERO PUSH3 0x11 JUMPI PUSH1 0x0 DUP1 REVERT JUMPDEST POP PUSH1 0x40 MLOAD PUSH3 0xC7C CODESIZE SUB DUP1 PUSH3 0xC7C DUP4 CODECOPY DUP2 ADD PUSH1 0x40 DUP2 SWAP1 MSTORE PUSH3 0x34 SWAP2 PUSH3 0x18F JUMP JUMPDEST PUSH1 0x4 DUP7 SWAP1 SSTORE PUSH1 0x0 DUP1 SLOAD PUSH1 0x1 PUSH1 0x1 PUSH1 0xA0 SHL SUB DUP1 DUP9 AND PUSH1 0x1 PUSH1 0x1 PUSH1 0xA0 SHL SUB NOT SWAP3 DUP4 AND OR SWAP1 SWAP3 SSTORE PUSH1 0x2 DUP1 SLOAD SWAP3 DUP8 AND SWAP3 SWAP1 SWAP2 AND SWAP2 SWAP1 SWAP2 OR SWAP1 SSTORE DUP3 MLOAD PUSH3 0x7E SWAP1 PUSH1 0x3 SWAP1 PUSH1 0x20 DUP7 ADD SWAP1 PUSH3 0xB6 JUMP JUMPDEST POP PUSH1 0x1 DUP1 SLOAD PUSH1 0x1 PUSH1 0x1 PUSH1 0xA0 SHL SUB SWAP4 DUP5 AND PUSH1 0x1 PUSH1 0x1 PUSH1 0xA0 SHL SUB NOT SWAP2 DUP3 AND OR SWAP1 SWAP2 SSTORE PUSH1 0x9 DUP1 SLOAD SWAP3 SWAP1 SWAP4 AND SWAP2 AND OR SWAP1 SSTORE POP PUSH3 0x2FE SWAP3 POP POP POP JUMP JUMPDEST DUP3 DUP1 SLOAD PUSH3 0xC4 SWAP1 PUSH3 0x2C1 JUMP JUMPDEST SWAP1 PUSH1 0x0 MSTORE PUSH1 0x20 PUSH1 0x0 KECCAK256 SWAP1 PUSH1 0x1F ADD PUSH1 0x20 SWAP1 DIV DUP2 ADD SWAP3 DUP3 PUSH3 0xE8 JUMPI PUSH1 0x0 DUP6 SSTORE PUSH3 0x133 JUMP JUMPDEST DUP3 PUSH1 0x1F LT PUSH3 0x103 JUMPI DUP1 MLOAD PUSH1 0xFF NOT AND DUP4 DUP1 ADD OR DUP6 SSTORE PUSH3 0x133 JUMP JUMPDEST DUP3 DUP1 ADD PUSH1 0x1 ADD DUP6 SSTORE DUP3 ISZERO PUSH3 0x133 JUMPI SWAP2 DUP3 ADD JUMPDEST DUP3 DUP2 GT ISZERO PUSH3 0x133 JUMPI DUP3 MLOAD DUP3 SSTORE SWAP2 PUSH1 0x20 ADD SWAP2 SWAP1 PUSH1 0x1 ADD SWAP1 PUSH3 0x116 JUMP JUMPDEST POP PUSH3 0x141 SWAP3 SWAP2 POP PUSH3 0x145 JUMP JUMPDEST POP SWAP1 JUMP JUMPDEST JUMPDEST DUP1 DUP3 GT ISZERO PUSH3 0x141 JUMPI PUSH1 0x0 DUP2 SSTORE PUSH1 0x1 ADD PUSH3 0x146 JUMP JUMPDEST DUP1 MLOAD PUSH1 0x1 PUSH1 0x1 PUSH1 0xA0 SHL SUB DUP2 AND DUP2 EQ PUSH3 0x174 JUMPI PUSH1 0x0 DUP1 REVERT JUMPDEST SWAP2 SWAP1 POP JUMP JUMPDEST PUSH4 0x4E487B71 PUSH1 0xE0 SHL PUSH1 0x0 MSTORE PUSH1 0x41 PUSH1 0x4 MSTORE PUSH1 0x24 PUSH1 0x0 REVERT JUMPDEST PUSH1 0x0 DUP1 PUSH1 0x0 DUP1 PUSH1 0x0 DUP1 PUSH1 0xC0 DUP8 DUP10 SUB SLT ISZERO PUSH3 0x1A9 JUMPI PUSH1 0x0 DUP1 REVERT JUMPDEST DUP7 MLOAD SWAP6 POP PUSH1 0x20 PUSH3 0x1BC DUP2 DUP10 ADD PUSH3 0x15C JUMP JUMPDEST SWAP6 POP PUSH3 0x1CC PUSH1 0x40 DUP10 ADD PUSH3 0x15C JUMP JUMPDEST PUSH1 0x60 DUP10 ADD MLOAD SWAP1 SWAP6 POP PUSH1 0x1 PUSH1 0x1 PUSH1 0x40 SHL SUB DUP1 DUP3 GT ISZERO PUSH3 0x1EA JUMPI PUSH1 0x0 DUP1 REVERT JUMPDEST DUP2 DUP11 ADD SWAP2 POP DUP11 PUSH1 0x1F DUP4 ADD SLT PUSH3 0x1FF JUMPI PUSH1 0x0 DUP1 REVERT JUMPDEST DUP2 MLOAD DUP2 DUP2 GT ISZERO PUSH3 0x214 JUMPI PUSH3 0x214 PUSH3 0x179 JUMP JUMPDEST PUSH1 0x40 MLOAD PUSH1 0x1F DUP3 ADD PUSH1 0x1F NOT SWAP1 DUP2 AND PUSH1 0x3F ADD AND DUP2 ADD SWAP1 DUP4 DUP3 GT DUP2 DUP4 LT OR ISZERO PUSH3 0x23F JUMPI PUSH3 0x23F PUSH3 0x179 JUMP JUMPDEST DUP2 PUSH1 0x40 MSTORE DUP3 DUP2 MSTORE DUP14 DUP7 DUP5 DUP8 ADD ADD GT ISZERO PUSH3 0x258 JUMPI PUSH1 0x0 DUP1 REVERT JUMPDEST PUSH1 0x0 SWAP4 POP JUMPDEST DUP3 DUP5 LT ISZERO PUSH3 0x27C JUMPI DUP5 DUP5 ADD DUP7 ADD MLOAD DUP2 DUP6 ADD DUP8 ADD MSTORE SWAP3 DUP6 ADD SWAP3 PUSH3 0x25D JUMP JUMPDEST DUP3 DUP5 GT ISZERO PUSH3 0x28E JUMPI PUSH1 0x0 DUP7 DUP5 DUP4 ADD ADD MSTORE JUMPDEST DUP1 SWAP9 POP POP POP POP POP POP POP PUSH3 0x2A5 PUSH1 0x80 DUP9 ADD PUSH3 0x15C JUMP JUMPDEST SWAP2 POP PUSH3 0x2B5 PUSH1 0xA0 DUP9 ADD PUSH3 0x15C JUMP JUMPDEST SWAP1 POP SWAP3 SWAP6 POP SWAP3 SWAP6 POP SWAP3 SWAP6 JUMP JUMPDEST PUSH1 0x1 DUP2 DUP2 SHR SWAP1 DUP3 AND DUP1 PUSH3 0x2D6 JUMPI PUSH1 0x7F DUP3 AND SWAP2 POP JUMPDEST PUSH1 0x20 DUP3 LT DUP2 EQ ISZERO PUSH3 0x2F8 JUMPI PUSH4 0x4E487B71 PUSH1 0xE0 SHL PUSH1 0x0 MSTORE PUSH1 0x22 PUSH1 0x4 MSTORE PUSH1 0x24 PUSH1 0x0 REVERT JUMPDEST POP SWAP2 SWAP1 POP JUMP JUMPDEST PUSH2 0x96E DUP1 PUSH3 0x30E PUSH1 0x0 CODECOPY PUSH1 0x0 RETURN INVALID PUSH1 0x80 PUSH1 0x40 MSTORE CALLVALUE DUP1 ISZERO PUSH2 0x10 JUMPI PUSH1 0x0 DUP1 REVERT JUMPDEST POP PUSH1 0x4 CALLDATASIZE LT PUSH2 0xF5 JUMPI PUSH1 0x0 CALLDATALOAD PUSH1 0xE0 SHR DUP1 PUSH4 0x66D003AC GT PUSH2 0x97 JUMPI DUP1 PUSH4 0xB3890FAF GT PUSH2 0x66 JUMPI DUP1 PUSH4 0xB3890FAF EQ PUSH2 0x1C4 JUMPI DUP1 PUSH4 0xCFD8A175 EQ PUSH2 0x1D7 JUMPI DUP1 PUSH4 0xD1B258FF EQ PUSH2 0x1E0 JUMPI DUP1 PUSH4 0xDBDFF2C1 EQ PUSH2 0x1FD JUMPI PUSH1 0x0 DUP1 REVERT JUMPDEST DUP1 PUSH4 0x66D003AC EQ PUSH2 0x183 JUMPI DUP1 PUSH4 0x6FD09816 EQ PUSH2 0x196 JUMPI DUP1 PUSH4 0x729E91E9 EQ PUSH2 0x19E JUMPI DUP1 PUSH4 0x990A49F5 EQ PUSH2 0x1B1 JUMPI PUSH1 0x0 DUP1 REVERT JUMPDEST DUP1 PUSH4 0x461645BF GT PUSH2 0xD3 JUMPI DUP1 PUSH4 0x461645BF EQ PUSH2 0x14B JUMPI DUP1 PUSH4 0x47CCCA02 EQ PUSH2 0x154 JUMPI DUP1 PUSH4 0x486F5954 EQ PUSH2 0x167 JUMPI DUP1 PUSH4 0x59AFF8B7 EQ PUSH2 0x17A JUMPI PUSH1 0x0 DUP1 REVERT JUMPDEST DUP1 PUSH4 0x11610C25 EQ PUSH2 0xFA JUMPI DUP1 PUSH4 0x2B65E040 EQ PUSH2 0x104 JUMPI DUP1 PUSH4 0x3013CE29 EQ PUSH2 0x120 JUMPI JUMPDEST PUSH1 0x0 DUP1 REVERT JUMPDEST PUSH2 0x102 PUSH2 0x203 JUMP JUMPDEST STOP JUMPDEST PUSH2 0x10D PUSH1 0x5 SLOAD DUP2 JUMP JUMPDEST PUSH1 0x40 MLOAD SWAP1 DUP2 MSTORE PUSH1 0x20 ADD JUMPDEST PUSH1 0x40 MLOAD DUP1 SWAP2 SUB SWAP1 RETURN JUMPDEST PUSH1 0x0 SLOAD PUSH2 0x133 SWAP1 PUSH1 0x1 PUSH1 0x1 PUSH1 0xA0 SHL SUB AND DUP2 JUMP JUMPDEST PUSH1 0x40 MLOAD PUSH1 0x1 PUSH1 0x1 PUSH1 0xA0 SHL SUB SWAP1 SWAP2 AND DUP2 MSTORE PUSH1 0x20 ADD PUSH2 0x117 JUMP JUMPDEST PUSH2 0x10D PUSH1 0x8 SLOAD DUP2 JUMP JUMPDEST PUSH1 0x2 SLOAD PUSH2 0x133 SWAP1 PUSH1 0x1 PUSH1 0x1 PUSH1 0xA0 SHL SUB AND DUP2 JUMP JUMPDEST PUSH2 0x10D PUSH2 0x175 CALLDATASIZE PUSH1 0x4 PUSH2 0x7A0 JUMP JUMPDEST PUSH2 0x385 JUMP JUMPDEST PUSH2 0x10D PUSH1 0x7 SLOAD DUP2 JUMP JUMPDEST PUSH1 0x1 SLOAD PUSH2 0x133 SWAP1 PUSH1 0x1 PUSH1 0x1 PUSH1 0xA0 SHL SUB AND DUP2 JUMP JUMPDEST PUSH2 0x102 PUSH2 0x3A2 JUMP JUMPDEST PUSH2 0x102 PUSH2 0x1AC CALLDATASIZE PUSH1 0x4 PUSH2 0x7A0 JUMP JUMPDEST PUSH2 0x613 JUMP JUMPDEST PUSH2 0x102 PUSH2 0x1BF CALLDATASIZE PUSH1 0x4 PUSH2 0x7A0 JUMP JUMPDEST PUSH2 0x640 JUMP JUMPDEST PUSH1 0x9 SLOAD PUSH2 0x133 SWAP1 PUSH1 0x1 PUSH1 0x1 PUSH1 0xA0 SHL SUB AND DUP2 JUMP JUMPDEST PUSH2 0x10D PUSH1 0x4 SLOAD DUP2 JUMP JUMPDEST PUSH1 0x6 SLOAD PUSH2 0x1ED SWAP1 PUSH1 0xFF AND DUP2 JUMP JUMPDEST PUSH1 0x40 MLOAD SWAP1 ISZERO ISZERO DUP2 MSTORE PUSH1 0x20 ADD PUSH2 0x117 JUMP JUMPDEST DIFFICULTY PUSH2 0x10D JUMP JUMPDEST PUSH1 0x6 SLOAD PUSH1 0xFF AND DUP1 ISZERO PUSH2 0x216 JUMPI POP PUSH1 0x7 SLOAD TIMESTAMP LT JUMPDEST PUSH2 0x267 JUMPI PUSH1 0x40 MLOAD PUSH3 0x461BCD PUSH1 0xE5 SHL DUP2 MSTORE PUSH1 0x20 PUSH1 0x4 DUP3 ADD MSTORE PUSH1 0x11 PUSH1 0x24 DUP3 ADD MSTORE PUSH32 0x4C6F747465727920697320636C6F736564000000000000000000000000000000 PUSH1 0x44 DUP3 ADD MSTORE PUSH1 0x64 ADD JUMPDEST PUSH1 0x40 MLOAD DUP1 SWAP2 SUB SWAP1 REVERT JUMPDEST PUSH1 0x4 SLOAD PUSH1 0x5 PUSH1 0x0 DUP3 DUP3 SLOAD PUSH2 0x27B SWAP2 SWAP1 PUSH2 0x7CF JUMP JUMPDEST SWAP1 SWAP2 SSTORE POP POP PUSH1 0xA DUP1 SLOAD PUSH1 0x1 DUP2 ADD DUP3 SSTORE PUSH1 0x0 SWAP2 DUP3 MSTORE PUSH32 0xC65A7BB8D6351C1CF70C95A316CC6A92839C986682D98BC35F958F4883F9D2A8 ADD DUP1 SLOAD PUSH32 0xFFFFFFFFFFFFFFFFFFFFFFFF0000000000000000000000000000000000000000 AND CALLER SWAP1 DUP2 OR SWAP1 SWAP2 SSTORE SWAP1 SLOAD PUSH1 0x4 DUP1 SLOAD PUSH1 0x40 MLOAD PUSH32 0x23B872DD00000000000000000000000000000000000000000000000000000000 DUP2 MSTORE SWAP2 DUP3 ADD SWAP4 SWAP1 SWAP4 MSTORE ADDRESS PUSH1 0x24 DUP3 ADD MSTORE PUSH1 0x44 DUP2 ADD SWAP3 SWAP1 SWAP3 MSTORE PUSH1 0x1 PUSH1 0x1 PUSH1 0xA0 SHL SUB AND SWAP1 PUSH4 0x23B872DD SWAP1 PUSH1 0x64 ADD PUSH1 0x20 PUSH1 0x40 MLOAD DUP1 DUP4 SUB DUP2 PUSH1 0x0 DUP8 DUP1 EXTCODESIZE ISZERO DUP1 ISZERO PUSH2 0x34A JUMPI PUSH1 0x0 DUP1 REVERT JUMPDEST POP GAS CALL ISZERO DUP1 ISZERO PUSH2 0x35E JUMPI RETURNDATASIZE PUSH1 0x0 DUP1 RETURNDATACOPY RETURNDATASIZE PUSH1 0x0 REVERT JUMPDEST POP POP POP POP PUSH1 0x40 MLOAD RETURNDATASIZE PUSH1 0x1F NOT PUSH1 0x1F DUP3 ADD AND DUP3 ADD DUP1 PUSH1 0x40 MSTORE POP DUP2 ADD SWAP1 PUSH2 0x382 SWAP2 SWAP1 PUSH2 0x7E7 JUMP JUMPDEST POP JUMP JUMPDEST PUSH1 0x0 PUSH2 0x392 DUP3 PUSH1 0x3C PUSH2 0x810 JUMP JUMPDEST PUSH2 0x39C SWAP1 TIMESTAMP PUSH2 0x7CF JUMP JUMPDEST SWAP3 SWAP2 POP POP JUMP JUMPDEST PUSH1 0x7 SLOAD TIMESTAMP LT ISZERO PUSH2 0x3F4 JUMPI PUSH1 0x40 MLOAD PUSH3 0x461BCD PUSH1 0xE5 SHL DUP2 MSTORE PUSH1 0x20 PUSH1 0x4 DUP3 ADD MSTORE PUSH1 0x11 PUSH1 0x24 DUP3 ADD MSTORE PUSH32 0x546F6F20736F6F6E20746F20636C6F7365000000000000000000000000000000 PUSH1 0x44 DUP3 ADD MSTORE PUSH1 0x64 ADD PUSH2 0x25E JUMP JUMPDEST PUSH1 0xA SLOAD ISZERO PUSH2 0x607 JUMPI PUSH1 0xA SLOAD PUSH1 0x0 SWAP1 PUSH2 0x40C SWAP1 DIFFICULTY PUSH2 0x82F JUMP JUMPDEST SWAP1 POP PUSH1 0x0 PUSH1 0xA DUP3 DUP2 SLOAD DUP2 LT PUSH2 0x423 JUMPI PUSH2 0x423 PUSH2 0x851 JUMP JUMPDEST PUSH1 0x0 SWAP2 DUP3 MSTORE PUSH1 0x20 DUP3 KECCAK256 ADD SLOAD SWAP1 SLOAD PUSH1 0x1 SLOAD PUSH1 0x5 SLOAD PUSH1 0x40 MLOAD PUSH32 0xA9059CBB00000000000000000000000000000000000000000000000000000000 DUP2 MSTORE PUSH1 0x1 PUSH1 0x1 PUSH1 0xA0 SHL SUB SWAP3 DUP4 AND PUSH1 0x4 DUP3 ADD MSTORE PUSH1 0x24 DUP2 ADD SWAP2 SWAP1 SWAP2 MSTORE SWAP3 DUP2 AND SWAP4 POP AND SWAP1 PUSH4 0xA9059CBB SWAP1 PUSH1 0x44 ADD PUSH1 0x20 PUSH1 0x40 MLOAD DUP1 DUP4 SUB DUP2 PUSH1 0x0 DUP8 DUP1 EXTCODESIZE ISZERO DUP1 ISZERO PUSH2 0x49E JUMPI PUSH1 0x0 DUP1 REVERT JUMPDEST POP GAS CALL ISZERO DUP1 ISZERO PUSH2 0x4B2 JUMPI RETURNDATASIZE PUSH1 0x0 DUP1 RETURNDATACOPY RETURNDATASIZE PUSH1 0x0 REVERT JUMPDEST POP POP POP POP PUSH1 0x40 MLOAD RETURNDATASIZE PUSH1 0x1F NOT PUSH1 0x1F DUP3 ADD AND DUP3 ADD DUP1 PUSH1 0x40 MSTORE POP DUP2 ADD SWAP1 PUSH2 0x4D6 SWAP2 SWAP1 PUSH2 0x7E7 JUMP JUMPDEST POP PUSH1 0x2 SLOAD PUSH1 0x40 MLOAD PUSH32 0xD204C45E00000000000000000000000000000000000000000000000000000000 DUP2 MSTORE PUSH1 0x1 PUSH1 0x1 PUSH1 0xA0 SHL SUB SWAP1 SWAP2 AND SWAP1 PUSH4 0xD204C45E SWAP1 PUSH2 0x523 SWAP1 DUP5 SWAP1 PUSH1 0x3 SWAP1 PUSH1 0x4 ADD PUSH2 0x867 JUMP JUMPDEST PUSH1 0x0 PUSH1 0x40 MLOAD DUP1 DUP4 SUB DUP2 PUSH1 0x0 DUP8 DUP1 EXTCODESIZE ISZERO DUP1 ISZERO PUSH2 0x53D JUMPI PUSH1 0x0 DUP1 REVERT JUMPDEST POP GAS CALL ISZERO DUP1 ISZERO PUSH2 0x551 JUMPI RETURNDATASIZE PUSH1 0x0 DUP1 RETURNDATACOPY RETURNDATASIZE PUSH1 0x0 REVERT JUMPDEST POP POP PUSH1 0x2 SLOAD PUSH1 0x40 MLOAD PUSH32 0x36568ABE00000000000000000000000000000000000000000000000000000000 DUP2 MSTORE PUSH32 0x9F2DF0FED2C77648DE5860A4CC508CD0818C85B8B8A1AB4CEEEF8D981C8956A6 PUSH1 0x4 DUP3 ADD MSTORE ADDRESS PUSH1 0x24 DUP3 ADD MSTORE PUSH1 0x1 PUSH1 0x1 PUSH1 0xA0 SHL SUB SWAP1 SWAP2 AND SWAP3 POP PUSH4 0x36568ABE SWAP2 POP PUSH1 0x44 ADD PUSH1 0x0 PUSH1 0x40 MLOAD DUP1 DUP4 SUB DUP2 PUSH1 0x0 DUP8 DUP1 EXTCODESIZE ISZERO DUP1 ISZERO PUSH2 0x5D9 JUMPI PUSH1 0x0 DUP1 REVERT JUMPDEST POP GAS CALL ISZERO DUP1 ISZERO PUSH2 0x5ED JUMPI RETURNDATASIZE PUSH1 0x0 DUP1 RETURNDATACOPY RETURNDATASIZE PUSH1 0x0 REVERT JUMPDEST POP POP POP POP PUSH1 0xA PUSH1 0x0 PUSH2 0x5FF SWAP2 SWAP1 PUSH2 0x76E JUMP JUMPDEST POP POP PUSH1 0x0 PUSH1 0x5 SSTORE JUMPDEST PUSH1 0x6 DUP1 SLOAD PUSH1 0xFF NOT AND SWAP1 SSTORE JUMP JUMPDEST PUSH1 0x0 DUP2 GT PUSH2 0x620 JUMPI PUSH1 0x0 DUP1 REVERT JUMPDEST DUP1 ISZERO PUSH2 0x382 JUMPI PUSH2 0x62E PUSH2 0x203 JUMP JUMPDEST DUP1 PUSH2 0x638 DUP2 PUSH2 0x921 JUMP JUMPDEST SWAP2 POP POP PUSH2 0x620 JUMP JUMPDEST PUSH1 0x6 SLOAD PUSH1 0xFF AND ISZERO PUSH2 0x693 JUMPI PUSH1 0x40 MLOAD PUSH3 0x461BCD PUSH1 0xE5 SHL DUP2 MSTORE PUSH1 0x20 PUSH1 0x4 DUP3 ADD MSTORE PUSH1 0xF PUSH1 0x24 DUP3 ADD MSTORE PUSH32 0x4C6F7474657279206973206F70656E0000000000000000000000000000000000 PUSH1 0x44 DUP3 ADD MSTORE PUSH1 0x64 ADD PUSH2 0x25E JUMP JUMPDEST TIMESTAMP DUP2 GT PUSH2 0x708 JUMPI PUSH1 0x40 MLOAD PUSH3 0x461BCD PUSH1 0xE5 SHL DUP2 MSTORE PUSH1 0x20 PUSH1 0x4 DUP3 ADD MSTORE PUSH1 0x22 PUSH1 0x24 DUP3 ADD MSTORE PUSH32 0x436C6F73696E672074696D65206D75737420626520696E207468652066757475 PUSH1 0x44 DUP3 ADD MSTORE PUSH32 0x7265000000000000000000000000000000000000000000000000000000000000 PUSH1 0x64 DUP3 ADD MSTORE PUSH1 0x84 ADD PUSH2 0x25E JUMP JUMPDEST PUSH1 0x9 SLOAD PUSH1 0x1 PUSH1 0x1 PUSH1 0xA0 SHL SUB AND CALLER EQ PUSH2 0x71F JUMPI PUSH1 0x0 DUP1 REVERT JUMPDEST PUSH1 0x7 DUP2 SWAP1 SSTORE PUSH1 0x6 DUP1 SLOAD PUSH1 0xFF NOT AND PUSH1 0x1 OR SWAP1 SSTORE PUSH1 0x40 MLOAD PUSH32 0xF06A29C94C6F4EDC1085072972D9441F7603E81C8535A308F214285D0653C850 SWAP1 PUSH2 0x763 SWAP1 DUP4 DUP2 MSTORE PUSH1 0x20 ADD SWAP1 JUMP JUMPDEST PUSH1 0x40 MLOAD DUP1 SWAP2 SUB SWAP1 LOG1 POP JUMP JUMPDEST POP DUP1 SLOAD PUSH1 0x0 DUP3 SSTORE SWAP1 PUSH1 0x0 MSTORE PUSH1 0x20 PUSH1 0x0 KECCAK256 SWAP1 DUP2 ADD SWAP1 PUSH2 0x382 SWAP2 SWAP1 JUMPDEST DUP1 DUP3 GT ISZERO PUSH2 0x79C JUMPI PUSH1 0x0 DUP2 SSTORE PUSH1 0x1 ADD PUSH2 0x788 JUMP JUMPDEST POP SWAP1 JUMP JUMPDEST PUSH1 0x0 PUSH1 0x20 DUP3 DUP5 SUB SLT ISZERO PUSH2 0x7B2 JUMPI PUSH1 0x0 DUP1 REVERT JUMPDEST POP CALLDATALOAD SWAP2 SWAP1 POP JUMP JUMPDEST PUSH4 0x4E487B71 PUSH1 0xE0 SHL PUSH1 0x0 MSTORE PUSH1 0x11 PUSH1 0x4 MSTORE PUSH1 0x24 PUSH1 0x0 REVERT JUMPDEST PUSH1 0x0 DUP3 NOT DUP3 GT ISZERO PUSH2 0x7E2 JUMPI PUSH2 0x7E2 PUSH2 0x7B9 JUMP JUMPDEST POP ADD SWAP1 JUMP JUMPDEST PUSH1 0x0 PUSH1 0x20 DUP3 DUP5 SUB SLT ISZERO PUSH2 0x7F9 JUMPI PUSH1 0x0 DUP1 REVERT JUMPDEST DUP2 MLOAD DUP1 ISZERO ISZERO DUP2 EQ PUSH2 0x809 JUMPI PUSH1 0x0 DUP1 REVERT JUMPDEST SWAP4 SWAP3 POP POP POP JUMP JUMPDEST PUSH1 0x0 DUP2 PUSH1 0x0 NOT DIV DUP4 GT DUP3 ISZERO ISZERO AND ISZERO PUSH2 0x82A JUMPI PUSH2 0x82A PUSH2 0x7B9 JUMP JUMPDEST POP MUL SWAP1 JUMP JUMPDEST PUSH1 0x0 DUP3 PUSH2 0x84C JUMPI PUSH4 0x4E487B71 PUSH1 0xE0 SHL PUSH1 0x0 MSTORE PUSH1 0x12 PUSH1 0x4 MSTORE PUSH1 0x24 PUSH1 0x0 REVERT JUMPDEST POP MOD SWAP1 JUMP JUMPDEST PUSH4 0x4E487B71 PUSH1 0xE0 SHL PUSH1 0x0 MSTORE PUSH1 0x32 PUSH1 0x4 MSTORE PUSH1 0x24 PUSH1 0x0 REVERT JUMPDEST PUSH1 0x1 PUSH1 0x1 PUSH1 0xA0 SHL SUB DUP4 AND DUP2 MSTORE PUSH1 0x0 PUSH1 0x20 PUSH1 0x40 DUP2 DUP5 ADD MSTORE PUSH1 0x0 DUP5 SLOAD DUP2 PUSH1 0x1 DUP3 DUP2 SHR SWAP2 POP DUP1 DUP4 AND DUP1 PUSH2 0x898 JUMPI PUSH1 0x7F DUP4 AND SWAP3 POP JUMPDEST DUP6 DUP4 LT DUP2 EQ ISZERO PUSH2 0x8B6 JUMPI PUSH4 0x4E487B71 PUSH1 0xE0 SHL DUP6 MSTORE PUSH1 0x22 PUSH1 0x4 MSTORE PUSH1 0x24 DUP6 REVERT JUMPDEST PUSH1 0x40 DUP9 ADD DUP4 SWAP1 MSTORE PUSH1 0x60 DUP9 ADD DUP2 DUP1 ISZERO PUSH2 0x8D5 JUMPI PUSH1 0x1 DUP2 EQ PUSH2 0x8E6 JUMPI PUSH2 0x911 JUMP JUMPDEST PUSH1 0xFF NOT DUP7 AND DUP3 MSTORE DUP8 DUP3 ADD SWAP7 POP PUSH2 0x911 JUMP JUMPDEST PUSH1 0x0 DUP12 DUP2 MSTORE PUSH1 0x20 SWAP1 KECCAK256 PUSH1 0x0 JUMPDEST DUP7 DUP2 LT ISZERO PUSH2 0x90B JUMPI DUP2 SLOAD DUP5 DUP3 ADD MSTORE SWAP1 DUP6 ADD SWAP1 DUP10 ADD PUSH2 0x8F2 JUMP JUMPDEST DUP4 ADD SWAP8 POP POP JUMPDEST POP SWAP5 SWAP11 SWAP10 POP POP POP POP POP POP POP POP POP POP JUMP JUMPDEST PUSH1 0x0 DUP2 PUSH2 0x930 JUMPI PUSH2 0x930 PUSH2 0x7B9 JUMP JUMPDEST POP PUSH1 0x0 NOT ADD SWAP1 JUMP INVALID LOG2 PUSH5 0x6970667358 0x22 SLT KECCAK256 EXP PUSH29 0xEB7AE6E17BE7B50CB061AD468D0F39BE3A20084DD2333649FD575D2347 NOT PUSH5 0x736F6C6343 STOP ADDMOD MULMOD STOP CALLER LOG2 PUSH5 0x6970667358 0x22 SLT KECCAK256 0xF7 PUSH13 0x75F967A5111C24E9583C19ACD8 LOG1 0xC7 PUSH5 0x6A9B57B5F2 0xC PUSH1 0x7 ORIGIN 0x2D 0xD KECCAK256 EXTCODECOPY RETURNDATASIZE PUSH5 0x736F6C6343 STOP ADDMOD MULMOD STOP CALLER "},"methodIdentifiers":{"launchAuction(uint256,address,string,address)":"34ea33aa","launchLottery(uint256,address,string,address)":"71bbccdf","nft()":"47ccca02","nftAddress()":"5bf8633a","owner()":"8da5cb5b","renounceOwnership()":"715018a6","setNFT(address)":"f56e9c66","transferOwnership(address)":"f2fde38b"}}}}}