{"contracts/Lottery.sol":{"Lottery":{"abi":[{"inputs":[{"internalType":"uint256","name":"_betPrice","type":"uint256"},{"internalType":"address","name":"_paymentToken","type":"address"},{"internalType":"address","name":"_nft","type":"address"},{"internalType":"string","name":"_uri","type":"string"},{"internalType":"address","name":"_recipient","type":"address"},{"internalType":"address","name":"_saleOwner","type":"address"}],"stateMutability":"nonpayable","type":"constructor"},{"anonymous":false,"inputs":[{"indexed":false,"internalType":"uint256","name":"lotteryClosingTime","type":"uint256"}],"name":"Start","type":"event"},{"inputs":[],"name":"bet","outputs":[],"stateMutability":"nonpayable","type":"function"},{"inputs":[{"internalType":"uint256","name":"times","type":"uint256"}],"name":"betMany","outputs":[],"stateMutability":"nonpayable","type":"function"},{"inputs":[],"name":"betPrice","outputs":[{"internalType":"uint256","name":"","type":"uint256"}],"stateMutability":"view","type":"function"},{"inputs":[],"name":"betsOpen","outputs":[{"internalType":"bool","name":"","type":"bool"}],"stateMutability":"view","type":"function"},{"inputs":[],"name":"closeLottery","outputs":[],"stateMutability":"nonpayable","type":"function"},{"inputs":[{"internalType":"uint256","name":"duration","type":"uint256"}],"name":"getBettingWindow","outputs":[{"internalType":"uint256","name":"","type":"uint256"}],"stateMutability":"view","type":"function"},{"inputs":[],"name":"getRandomNumber","outputs":[{"internalType":"uint256","name":"randomNumber","type":"uint256"}],"stateMutability":"view","type":"function"},{"inputs":[],"name":"lotteryClosingTime","outputs":[{"internalType":"uint256","name":"","type":"uint256"}],"stateMutability":"view","type":"function"},{"inputs":[],"name":"nft","outputs":[{"internalType":"contract IERC721","name":"","type":"address"}],"stateMutability":"view","type":"function"},{"inputs":[{"internalType":"uint256","name":"closingTime","type":"uint256"}],"name":"openBets","outputs":[],"stateMutability":"nonpayable","type":"function"},{"inputs":[],"name":"ownerPool","outputs":[{"internalType":"uint256","name":"","type":"uint256"}],"stateMutability":"view","type":"function"},{"inputs":[],"name":"paymentToken","outputs":[{"internalType":"contract IERC20","name":"","type":"address"}],"stateMutability":"view","type":"function"},{"inputs":[],"name":"recipient","outputs":[{"internalType":"address","name":"","type":"address"}],"stateMutability":"view","type":"function"},{"inputs":[],"name":"saleOwner","outputs":[{"internalType":"address","name":"","type":"address"}],"stateMutability":"view","type":"function"},{"inputs":[],"name":"window","outputs":[{"internalType":"uint256","name":"","type":"uint256"}],"stateMutability":"view","type":"function"}],"evm":{"bytecode":{"linkReferences":{},"object":"60806040523480156200001157600080fd5b5060405162000c7c38038062000c7c83398101604081905262000034916200018f565b6004869055600080546001600160a01b038088166001600160a01b031992831617909255600280549287169290911691909117905582516200007e906003906020860190620000b6565b50600180546001600160a01b039384166001600160a01b0319918216179091556009805492909316911617905550620002fe92505050565b828054620000c490620002c1565b90600052602060002090601f016020900481019282620000e8576000855562000133565b82601f106200010357805160ff191683800117855562000133565b8280016001018555821562000133579182015b828111156200013357825182559160200191906001019062000116565b506200014192915062000145565b5090565b5b8082111562000141576000815560010162000146565b80516001600160a01b03811681146200017457600080fd5b919050565b634e487b7160e01b600052604160045260246000fd5b60008060008060008060c08789031215620001a957600080fd5b865195506020620001bc8189016200015c565b9550620001cc604089016200015c565b60608901519095506001600160401b0380821115620001ea57600080fd5b818a0191508a601f830112620001ff57600080fd5b81518181111562000214576200021462000179565b604051601f8201601f19908116603f011681019083821181831017156200023f576200023f62000179565b816040528281528d868487010111156200025857600080fd5b600093505b828410156200027c57848401860151818501870152928501926200025d565b828411156200028e5760008684830101525b809850505050505050620002a5608088016200015c565b9150620002b560a088016200015c565b90509295509295509295565b600181811c90821680620002d657607f821691505b60208210811415620002f857634e487b7160e01b600052602260045260246000fd5b50919050565b61096e806200030e6000396000f3fe608060405234801561001057600080fd5b50600436106100f55760003560e01c806366d003ac11610097578063b3890faf11610066578063b3890faf146101c4578063cfd8a175146101d7578063d1b258ff146101e0578063dbdff2c1146101fd57600080fd5b806366d003ac146101835780636fd0981614610196578063729e91e91461019e578063990a49f5146101b157600080fd5b8063461645bf116100d3578063461645bf1461014b57806347ccca0214610154578063486f59541461016757806359aff8b71461017a57600080fd5b806311610c25146100fa5780632b65e040146101045780633013ce2914610120575b600080fd5b610102610203565b005b61010d60055481565b6040519081526020015b60405180910390f35b600054610133906001600160a01b031681565b6040516001600160a01b039091168152602001610117565b61010d60085481565b600254610133906001600160a01b031681565b61010d6101753660046107a0565b610385565b61010d60075481565b600154610133906001600160a01b031681565b6101026103a2565b6101026101ac3660046107a0565b610613565b6101026101bf3660046107a0565b610640565b600954610133906001600160a01b031681565b61010d60045481565b6006546101ed9060ff1681565b6040519015158152602001610117565b4461010d565b60065460ff168015610216575060075442105b6102675760405162461bcd60e51b815260206004820152601160248201527f4c6f747465727920697320636c6f73656400000000000000000000000000000060448201526064015b60405180910390fd5b6004546005600082825461027b91906107cf565b9091555050600a805460018101825560009182527fc65a7bb8d6351c1cf70c95a316cc6a92839c986682d98bc35f958f4883f9d2a80180547fffffffffffffffffffffffff000000000000000000000000000000000000000016339081179091559054600480546040517f23b872dd0000000000000000000000000000000000000000000000000000000081529182019390935230602482015260448101929092526001600160a01b0316906323b872dd90606401602060405180830381600087803b15801561034a57600080fd5b505af115801561035e573d6000803e3d6000fd5b505050506040513d601f19601f8201168201806040525081019061038291906107e7565b50565b600061039282603c610810565b61039c90426107cf565b92915050565b6007544210156103f45760405162461bcd60e51b815260206004820152601160248201527f546f6f20736f6f6e20746f20636c6f7365000000000000000000000000000000604482015260640161025e565b600a541561060757600a5460009061040c904461082f565b90506000600a828154811061042357610423610851565b600091825260208220015490546001546005546040517fa9059cbb0000000000000000000000000000000000000000000000000000000081526001600160a01b03928316600482015260248101919091529281169350169063a9059cbb90604401602060405180830381600087803b15801561049e57600080fd5b505af11580156104b2573d6000803e3d6000fd5b505050506040513d601f19601f820116820180604052508101906104d691906107e7565b506002546040517fd204c45e0000000000000000000000000000000000000000000000000000000081526001600160a01b039091169063d204c45e90610523908490600390600401610867565b600060405180830381600087803b15801561053d57600080fd5b505af1158015610551573d6000803e3d6000fd5b50506002546040517f36568abe0000000000000000000000000000000000000000000000000000000081527f9f2df0fed2c77648de5860a4cc508cd0818c85b8b8a1ab4ceeef8d981c8956a660048201523060248201526001600160a01b0390911692506336568abe9150604401600060405180830381600087803b1580156105d957600080fd5b505af11580156105ed573d6000803e3d6000fd5b50505050600a60006105ff919061076e565b505060006005555b6006805460ff19169055565b6000811161062057600080fd5b80156103825761062e610203565b8061063881610921565b915050610620565b60065460ff16156106935760405162461bcd60e51b815260206004820152600f60248201527f4c6f7474657279206973206f70656e0000000000000000000000000000000000604482015260640161025e565b4281116107085760405162461bcd60e51b815260206004820152602260248201527f436c6f73696e672074696d65206d75737420626520696e20746865206675747560448201527f7265000000000000000000000000000000000000000000000000000000000000606482015260840161025e565b6009546001600160a01b0316331461071f57600080fd5b60078190556006805460ff191660011790556040517ff06a29c94c6f4edc1085072972d9441f7603e81c8535a308f214285d0653c850906107639083815260200190565b60405180910390a150565b508054600082559060005260206000209081019061038291905b8082111561079c5760008155600101610788565b5090565b6000602082840312156107b257600080fd5b5035919050565b634e487b7160e01b600052601160045260246000fd5b600082198211156107e2576107e26107b9565b500190565b6000602082840312156107f957600080fd5b8151801515811461080957600080fd5b9392505050565b600081600019048311821515161561082a5761082a6107b9565b500290565b60008261084c57634e487b7160e01b600052601260045260246000fd5b500690565b634e487b7160e01b600052603260045260246000fd5b6001600160a01b0383168152600060206040818401526000845481600182811c91508083168061089857607f831692505b8583108114156108b657634e487b7160e01b85526022600452602485fd5b60408801839052606088018180156108d557600181146108e657610911565b60ff19861682528782019650610911565b60008b81526020902060005b8681101561090b578154848201529085019089016108f2565b83019750505b50949a9950505050505050505050565b600081610930576109306107b9565b50600019019056fea26469706673582212200a7ceb7ae6e17be7b50cb061ad468d0f39be3a20084dd2333649fd575d23471964736f6c63430008090033","opcodes":"PUSH1 0x80 PUSH1 0x40 MSTORE CALLVALUE DUP1 ISZERO PUSH3 0x11 JUMPI PUSH1 0x0 DUP1 REVERT JUMPDEST POP PUSH1 0x40 MLOAD PUSH3 0xC7C CODESIZE SUB DUP1 PUSH3 0xC7C DUP4 CODECOPY DUP2 ADD PUSH1 0x40 DUP2 SWAP1 MSTORE PUSH3 0x34 SWAP2 PUSH3 0x18F JUMP JUMPDEST PUSH1 0x4 DUP7 SWAP1 SSTORE PUSH1 0x0 DUP1 SLOAD PUSH1 0x1 PUSH1 0x1 PUSH1 0xA0 SHL SUB DUP1 DUP9 AND PUSH1 0x1 PUSH1 0x1 PUSH1 0xA0 SHL SUB NOT SWAP3 DUP4 AND OR SWAP1 SWAP3 SSTORE PUSH1 0x2 DUP1 SLOAD SWAP3 DUP8 AND SWAP3 SWAP1 SWAP2 AND SWAP2 SWAP1 SWAP2 OR SWAP1 SSTORE DUP3 MLOAD PUSH3 0x7E SWAP1 PUSH1 0x3 SWAP1 PUSH1 0x20 DUP7 ADD SWAP1 PUSH3 0xB6 JUMP JUMPDEST POP PUSH1 0x1 DUP1 SLOAD PUSH1 0x1 PUSH1 0x1 PUSH1 0xA0 SHL SUB SWAP4 DUP5 AND PUSH1 0x1 PUSH1 0x1 PUSH1 0xA0 SHL SUB NOT SWAP2 DUP3 AND OR SWAP1 SWAP2 SSTORE PUSH1 0x9 DUP1 SLOAD SWAP3 SWAP1 SWAP4 AND SWAP2 AND OR SWAP1 SSTORE POP PUSH3 0x2FE SWAP3 POP POP POP JUMP JUMPDEST DUP3 DUP1 SLOAD PUSH3 0xC4 SWAP1 PUSH3 0x2C1 JUMP JUMPDEST SWAP1 PUSH1 0x0 MSTORE PUSH1 0x20 PUSH1 0x0 KECCAK256 SWAP1 PUSH1 0x1F ADD PUSH1 0x20 SWAP1 DIV DUP2 ADD SWAP3 DUP3 PUSH3 0xE8 JUMPI PUSH1 0x0 DUP6 SSTORE PUSH3 0x133 JUMP JUMPDEST DUP3 PUSH1 0x1F LT PUSH3 0x103 JUMPI DUP1 MLOAD PUSH1 0xFF NOT AND DUP4 DUP1 ADD OR DUP6 SSTORE PUSH3 0x133 JUMP JUMPDEST DUP3 DUP1 ADD PUSH1 0x1 ADD DUP6 SSTORE DUP3 ISZERO PUSH3 0x133 JUMPI SWAP2 DUP3 ADD JUMPDEST DUP3 DUP2 GT ISZERO PUSH3 0x133 JUMPI DUP3 MLOAD DUP3 SSTORE SWAP2 PUSH1 0x20 ADD SWAP2 SWAP1 PUSH1 0x1 ADD SWAP1 PUSH3 0x116 JUMP JUMPDEST POP PUSH3 0x141 SWAP3 SWAP2 POP PUSH3 0x145 JUMP JUMPDEST POP SWAP1 JUMP JUMPDEST JUMPDEST DUP1 DUP3 GT ISZERO PUSH3 0x141 JUMPI PUSH1 0x0 DUP2 SSTORE PUSH1 0x1 ADD PUSH3 0x146 JUMP JUMPDEST DUP1 MLOAD PUSH1 0x1 PUSH1 0x1 PUSH1 0xA0 SHL SUB DUP2 AND DUP2 EQ PUSH3 0x174 JUMPI PUSH1 0x0 DUP1 REVERT JUMPDEST SWAP2 SWAP1 POP JUMP JUMPDEST PUSH4 0x4E487B71 PUSH1 0xE0 SHL PUSH1 0x0 MSTORE PUSH1 0x41 PUSH1 0x4 MSTORE PUSH1 0x24 PUSH1 0x0 REVERT JUMPDEST PUSH1 0x0 DUP1 PUSH1 0x0 DUP1 PUSH1 0x0 DUP1 PUSH1 0xC0 DUP8 DUP10 SUB SLT ISZERO PUSH3 0x1A9 JUMPI PUSH1 0x0 DUP1 REVERT JUMPDEST DUP7 MLOAD SWAP6 POP PUSH1 0x20 PUSH3 0x1BC DUP2 DUP10 ADD PUSH3 0x15C JUMP JUMPDEST SWAP6 POP PUSH3 0x1CC PUSH1 0x40 DUP10 ADD PUSH3 0x15C JUMP JUMPDEST PUSH1 0x60 DUP10 ADD MLOAD SWAP1 SWAP6 POP PUSH1 0x1 PUSH1 0x1 PUSH1 0x40 SHL SUB DUP1 DUP3 GT ISZERO PUSH3 0x1EA JUMPI PUSH1 0x0 DUP1 REVERT JUMPDEST DUP2 DUP11 ADD SWAP2 POP DUP11 PUSH1 0x1F DUP4 ADD SLT PUSH3 0x1FF JUMPI PUSH1 0x0 DUP1 REVERT JUMPDEST DUP2 MLOAD DUP2 DUP2 GT ISZERO PUSH3 0x214 JUMPI PUSH3 0x214 PUSH3 0x179 JUMP JUMPDEST PUSH1 0x40 MLOAD PUSH1 0x1F DUP3 ADD PUSH1 0x1F NOT SWAP1 DUP2 AND PUSH1 0x3F ADD AND DUP2 ADD SWAP1 DUP4 DUP3 GT DUP2 DUP4 LT OR ISZERO PUSH3 0x23F JUMPI PUSH3 0x23F PUSH3 0x179 JUMP JUMPDEST DUP2 PUSH1 0x40 MSTORE DUP3 DUP2 MSTORE DUP14 DUP7 DUP5 DUP8 ADD ADD GT ISZERO PUSH3 0x258 JUMPI PUSH1 0x0 DUP1 REVERT JUMPDEST PUSH1 0x0 SWAP4 POP JUMPDEST DUP3 DUP5 LT ISZERO PUSH3 0x27C JUMPI DUP5 DUP5 ADD DUP7 ADD MLOAD DUP2 DUP6 ADD DUP8 ADD MSTORE SWAP3 DUP6 ADD SWAP3 PUSH3 0x25D JUMP JUMPDEST DUP3 DUP5 GT ISZERO PUSH3 0x28E JUMPI PUSH1 0x0 DUP7 DUP5 DUP4 ADD ADD MSTORE JUMPDEST DUP1 SWAP9 POP POP POP POP POP POP POP PUSH3 0x2A5 PUSH1 0x80 DUP9 ADD PUSH3 0x15C JUMP JUMPDEST SWAP2 POP PUSH3 0x2B5 PUSH1 0xA0 DUP9 ADD PUSH3 0x15C JUMP JUMPDEST SWAP1 POP SWAP3 SWAP6 POP SWAP3 SWAP6 POP SWAP3 SWAP6 JUMP JUMPDEST PUSH1 0x1 DUP2 DUP2 SHR SWAP1 DUP3 AND DUP1 PUSH3 0x2D6 JUMPI PUSH1 0x7F DUP3 AND SWAP2 POP JUMPDEST PUSH1 0x20 DUP3 LT DUP2 EQ ISZERO PUSH3 0x2F8 JUMPI PUSH4 0x4E487B71 PUSH1 0xE0 SHL PUSH1 0x0 MSTORE PUSH1 0x22 PUSH1 0x4 MSTORE PUSH1 0x24 PUSH1 0x0 REVERT JUMPDEST POP SWAP2 SWAP1 POP JUMP JUMPDEST PUSH2 0x96E DUP1 PUSH3 0x30E PUSH1 0x0 CODECOPY PUSH1 0x0 RETURN INVALID PUSH1 0x80 PUSH1 0x40 MSTORE CALLVALUE DUP1 ISZERO PUSH2 0x10 JUMPI PUSH1 0x0 DUP1 REVERT JUMPDEST POP PUSH1 0x4 CALLDATASIZE LT PUSH2 0xF5 JUMPI PUSH1 0x0 CALLDATALOAD PUSH1 0xE0 SHR DUP1 PUSH4 0x66D003AC GT PUSH2 0x97 JUMPI DUP1 PUSH4 0xB3890FAF GT PUSH2 0x66 JUMPI DUP1 PUSH4 0xB3890FAF EQ PUSH2 0x1C4 JUMPI DUP1 PUSH4 0xCFD8A175 EQ PUSH2 0x1D7 JUMPI DUP1 PUSH4 0xD1B258FF EQ PUSH2 0x1E0 JUMPI DUP1 PUSH4 0xDBDFF2C1 EQ PUSH2 0x1FD JUMPI PUSH1 0x0 DUP1 REVERT JUMPDEST DUP1 PUSH4 0x66D003AC EQ PUSH2 0x183 JUMPI DUP1 PUSH4 0x6FD09816 EQ PUSH2 0x196 JUMPI DUP1 PUSH4 0x729E91E9 EQ PUSH2 0x19E JUMPI DUP1 PUSH4 0x990A49F5 EQ PUSH2 0x1B1 JUMPI PUSH1 0x0 DUP1 REVERT JUMPDEST DUP1 PUSH4 0x461645BF GT PUSH2 0xD3 JUMPI DUP1 PUSH4 0x461645BF EQ PUSH2 0x14B JUMPI DUP1 PUSH4 0x47CCCA02 EQ PUSH2 0x154 JUMPI DUP1 PUSH4 0x486F5954 EQ PUSH2 0x167 JUMPI DUP1 PUSH4 0x59AFF8B7 EQ PUSH2 0x17A JUMPI PUSH1 0x0 DUP1 REVERT JUMPDEST DUP1 PUSH4 0x11610C25 EQ PUSH2 0xFA JUMPI DUP1 PUSH4 0x2B65E040 EQ PUSH2 0x104 JUMPI DUP1 PUSH4 0x3013CE29 EQ PUSH2 0x120 JUMPI JUMPDEST PUSH1 0x0 DUP1 REVERT JUMPDEST PUSH2 0x102 PUSH2 0x203 JUMP JUMPDEST STOP JUMPDEST PUSH2 0x10D PUSH1 0x5 SLOAD DUP2 JUMP JUMPDEST PUSH1 0x40 MLOAD SWAP1 DUP2 MSTORE PUSH1 0x20 ADD JUMPDEST PUSH1 0x40 MLOAD DUP1 SWAP2 SUB SWAP1 RETURN JUMPDEST PUSH1 0x0 SLOAD PUSH2 0x133 SWAP1 PUSH1 0x1 PUSH1 0x1 PUSH1 0xA0 SHL SUB AND DUP2 JUMP JUMPDEST PUSH1 0x40 MLOAD PUSH1 0x1 PUSH1 0x1 PUSH1 0xA0 SHL SUB SWAP1 SWAP2 AND DUP2 MSTORE PUSH1 0x20 ADD PUSH2 0x117 JUMP JUMPDEST PUSH2 0x10D PUSH1 0x8 SLOAD DUP2 JUMP JUMPDEST PUSH1 0x2 SLOAD PUSH2 0x133 SWAP1 PUSH1 0x1 PUSH1 0x1 PUSH1 0xA0 SHL SUB AND DUP2 JUMP JUMPDEST PUSH2 0x10D PUSH2 0x175 CALLDATASIZE PUSH1 0x4 PUSH2 0x7A0 JUMP JUMPDEST PUSH2 0x385 JUMP JUMPDEST PUSH2 0x10D PUSH1 0x7 SLOAD DUP2 JUMP JUMPDEST PUSH1 0x1 SLOAD PUSH2 0x133 SWAP1 PUSH1 0x1 PUSH1 0x1 PUSH1 0xA0 SHL SUB AND DUP2 JUMP JUMPDEST PUSH2 0x102 PUSH2 0x3A2 JUMP JUMPDEST PUSH2 0x102 PUSH2 0x1AC CALLDATASIZE PUSH1 0x4 PUSH2 0x7A0 JUMP JUMPDEST PUSH2 0x613 JUMP JUMPDEST PUSH2 0x102 PUSH2 0x1BF CALLDATASIZE PUSH1 0x4 PUSH2 0x7A0 JUMP JUMPDEST PUSH2 0x640 JUMP JUMPDEST PUSH1 0x9 SLOAD PUSH2 0x133 SWAP1 PUSH1 0x1 PUSH1 0x1 PUSH1 0xA0 SHL SUB AND DUP2 JUMP JUMPDEST PUSH2 0x10D PUSH1 0x4 SLOAD DUP2 JUMP JUMPDEST PUSH1 0x6 SLOAD PUSH2 0x1ED SWAP1 PUSH1 0xFF AND DUP2 JUMP JUMPDEST PUSH1 0x40 MLOAD SWAP1 ISZERO ISZERO DUP2 MSTORE PUSH1 0x20 ADD PUSH2 0x117 JUMP JUMPDEST DIFFICULTY PUSH2 0x10D JUMP JUMPDEST PUSH1 0x6 SLOAD PUSH1 0xFF AND DUP1 ISZERO PUSH2 0x216 JUMPI POP PUSH1 0x7 SLOAD TIMESTAMP LT JUMPDEST PUSH2 0x267 JUMPI PUSH1 0x40 MLOAD PUSH3 0x461BCD PUSH1 0xE5 SHL DUP2 MSTORE PUSH1 0x20 PUSH1 0x4 DUP3 ADD MSTORE PUSH1 0x11 PUSH1 0x24 DUP3 ADD MSTORE PUSH32 0x4C6F747465727920697320636C6F736564000000000000000000000000000000 PUSH1 0x44 DUP3 ADD MSTORE PUSH1 0x64 ADD JUMPDEST PUSH1 0x40 MLOAD DUP1 SWAP2 SUB SWAP1 REVERT JUMPDEST PUSH1 0x4 SLOAD PUSH1 0x5 PUSH1 0x0 DUP3 DUP3 SLOAD PUSH2 0x27B SWAP2 SWAP1 PUSH2 0x7CF JUMP JUMPDEST SWAP1 SWAP2 SSTORE POP POP PUSH1 0xA DUP1 SLOAD PUSH1 0x1 DUP2 ADD DUP3 SSTORE PUSH1 0x0 SWAP2 DUP3 MSTORE PUSH32 0xC65A7BB8D6351C1CF70C95A316CC6A92839C986682D98BC35F958F4883F9D2A8 ADD DUP1 SLOAD PUSH32 0xFFFFFFFFFFFFFFFFFFFFFFFF0000000000000000000000000000000000000000 AND CALLER SWAP1 DUP2 OR SWAP1 SWAP2 SSTORE SWAP1 SLOAD PUSH1 0x4 DUP1 SLOAD PUSH1 0x40 MLOAD PUSH32 0x23B872DD00000000000000000000000000000000000000000000000000000000 DUP2 MSTORE SWAP2 DUP3 ADD SWAP4 SWAP1 SWAP4 MSTORE ADDRESS PUSH1 0x24 DUP3 ADD MSTORE PUSH1 0x44 DUP2 ADD SWAP3 SWAP1 SWAP3 MSTORE PUSH1 0x1 PUSH1 0x1 PUSH1 0xA0 SHL SUB AND SWAP1 PUSH4 0x23B872DD SWAP1 PUSH1 0x64 ADD PUSH1 0x20 PUSH1 0x40 MLOAD DUP1 DUP4 SUB DUP2 PUSH1 0x0 DUP8 DUP1 EXTCODESIZE ISZERO DUP1 ISZERO PUSH2 0x34A JUMPI PUSH1 0x0 DUP1 REVERT JUMPDEST POP GAS CALL ISZERO DUP1 ISZERO PUSH2 0x35E JUMPI RETURNDATASIZE PUSH1 0x0 DUP1 RETURNDATACOPY RETURNDATASIZE PUSH1 0x0 REVERT JUMPDEST POP POP POP POP PUSH1 0x40 MLOAD RETURNDATASIZE PUSH1 0x1F NOT PUSH1 0x1F DUP3 ADD AND DUP3 ADD DUP1 PUSH1 0x40 MSTORE POP DUP2 ADD SWAP1 PUSH2 0x382 SWAP2 SWAP1 PUSH2 0x7E7 JUMP JUMPDEST POP JUMP JUMPDEST PUSH1 0x0 PUSH2 0x392 DUP3 PUSH1 0x3C PUSH2 0x810 JUMP JUMPDEST PUSH2 0x39C SWAP1 TIMESTAMP PUSH2 0x7CF JUMP JUMPDEST SWAP3 SWAP2 POP POP JUMP JUMPDEST PUSH1 0x7 SLOAD TIMESTAMP LT ISZERO PUSH2 0x3F4 JUMPI PUSH1 0x40 MLOAD PUSH3 0x461BCD PUSH1 0xE5 SHL DUP2 MSTORE PUSH1 0x20 PUSH1 0x4 DUP3 ADD MSTORE PUSH1 0x11 PUSH1 0x24 DUP3 ADD MSTORE PUSH32 0x546F6F20736F6F6E20746F20636C6F7365000000000000000000000000000000 PUSH1 0x44 DUP3 ADD MSTORE PUSH1 0x64 ADD PUSH2 0x25E JUMP JUMPDEST PUSH1 0xA SLOAD ISZERO PUSH2 0x607 JUMPI PUSH1 0xA SLOAD PUSH1 0x0 SWAP1 PUSH2 0x40C SWAP1 DIFFICULTY PUSH2 0x82F JUMP JUMPDEST SWAP1 POP PUSH1 0x0 PUSH1 0xA DUP3 DUP2 SLOAD DUP2 LT PUSH2 0x423 JUMPI PUSH2 0x423 PUSH2 0x851 JUMP JUMPDEST PUSH1 0x0 SWAP2 DUP3 MSTORE PUSH1 0x20 DUP3 KECCAK256 ADD SLOAD SWAP1 SLOAD PUSH1 0x1 SLOAD PUSH1 0x5 SLOAD PUSH1 0x40 MLOAD PUSH32 0xA9059CBB00000000000000000000000000000000000000000000000000000000 DUP2 MSTORE PUSH1 0x1 PUSH1 0x1 PUSH1 0xA0 SHL SUB SWAP3 DUP4 AND PUSH1 0x4 DUP3 ADD MSTORE PUSH1 0x24 DUP2 ADD SWAP2 SWAP1 SWAP2 MSTORE SWAP3 DUP2 AND SWAP4 POP AND SWAP1 PUSH4 0xA9059CBB SWAP1 PUSH1 0x44 ADD PUSH1 0x20 PUSH1 0x40 MLOAD DUP1 DUP4 SUB DUP2 PUSH1 0x0 DUP8 DUP1 EXTCODESIZE ISZERO DUP1 ISZERO PUSH2 0x49E JUMPI PUSH1 0x0 DUP1 REVERT JUMPDEST POP GAS CALL ISZERO DUP1 ISZERO PUSH2 0x4B2 JUMPI RETURNDATASIZE PUSH1 0x0 DUP1 RETURNDATACOPY RETURNDATASIZE PUSH1 0x0 REVERT JUMPDEST POP POP POP POP PUSH1 0x40 MLOAD RETURNDATASIZE PUSH1 0x1F NOT PUSH1 0x1F DUP3 ADD AND DUP3 ADD DUP1 PUSH1 0x40 MSTORE POP DUP2 ADD SWAP1 PUSH2 0x4D6 SWAP2 SWAP1 PUSH2 0x7E7 JUMP JUMPDEST POP PUSH1 0x2 SLOAD PUSH1 0x40 MLOAD PUSH32 0xD204C45E00000000000000000000000000000000000000000000000000000000 DUP2 MSTORE PUSH1 0x1 PUSH1 0x1 PUSH1 0xA0 SHL SUB SWAP1 SWAP2 AND SWAP1 PUSH4 0xD204C45E SWAP1 PUSH2 0x523 SWAP1 DUP5 SWAP1 PUSH1 0x3 SWAP1 PUSH1 0x4 ADD PUSH2 0x867 JUMP JUMPDEST PUSH1 0x0 PUSH1 0x40 MLOAD DUP1 DUP4 SUB DUP2 PUSH1 0x0 DUP8 DUP1 EXTCODESIZE ISZERO DUP1 ISZERO PUSH2 0x53D JUMPI PUSH1 0x0 DUP1 REVERT JUMPDEST POP GAS CALL ISZERO DUP1 ISZERO PUSH2 0x551 JUMPI RETURNDATASIZE PUSH1 0x0 DUP1 RETURNDATACOPY RETURNDATASIZE PUSH1 0x0 REVERT JUMPDEST POP POP PUSH1 0x2 SLOAD PUSH1 0x40 MLOAD PUSH32 0x36568ABE00000000000000000000000000000000000000000000000000000000 DUP2 MSTORE PUSH32 0x9F2DF0FED2C77648DE5860A4CC508CD0818C85B8B8A1AB4CEEEF8D981C8956A6 PUSH1 0x4 DUP3 ADD MSTORE ADDRESS PUSH1 0x24 DUP3 ADD MSTORE PUSH1 0x1 PUSH1 0x1 PUSH1 0xA0 SHL SUB SWAP1 SWAP2 AND SWAP3 POP PUSH4 0x36568ABE SWAP2 POP PUSH1 0x44 ADD PUSH1 0x0 PUSH1 0x40 MLOAD DUP1 DUP4 SUB DUP2 PUSH1 0x0 DUP8 DUP1 EXTCODESIZE ISZERO DUP1 ISZERO PUSH2 0x5D9 JUMPI PUSH1 0x0 DUP1 REVERT JUMPDEST POP GAS CALL ISZERO DUP1 ISZERO PUSH2 0x5ED JUMPI RETURNDATASIZE PUSH1 0x0 DUP1 RETURNDATACOPY RETURNDATASIZE PUSH1 0x0 REVERT JUMPDEST POP POP POP POP PUSH1 0xA PUSH1 0x0 PUSH2 0x5FF SWAP2 SWAP1 PUSH2 0x76E JUMP JUMPDEST POP POP PUSH1 0x0 PUSH1 0x5 SSTORE JUMPDEST PUSH1 0x6 DUP1 SLOAD PUSH1 0xFF NOT AND SWAP1 SSTORE JUMP JUMPDEST PUSH1 0x0 DUP2 GT PUSH2 0x620 JUMPI PUSH1 0x0 DUP1 REVERT JUMPDEST DUP1 ISZERO PUSH2 0x382 JUMPI PUSH2 0x62E PUSH2 0x203 JUMP JUMPDEST DUP1 PUSH2 0x638 DUP2 PUSH2 0x921 JUMP JUMPDEST SWAP2 POP POP PUSH2 0x620 JUMP JUMPDEST PUSH1 0x6 SLOAD PUSH1 0xFF AND ISZERO PUSH2 0x693 JUMPI PUSH1 0x40 MLOAD PUSH3 0x461BCD PUSH1 0xE5 SHL DUP2 MSTORE PUSH1 0x20 PUSH1 0x4 DUP3 ADD MSTORE PUSH1 0xF PUSH1 0x24 DUP3 ADD MSTORE PUSH32 0x4C6F7474657279206973206F70656E0000000000000000000000000000000000 PUSH1 0x44 DUP3 ADD MSTORE PUSH1 0x64 ADD PUSH2 0x25E JUMP JUMPDEST TIMESTAMP DUP2 GT PUSH2 0x708 JUMPI PUSH1 0x40 MLOAD PUSH3 0x461BCD PUSH1 0xE5 SHL DUP2 MSTORE PUSH1 0x20 PUSH1 0x4 DUP3 ADD MSTORE PUSH1 0x22 PUSH1 0x24 DUP3 ADD MSTORE PUSH32 0x436C6F73696E672074696D65206D75737420626520696E207468652066757475 PUSH1 0x44 DUP3 ADD MSTORE PUSH32 0x7265000000000000000000000000000000000000000000000000000000000000 PUSH1 0x64 DUP3 ADD MSTORE PUSH1 0x84 ADD PUSH2 0x25E JUMP JUMPDEST PUSH1 0x9 SLOAD PUSH1 0x1 PUSH1 0x1 PUSH1 0xA0 SHL SUB AND CALLER EQ PUSH2 0x71F JUMPI PUSH1 0x0 DUP1 REVERT JUMPDEST PUSH1 0x7 DUP2 SWAP1 SSTORE PUSH1 0x6 DUP1 SLOAD PUSH1 0xFF NOT AND PUSH1 0x1 OR SWAP1 SSTORE PUSH1 0x40 MLOAD PUSH32 0xF06A29C94C6F4EDC1085072972D9441F7603E81C8535A308F214285D0653C850 SWAP1 PUSH2 0x763 SWAP1 DUP4 DUP2 MSTORE PUSH1 0x20 ADD SWAP1 JUMP JUMPDEST PUSH1 0x40 MLOAD DUP1 SWAP2 SUB SWAP1 LOG1 POP JUMP JUMPDEST POP DUP1 SLOAD PUSH1 0x0 DUP3 SSTORE SWAP1 PUSH1 0x0 MSTORE PUSH1 0x20 PUSH1 0x0 KECCAK256 SWAP1 DUP2 ADD SWAP1 PUSH2 0x382 SWAP2 SWAP1 JUMPDEST DUP1 DUP3 GT ISZERO PUSH2 0x79C JUMPI PUSH1 0x0 DUP2 SSTORE PUSH1 0x1 ADD PUSH2 0x788 JUMP JUMPDEST POP SWAP1 JUMP JUMPDEST PUSH1 0x0 PUSH1 0x20 DUP3 DUP5 SUB SLT ISZERO PUSH2 0x7B2 JUMPI PUSH1 0x0 DUP1 REVERT JUMPDEST POP CALLDATALOAD SWAP2 SWAP1 POP JUMP JUMPDEST PUSH4 0x4E487B71 PUSH1 0xE0 SHL PUSH1 0x0 MSTORE PUSH1 0x11 PUSH1 0x4 MSTORE PUSH1 0x24 PUSH1 0x0 REVERT JUMPDEST PUSH1 0x0 DUP3 NOT DUP3 GT ISZERO PUSH2 0x7E2 JUMPI PUSH2 0x7E2 PUSH2 0x7B9 JUMP JUMPDEST POP ADD SWAP1 JUMP JUMPDEST PUSH1 0x0 PUSH1 0x20 DUP3 DUP5 SUB SLT ISZERO PUSH2 0x7F9 JUMPI PUSH1 0x0 DUP1 REVERT JUMPDEST DUP2 MLOAD DUP1 ISZERO ISZERO DUP2 EQ PUSH2 0x809 JUMPI PUSH1 0x0 DUP1 REVERT JUMPDEST SWAP4 SWAP3 POP POP POP JUMP JUMPDEST PUSH1 0x0 DUP2 PUSH1 0x0 NOT DIV DUP4 GT DUP3 ISZERO ISZERO AND ISZERO PUSH2 0x82A JUMPI PUSH2 0x82A PUSH2 0x7B9 JUMP JUMPDEST POP MUL SWAP1 JUMP JUMPDEST PUSH1 0x0 DUP3 PUSH2 0x84C JUMPI PUSH4 0x4E487B71 PUSH1 0xE0 SHL PUSH1 0x0 MSTORE PUSH1 0x12 PUSH1 0x4 MSTORE PUSH1 0x24 PUSH1 0x0 REVERT JUMPDEST POP MOD SWAP1 JUMP JUMPDEST PUSH4 0x4E487B71 PUSH1 0xE0 SHL PUSH1 0x0 MSTORE PUSH1 0x32 PUSH1 0x4 MSTORE PUSH1 0x24 PUSH1 0x0 REVERT JUMPDEST PUSH1 0x1 PUSH1 0x1 PUSH1 0xA0 SHL SUB DUP4 AND DUP2 MSTORE PUSH1 0x0 PUSH1 0x20 PUSH1 0x40 DUP2 DUP5 ADD MSTORE PUSH1 0x0 DUP5 SLOAD DUP2 PUSH1 0x1 DUP3 DUP2 SHR SWAP2 POP DUP1 DUP4 AND DUP1 PUSH2 0x898 JUMPI PUSH1 0x7F DUP4 AND SWAP3 POP JUMPDEST DUP6 DUP4 LT DUP2 EQ ISZERO PUSH2 0x8B6 JUMPI PUSH4 0x4E487B71 PUSH1 0xE0 SHL DUP6 MSTORE PUSH1 0x22 PUSH1 0x4 MSTORE PUSH1 0x24 DUP6 REVERT JUMPDEST PUSH1 0x40 DUP9 ADD DUP4 SWAP1 MSTORE PUSH1 0x60 DUP9 ADD DUP2 DUP1 ISZERO PUSH2 0x8D5 JUMPI PUSH1 0x1 DUP2 EQ PUSH2 0x8E6 JUMPI PUSH2 0x911 JUMP JUMPDEST PUSH1 0xFF NOT DUP7 AND DUP3 MSTORE DUP8 DUP3 ADD SWAP7 POP PUSH2 0x911 JUMP JUMPDEST PUSH1 0x0 DUP12 DUP2 MSTORE PUSH1 0x20 SWAP1 KECCAK256 PUSH1 0x0 JUMPDEST DUP7 DUP2 LT ISZERO PUSH2 0x90B JUMPI DUP2 SLOAD DUP5 DUP3 ADD MSTORE SWAP1 DUP6 ADD SWAP1 DUP10 ADD PUSH2 0x8F2 JUMP JUMPDEST DUP4 ADD SWAP8 POP POP JUMPDEST POP SWAP5 SWAP11 SWAP10 POP POP POP POP POP POP POP POP POP POP JUMP JUMPDEST PUSH1 0x0 DUP2 PUSH2 0x930 JUMPI PUSH2 0x930 PUSH2 0x7B9 JUMP JUMPDEST POP PUSH1 0x0 NOT ADD SWAP1 JUMP INVALID LOG2 PUSH5 0x6970667358 0x22 SLT KECCAK256 EXP PUSH29 0xEB7AE6E17BE7B50CB061AD468D0F39BE3A20084DD2333649FD575D2347 NOT PUSH5 0x736F6C6343 STOP ADDMOD MULMOD STOP CALLER "},"methodIdentifiers":{"bet()":"11610c25","betMany(uint256)":"729e91e9","betPrice()":"cfd8a175","betsOpen()":"d1b258ff","closeLottery()":"6fd09816","getBettingWindow(uint256)":"486f5954","getRandomNumber()":"dbdff2c1","lotteryClosingTime()":"59aff8b7","nft()":"47ccca02","openBets(uint256)":"990a49f5","ownerPool()":"2b65e040","paymentToken()":"3013ce29","recipient()":"66d003ac","saleOwner()":"b3890faf","window()":"461645bf"}}}}}