{
  "_format": "hh-sol-artifact-1",
  "contractName": "ERC1155Mintable",
  "sourceName": "contracts/ERC1155Mintable.sol",
  "abi": [
    {
      "inputs": [],
      "stateMutability": "nonpayable",
      "type": "constructor"
    },
    {
      "anonymous": false,
      "inputs": [
        {
          "indexed": true,
          "internalType": "address",
          "name": "account",
          "type": "address"
        },
        {
          "indexed": true,
          "internalType": "address",
          "name": "operator",
          "type": "address"
        },
        {
          "indexed": false,
          "internalType": "bool",
          "name": "approved",
          "type": "bool"
        }
      ],
      "name": "ApprovalForAll",
      "type": "event"
    },
    {
      "anonymous": false,
      "inputs": [
        {
          "indexed": true,
          "internalType": "bytes32",
          "name": "role",
          "type": "bytes32"
        },
        {
          "indexed": true,
          "internalType": "bytes32",
          "name": "previousAdminRole",
          "type": "bytes32"
        },
        {
          "indexed": true,
          "internalType": "bytes32",
          "name": "newAdminRole",
          "type": "bytes32"
        }
      ],
      "name": "RoleAdminChanged",
      "type": "event"
    },
    {
      "anonymous": false,
      "inputs": [
        {
          "indexed": true,
          "internalType": "bytes32",
          "name": "role",
          "type": "bytes32"
        },
        {
          "indexed": true,
          "internalType": "address",
          "name": "account",
          "type": "address"
        },
        {
          "indexed": true,
          "internalType": "address",
          "name": "sender",
          "type": "address"
        }
      ],
      "name": "RoleGranted",
      "type": "event"
    },
    {
      "anonymous": false,
      "inputs": [
        {
          "indexed": true,
          "internalType": "bytes32",
          "name": "role",
          "type": "bytes32"
        },
        {
          "indexed": true,
          "internalType": "address",
          "name": "account",
          "type": "address"
        },
        {
          "indexed": true,
          "internalType": "address",
          "name": "sender",
          "type": "address"
        }
      ],
      "name": "RoleRevoked",
      "type": "event"
    },
    {
      "anonymous": false,
      "inputs": [
        {
          "indexed": true,
          "internalType": "address",
          "name": "operator",
          "type": "address"
        },
        {
          "indexed": true,
          "internalType": "address",
          "name": "from",
          "type": "address"
        },
        {
          "indexed": true,
          "internalType": "address",
          "name": "to",
          "type": "address"
        },
        {
          "indexed": false,
          "internalType": "uint256[]",
          "name": "ids",
          "type": "uint256[]"
        },
        {
          "indexed": false,
          "internalType": "uint256[]",
          "name": "values",
          "type": "uint256[]"
        }
      ],
      "name": "TransferBatch",
      "type": "event"
    },
    {
      "anonymous": false,
      "inputs": [
        {
          "indexed": true,
          "internalType": "address",
          "name": "operator",
          "type": "address"
        },
        {
          "indexed": true,
          "internalType": "address",
          "name": "from",
          "type": "address"
        },
        {
          "indexed": true,
          "internalType": "address",
          "name": "to",
          "type": "address"
        },
        {
          "indexed": false,
          "internalType": "uint256",
          "name": "id",
          "type": "uint256"
        },
        {
          "indexed": false,
          "internalType": "uint256",
          "name": "value",
          "type": "uint256"
        }
      ],
      "name": "TransferSingle",
      "type": "event"
    },
    {
      "anonymous": false,
      "inputs": [
        {
          "indexed": false,
          "internalType": "string",
          "name": "value",
          "type": "string"
        },
        {
          "indexed": true,
          "internalType": "uint256",
          "name": "id",
          "type": "uint256"
        }
      ],
      "name": "URI",
      "type": "event"
    },
    {
      "inputs": [],
      "name": "DEFAULT_ADMIN_ROLE",
      "outputs": [
        {
          "internalType": "bytes32",
          "name": "",
          "type": "bytes32"
        }
      ],
      "stateMutability": "view",
      "type": "function"
    },
    {
      "inputs": [],
      "name": "MINTER_ROLE",
      "outputs": [
        {
          "internalType": "bytes32",
          "name": "",
          "type": "bytes32"
        }
      ],
      "stateMutability": "view",
      "type": "function"
    },
    {
      "inputs": [
        {
          "internalType": "address",
          "name": "account",
          "type": "address"
        },
        {
          "internalType": "uint256",
          "name": "id",
          "type": "uint256"
        }
      ],
      "name": "balanceOf",
      "outputs": [
        {
          "internalType": "uint256",
          "name": "",
          "type": "uint256"
        }
      ],
      "stateMutability": "view",
      "type": "function"
    },
    {
      "inputs": [
        {
          "internalType": "address[]",
          "name": "accounts",
          "type": "address[]"
        },
        {
          "internalType": "uint256[]",
          "name": "ids",
          "type": "uint256[]"
        }
      ],
      "name": "balanceOfBatch",
      "outputs": [
        {
          "internalType": "uint256[]",
          "name": "",
          "type": "uint256[]"
        }
      ],
      "stateMutability": "view",
      "type": "function"
    },
    {
      "inputs": [
        {
          "internalType": "bytes32",
          "name": "role",
          "type": "bytes32"
        }
      ],
      "name": "getRoleAdmin",
      "outputs": [
        {
          "internalType": "bytes32",
          "name": "",
          "type": "bytes32"
        }
      ],
      "stateMutability": "view",
      "type": "function"
    },
    {
      "inputs": [
        {
          "internalType": "bytes32",
          "name": "role",
          "type": "bytes32"
        },
        {
          "internalType": "address",
          "name": "account",
          "type": "address"
        }
      ],
      "name": "grantRole",
      "outputs": [],
      "stateMutability": "nonpayable",
      "type": "function"
    },
    {
      "inputs": [
        {
          "internalType": "bytes32",
          "name": "role",
          "type": "bytes32"
        },
        {
          "internalType": "address",
          "name": "account",
          "type": "address"
        }
      ],
      "name": "hasRole",
      "outputs": [
        {
          "internalType": "bool",
          "name": "",
          "type": "bool"
        }
      ],
      "stateMutability": "view",
      "type": "function"
    },
    {
      "inputs": [
        {
          "internalType": "address",
          "name": "account",
          "type": "address"
        },
        {
          "internalType": "address",
          "name": "operator",
          "type": "address"
        }
      ],
      "name": "isApprovedForAll",
      "outputs": [
        {
          "internalType": "bool",
          "name": "",
          "type": "bool"
        }
      ],
      "stateMutability": "view",
      "type": "function"
    },
    {
      "inputs": [
        {
          "internalType": "address",
          "name": "recipient",
          "type": "address"
        },
        {
          "internalType": "string",
          "name": "_tokenURI",
          "type": "string"
        }
      ],
      "name": "mint",
      "outputs": [
        {
          "internalType": "uint256",
          "name": "",
          "type": "uint256"
        }
      ],
      "stateMutability": "nonpayable",
      "type": "function"
    },
    {
      "inputs": [
        {
          "internalType": "bytes32",
          "name": "role",
          "type": "bytes32"
        },
        {
          "internalType": "address",
          "name": "account",
          "type": "address"
        }
      ],
      "name": "renounceRole",
      "outputs": [],
      "stateMutability": "nonpayable",
      "type": "function"
    },
    {
      "inputs": [
        {
          "internalType": "bytes32",
          "name": "role",
          "type": "bytes32"
        },
        {
          "internalType": "address",
          "name": "account",
          "type": "address"
        }
      ],
      "name": "revokeRole",
      "outputs": [],
      "stateMutability": "nonpayable",
      "type": "function"
    },
    {
      "inputs": [
        {
          "internalType": "address",
          "name": "from",
          "type": "address"
        },
        {
          "internalType": "address",
          "name": "to",
          "type": "address"
        },
        {
          "internalType": "uint256[]",
          "name": "ids",
          "type": "uint256[]"
        },
        {
          "internalType": "uint256[]",
          "name": "amounts",
          "type": "uint256[]"
        },
        {
          "internalType": "bytes",
          "name": "data",
          "type": "bytes"
        }
      ],
      "name": "safeBatchTransferFrom",
      "outputs": [],
      "stateMutability": "nonpayable",
      "type": "function"
    },
    {
      "inputs": [
        {
          "internalType": "address",
          "name": "from",
          "type": "address"
        },
        {
          "internalType": "address",
          "name": "to",
          "type": "address"
        },
        {
          "internalType": "uint256",
          "name": "id",
          "type": "uint256"
        },
        {
          "internalType": "uint256",
          "name": "amount",
          "type": "uint256"
        },
        {
          "internalType": "bytes",
          "name": "data",
          "type": "bytes"
        }
      ],
      "name": "safeTransferFrom",
      "outputs": [],
      "stateMutability": "nonpayable",
      "type": "function"
    },
    {
      "inputs": [
        {
          "internalType": "address",
          "name": "operator",
          "type": "address"
        },
        {
          "internalType": "bool",
          "name": "approved",
          "type": "bool"
        }
      ],
      "name": "setApprovalForAll",
      "outputs": [],
      "stateMutability": "nonpayable",
      "type": "function"
    },
    {
      "inputs": [
        {
          "internalType": "bytes4",
          "name": "interfaceId",
          "type": "bytes4"
        }
      ],
      "name": "supportsInterface",
      "outputs": [
        {
          "internalType": "bool",
          "name": "",
          "type": "bool"
        }
      ],
      "stateMutability": "view",
      "type": "function"
    },
    {
      "inputs": [
        {
          "internalType": "uint256",
          "name": "",
          "type": "uint256"
        }
      ],
      "name": "uri",
      "outputs": [
        {
          "internalType": "string",
          "name": "",
          "type": "string"
        }
      ],
      "stateMutability": "view",
      "type": "function"
    }
  ],
  "bytecode": "0x60806040523480156200001157600080fd5b5060408051808201909152600e81526d506978656c73466f72506561636560901b6020820152620000428162000082565b50620000506000336200009b565b6200007c7f9f2df0fed2c77648de5860a4cc508cd0818c85b8b8a1ab4ceeef8d981c8956a6336200009b565b62000222565b8051620000979060029060208401906200013f565b5050565b60008281526003602090815260408083206001600160a01b038516845290915290205460ff16620000975760008281526003602090815260408083206001600160a01b03851684529091529020805460ff19166001179055620000fb3390565b6001600160a01b0316816001600160a01b0316837f2f8788117e7eff1d82e926ec794901d17c78024a50270940304540a733656f0d60405160405180910390a45050565b8280546200014d90620001e5565b90600052602060002090601f016020900481019282620001715760008555620001bc565b82601f106200018c57805160ff1916838001178555620001bc565b82800160010185558215620001bc579182015b82811115620001bc5782518255916020019190600101906200019f565b50620001ca929150620001ce565b5090565b5b80821115620001ca5760008155600101620001cf565b600181811c90821680620001fa57607f821691505b602082108114156200021c57634e487b7160e01b600052602260045260246000fd5b50919050565b611f4480620002326000396000f3fe608060405234801561001057600080fd5b50600436106100ff5760003560e01c806391d1485411610097578063d539139311610066578063d539139314610252578063d547741f14610279578063e985e9c51461028c578063f242432a146102c857600080fd5b806391d14854146101eb578063a217fddf14610224578063a22cb4651461022c578063d0def5211461023f57600080fd5b80632eb2c2d6116100d35780632eb2c2d6146101905780632f2ff15d146101a557806336568abe146101b85780634e1273f4146101cb57600080fd5b8062fdd58e1461010457806301ffc9a71461012a5780630e89341c1461014d578063248a9ca31461016d575b600080fd5b6101176101123660046116de565b6102db565b6040519081526020015b60405180910390f35b61013d61013836600461171e565b610384565b6040519015158152602001610121565b61016061015b36600461173b565b610395565b60405161012191906117b0565b61011761017b36600461173b565b60009081526003602052604090206001015490565b6101a361019e366004611919565b610429565b005b6101a36101b33660046119c3565b6104cb565b6101a36101c63660046119c3565b6104f5565b6101de6101d93660046119ef565b610581565b6040516101219190611af5565b61013d6101f93660046119c3565b60009182526003602090815260408084206001600160a01b0393909316845291905290205460ff1690565b610117600081565b6101a361023a366004611b08565b6106bf565b61011761024d366004611b44565b6106ca565b6101177f9f2df0fed2c77648de5860a4cc508cd0818c85b8b8a1ab4ceeef8d981c8956a681565b6101a36102873660046119c3565b610790565b61013d61029a366004611b9c565b6001600160a01b03918216600090815260016020908152604080832093909416825291909152205460ff1690565b6101a36102d6366004611bc6565b6107b5565b60006001600160a01b03831661035e5760405162461bcd60e51b815260206004820152602a60248201527f455243313135353a2061646472657373207a65726f206973206e6f742061207660448201527f616c6964206f776e65720000000000000000000000000000000000000000000060648201526084015b60405180910390fd5b506000908152602081815260408083206001600160a01b03949094168352929052205490565b600061038f82610850565b92915050565b6060600280546103a490611c2b565b80601f01602080910402602001604051908101604052809291908181526020018280546103d090611c2b565b801561041d5780601f106103f25761010080835404028352916020019161041d565b820191906000526020600020905b81548152906001019060200180831161040057829003601f168201915b50505050509050919050565b6001600160a01b0385163314806104455750610445853361029a565b6104b75760405162461bcd60e51b815260206004820152602f60248201527f455243313135353a2063616c6c6572206973206e6f7420746f6b656e206f776e60448201527f6572206e6f7220617070726f76656400000000000000000000000000000000006064820152608401610355565b6104c4858585858561088e565b5050505050565b6000828152600360205260409020600101546104e681610b01565b6104f08383610b0e565b505050565b6001600160a01b03811633146105735760405162461bcd60e51b815260206004820152602f60248201527f416363657373436f6e74726f6c3a2063616e206f6e6c792072656e6f756e636560448201527f20726f6c657320666f722073656c6600000000000000000000000000000000006064820152608401610355565b61057d8282610bb0565b5050565b606081518351146105fa5760405162461bcd60e51b815260206004820152602960248201527f455243313135353a206163636f756e747320616e6420696473206c656e67746860448201527f206d69736d6174636800000000000000000000000000000000000000000000006064820152608401610355565b6000835167ffffffffffffffff811115610616576106166117c3565b60405190808252806020026020018201604052801561063f578160200160208202803683370190505b50905060005b84518110156106b75761068a85828151811061066357610663611c66565b602002602001015185838151811061067d5761067d611c66565b60200260200101516102db565b82828151811061069c5761069c611c66565b60209081029190910101526106b081611c92565b9050610645565b509392505050565b61057d338383610c33565b3360009081527f5562e70da342db81569f3094d36be279beaca7ad8e08f434ea188e79d2bfe10c602052604081205460ff166107485760405162461bcd60e51b815260206004820152601660248201527f43616c6c6572206973206e6f742061206d696e746572000000000000000000006044820152606401610355565b610756600480546001019055565b600061076160045490565b905061077f8482600160405180602001604052806000815250610d28565b6107898184610e58565b9392505050565b6000828152600360205260409020600101546107ab81610b01565b6104f08383610bb0565b6001600160a01b0385163314806107d157506107d1853361029a565b6108435760405162461bcd60e51b815260206004820152602f60248201527f455243313135353a2063616c6c6572206973206e6f7420746f6b656e206f776e60448201527f6572206e6f7220617070726f76656400000000000000000000000000000000006064820152608401610355565b6104c48585858585610e77565b60006001600160e01b031982167f7965db0b00000000000000000000000000000000000000000000000000000000148061038f575061038f82611022565b81518351146109055760405162461bcd60e51b815260206004820152602860248201527f455243313135353a2069647320616e6420616d6f756e7473206c656e6774682060448201527f6d69736d617463680000000000000000000000000000000000000000000000006064820152608401610355565b6001600160a01b0384166109695760405162461bcd60e51b815260206004820152602560248201527f455243313135353a207472616e7366657220746f20746865207a65726f206164604482015264647265737360d81b6064820152608401610355565b3360005b8451811015610a9357600085828151811061098a5761098a611c66565b6020026020010151905060008583815181106109a8576109a8611c66565b602090810291909101810151600084815280835260408082206001600160a01b038e168352909352919091205490915081811015610a3b5760405162461bcd60e51b815260206004820152602a60248201527f455243313135353a20696e73756666696369656e742062616c616e636520666f60448201526939103a3930b739b332b960b11b6064820152608401610355565b6000838152602081815260408083206001600160a01b038e8116855292528083208585039055908b16825281208054849290610a78908490611cad565b9250508190555050505080610a8c90611c92565b905061096d565b50846001600160a01b0316866001600160a01b0316826001600160a01b03167f4a39dc06d4c0dbc64b70af90fd698a233a518aa5d07e595d983b8c0526c8f7fb8787604051610ae3929190611cc5565b60405180910390a4610af98187878787876110bd565b505050505050565b610b0b8133611272565b50565b60008281526003602090815260408083206001600160a01b038516845290915290205460ff1661057d5760008281526003602090815260408083206001600160a01b03851684529091529020805460ff19166001179055610b6c3390565b6001600160a01b0316816001600160a01b0316837f2f8788117e7eff1d82e926ec794901d17c78024a50270940304540a733656f0d60405160405180910390a45050565b60008281526003602090815260408083206001600160a01b038516845290915290205460ff161561057d5760008281526003602090815260408083206001600160a01b0385168085529252808320805460ff1916905551339285917ff6391f5c32d9c69d2a47ea670b442974b53935d1edc7fd64eb21e047a839171b9190a45050565b816001600160a01b0316836001600160a01b03161415610cbb5760405162461bcd60e51b815260206004820152602960248201527f455243313135353a2073657474696e6720617070726f76616c2073746174757360448201527f20666f722073656c6600000000000000000000000000000000000000000000006064820152608401610355565b6001600160a01b03838116600081815260016020908152604080832094871680845294825291829020805460ff191686151590811790915591519182527f17307eab39ab6107e8899845ad3d59bd9653f200f220920489ca2b5937696c31910160405180910390a3505050565b6001600160a01b038416610da45760405162461bcd60e51b815260206004820152602160248201527f455243313135353a206d696e7420746f20746865207a65726f2061646472657360448201527f73000000000000000000000000000000000000000000000000000000000000006064820152608401610355565b336000610db0856112f2565b90506000610dbd856112f2565b90506000868152602081815260408083206001600160a01b038b16845290915281208054879290610def908490611cad565b909155505060408051878152602081018790526001600160a01b03808a1692600092918716917fc3d58168c5ae7397731d063d5bbf3d657854427343f4c083240f7aacaa2d0f62910160405180910390a4610e4f8360008989898961133d565b50505050505050565b600082815260056020908152604090912082516104f092840190611629565b6001600160a01b038416610edb5760405162461bcd60e51b815260206004820152602560248201527f455243313135353a207472616e7366657220746f20746865207a65726f206164604482015264647265737360d81b6064820152608401610355565b336000610ee7856112f2565b90506000610ef4856112f2565b90506000868152602081815260408083206001600160a01b038c16845290915290205485811015610f7a5760405162461bcd60e51b815260206004820152602a60248201527f455243313135353a20696e73756666696369656e742062616c616e636520666f60448201526939103a3930b739b332b960b11b6064820152608401610355565b6000878152602081815260408083206001600160a01b038d8116855292528083208985039055908a16825281208054889290610fb7908490611cad565b909155505060408051888152602081018890526001600160a01b03808b16928c821692918816917fc3d58168c5ae7397731d063d5bbf3d657854427343f4c083240f7aacaa2d0f62910160405180910390a4611017848a8a8a8a8a61133d565b505050505050505050565b60006001600160e01b031982167fd9b67a2600000000000000000000000000000000000000000000000000000000148061108557506001600160e01b031982167f0e89341c00000000000000000000000000000000000000000000000000000000145b8061038f57507f01ffc9a7000000000000000000000000000000000000000000000000000000006001600160e01b031983161461038f565b6001600160a01b0384163b15610af95760405163bc197c8160e01b81526001600160a01b0385169063bc197c81906111019089908990889088908890600401611cf3565b602060405180830381600087803b15801561111b57600080fd5b505af192505050801561114b575060408051601f3d908101601f1916820190925261114891810190611d51565b60015b61120157611157611d6e565b806308c379a01415611191575061116c611d8a565b806111775750611193565b8060405162461bcd60e51b815260040161035591906117b0565b505b60405162461bcd60e51b815260206004820152603460248201527f455243313135353a207472616e7366657220746f206e6f6e204552433131353560448201527f526563656976657220696d706c656d656e7465720000000000000000000000006064820152608401610355565b6001600160e01b0319811663bc197c8160e01b14610e4f5760405162461bcd60e51b815260206004820152602860248201527f455243313135353a204552433131353552656365697665722072656a656374656044820152676420746f6b656e7360c01b6064820152608401610355565b60008281526003602090815260408083206001600160a01b038516845290915290205460ff1661057d576112b0816001600160a01b03166014611448565b6112bb836020611448565b6040516020016112cc929190611e14565b60408051601f198184030181529082905262461bcd60e51b8252610355916004016117b0565b6040805160018082528183019092526060916000919060208083019080368337019050509050828160008151811061132c5761132c611c66565b602090810291909101015292915050565b6001600160a01b0384163b15610af95760405163f23a6e6160e01b81526001600160a01b0385169063f23a6e61906113819089908990889088908890600401611e95565b602060405180830381600087803b15801561139b57600080fd5b505af19250505080156113cb575060408051601f3d908101601f191682019092526113c891810190611d51565b60015b6113d757611157611d6e565b6001600160e01b0319811663f23a6e6160e01b14610e4f5760405162461bcd60e51b815260206004820152602860248201527f455243313135353a204552433131353552656365697665722072656a656374656044820152676420746f6b656e7360c01b6064820152608401610355565b60606000611457836002611ed8565b611462906002611cad565b67ffffffffffffffff81111561147a5761147a6117c3565b6040519080825280601f01601f1916602001820160405280156114a4576020820181803683370190505b5090507f3000000000000000000000000000000000000000000000000000000000000000816000815181106114db576114db611c66565b60200101906001600160f81b031916908160001a9053507f78000000000000000000000000000000000000000000000000000000000000008160018151811061152657611526611c66565b60200101906001600160f81b031916908160001a905350600061154a846002611ed8565b611555906001611cad565b90505b60018111156115da577f303132333435363738396162636465660000000000000000000000000000000085600f166010811061159657611596611c66565b1a60f81b8282815181106115ac576115ac611c66565b60200101906001600160f81b031916908160001a90535060049490941c936115d381611ef7565b9050611558565b5083156107895760405162461bcd60e51b815260206004820181905260248201527f537472696e67733a20686578206c656e67746820696e73756666696369656e746044820152606401610355565b82805461163590611c2b565b90600052602060002090601f016020900481019282611657576000855561169d565b82601f1061167057805160ff191683800117855561169d565b8280016001018555821561169d579182015b8281111561169d578251825591602001919060010190611682565b506116a99291506116ad565b5090565b5b808211156116a957600081556001016116ae565b80356001600160a01b03811681146116d957600080fd5b919050565b600080604083850312156116f157600080fd5b6116fa836116c2565b946020939093013593505050565b6001600160e01b031981168114610b0b57600080fd5b60006020828403121561173057600080fd5b813561078981611708565b60006020828403121561174d57600080fd5b5035919050565b60005b8381101561176f578181015183820152602001611757565b8381111561177e576000848401525b50505050565b6000815180845261179c816020860160208601611754565b601f01601f19169290920160200192915050565b6020815260006107896020830184611784565b634e487b7160e01b600052604160045260246000fd5b601f8201601f1916810167ffffffffffffffff811182821017156117ff576117ff6117c3565b6040525050565b600067ffffffffffffffff821115611820576118206117c3565b5060051b60200190565b600082601f83011261183b57600080fd5b8135602061184882611806565b60405161185582826117d9565b83815260059390931b850182019282810191508684111561187557600080fd5b8286015b848110156118905780358352918301918301611879565b509695505050505050565b600067ffffffffffffffff8311156118b5576118b56117c3565b6040516118cc601f8501601f1916602001826117d9565b8091508381528484840111156118e157600080fd5b83836020830137600060208583010152509392505050565b600082601f83011261190a57600080fd5b6107898383356020850161189b565b600080600080600060a0868803121561193157600080fd5b61193a866116c2565b9450611948602087016116c2565b9350604086013567ffffffffffffffff8082111561196557600080fd5b61197189838a0161182a565b9450606088013591508082111561198757600080fd5b61199389838a0161182a565b935060808801359150808211156119a957600080fd5b506119b6888289016118f9565b9150509295509295909350565b600080604083850312156119d657600080fd5b823591506119e6602084016116c2565b90509250929050565b60008060408385031215611a0257600080fd5b823567ffffffffffffffff80821115611a1a57600080fd5b818501915085601f830112611a2e57600080fd5b81356020611a3b82611806565b604051611a4882826117d9565b83815260059390931b8501820192828101915089841115611a6857600080fd5b948201945b83861015611a8d57611a7e866116c2565b82529482019490820190611a6d565b96505086013592505080821115611aa357600080fd5b50611ab08582860161182a565b9150509250929050565b600081518084526020808501945080840160005b83811015611aea57815187529582019590820190600101611ace565b509495945050505050565b6020815260006107896020830184611aba565b60008060408385031215611b1b57600080fd5b611b24836116c2565b915060208301358015158114611b3957600080fd5b809150509250929050565b60008060408385031215611b5757600080fd5b611b60836116c2565b9150602083013567ffffffffffffffff811115611b7c57600080fd5b8301601f81018513611b8d57600080fd5b611ab08582356020840161189b565b60008060408385031215611baf57600080fd5b611bb8836116c2565b91506119e6602084016116c2565b600080600080600060a08688031215611bde57600080fd5b611be7866116c2565b9450611bf5602087016116c2565b93506040860135925060608601359150608086013567ffffffffffffffff811115611c1f57600080fd5b6119b6888289016118f9565b600181811c90821680611c3f57607f821691505b60208210811415611c6057634e487b7160e01b600052602260045260246000fd5b50919050565b634e487b7160e01b600052603260045260246000fd5b634e487b7160e01b600052601160045260246000fd5b6000600019821415611ca657611ca6611c7c565b5060010190565b60008219821115611cc057611cc0611c7c565b500190565b604081526000611cd86040830185611aba565b8281036020840152611cea8185611aba565b95945050505050565b60006001600160a01b03808816835280871660208401525060a06040830152611d1f60a0830186611aba565b8281036060840152611d318186611aba565b90508281036080840152611d458185611784565b98975050505050505050565b600060208284031215611d6357600080fd5b815161078981611708565b600060033d1115611d875760046000803e5060005160e01c5b90565b600060443d1015611d985790565b6040516003193d81016004833e81513d67ffffffffffffffff8160248401118184111715611dc857505050505090565b8285019150815181811115611de05750505050505090565b843d8701016020828501011115611dfa5750505050505090565b611e09602082860101876117d9565b509095945050505050565b7f416363657373436f6e74726f6c3a206163636f756e7420000000000000000000815260008351611e4c816017850160208801611754565b7f206973206d697373696e6720726f6c65200000000000000000000000000000006017918401918201528351611e89816028840160208801611754565b01602801949350505050565b60006001600160a01b03808816835280871660208401525084604083015283606083015260a06080830152611ecd60a0830184611784565b979650505050505050565b6000816000190483118215151615611ef257611ef2611c7c565b500290565b600081611f0657611f06611c7c565b50600019019056fea26469706673582212205a66fb87b8e54a67bc09e40c1684b6e7aaec169502cc2bd4df32e63932a5b32864736f6c63430008090033",
  "linkReferences": {},
  "deployedLinkReferences": {}
}