{
  "_format": "hh-sol-artifact-1",
  "contractName": "Auction",
  "sourceName": "contracts/Auction.sol",
  "abi": [
    {
      "inputs": [
        {
          "internalType": "uint256",
          "name": "_startingBid",
          "type": "uint256"
        },
        {
          "internalType": "address",
          "name": "_paymentToken",
          "type": "address"
        },
        {
          "internalType": "address",
          "name": "_nft",
          "type": "address"
        },
        {
          "internalType": "string",
          "name": "_uri",
          "type": "string"
        },
        {
          "internalType": "address",
          "name": "_recipient",
          "type": "address"
        },
        {
          "internalType": "address",
          "name": "_saleOwner",
          "type": "address"
        },
        {
          "internalType": "uint256",
          "name": "_closingTime",
          "type": "uint256"
        }
      ],
      "stateMutability": "nonpayable",
      "type": "constructor"
    },
    {
      "anonymous": false,
      "inputs": [
        {
          "indexed": true,
          "internalType": "address",
          "name": "sender",
          "type": "address"
        },
        {
          "indexed": false,
          "internalType": "uint256",
          "name": "amount",
          "type": "uint256"
        }
      ],
      "name": "Bid",
      "type": "event"
    },
    {
      "anonymous": false,
      "inputs": [
        {
          "indexed": false,
          "internalType": "address",
          "name": "winner",
          "type": "address"
        }
      ],
      "name": "End",
      "type": "event"
    },
    {
      "anonymous": false,
      "inputs": [
        {
          "indexed": false,
          "internalType": "string",
          "name": "message",
          "type": "string"
        }
      ],
      "name": "EndWithNoBids",
      "type": "event"
    },
    {
      "anonymous": false,
      "inputs": [
        {
          "indexed": false,
          "internalType": "uint256",
          "name": "auctionClosingTime",
          "type": "uint256"
        }
      ],
      "name": "Start",
      "type": "event"
    },
    {
      "anonymous": false,
      "inputs": [
        {
          "indexed": true,
          "internalType": "address",
          "name": "bidder",
          "type": "address"
        },
        {
          "indexed": false,
          "internalType": "uint256",
          "name": "amount",
          "type": "uint256"
        }
      ],
      "name": "Withdraw",
      "type": "event"
    },
    {
      "inputs": [],
      "name": "auctionClosingTime",
      "outputs": [
        {
          "internalType": "uint256",
          "name": "",
          "type": "uint256"
        }
      ],
      "stateMutability": "view",
      "type": "function"
    },
    {
      "inputs": [],
      "name": "auctionOpen",
      "outputs": [
        {
          "internalType": "bool",
          "name": "",
          "type": "bool"
        }
      ],
      "stateMutability": "view",
      "type": "function"
    },
    {
      "inputs": [],
      "name": "beneficiary",
      "outputs": [
        {
          "internalType": "address",
          "name": "",
          "type": "address"
        }
      ],
      "stateMutability": "view",
      "type": "function"
    },
    {
      "inputs": [
        {
          "internalType": "uint256",
          "name": "amount",
          "type": "uint256"
        }
      ],
      "name": "bid",
      "outputs": [],
      "stateMutability": "nonpayable",
      "type": "function"
    },
    {
      "inputs": [
        {
          "internalType": "address",
          "name": "",
          "type": "address"
        }
      ],
      "name": "bids",
      "outputs": [
        {
          "internalType": "uint256",
          "name": "",
          "type": "uint256"
        }
      ],
      "stateMutability": "view",
      "type": "function"
    },
    {
      "inputs": [],
      "name": "end",
      "outputs": [],
      "stateMutability": "nonpayable",
      "type": "function"
    },
    {
      "inputs": [],
      "name": "highestBid",
      "outputs": [
        {
          "internalType": "uint256",
          "name": "",
          "type": "uint256"
        }
      ],
      "stateMutability": "view",
      "type": "function"
    },
    {
      "inputs": [],
      "name": "highestBidder",
      "outputs": [
        {
          "internalType": "address",
          "name": "",
          "type": "address"
        }
      ],
      "stateMutability": "view",
      "type": "function"
    },
    {
      "inputs": [],
      "name": "nft",
      "outputs": [
        {
          "internalType": "contract IERC721",
          "name": "",
          "type": "address"
        }
      ],
      "stateMutability": "view",
      "type": "function"
    },
    {
      "inputs": [],
      "name": "paymentToken",
      "outputs": [
        {
          "internalType": "contract IERC20",
          "name": "",
          "type": "address"
        }
      ],
      "stateMutability": "view",
      "type": "function"
    },
    {
      "inputs": [],
      "name": "saleOwner",
      "outputs": [
        {
          "internalType": "address",
          "name": "",
          "type": "address"
        }
      ],
      "stateMutability": "view",
      "type": "function"
    },
    {
      "inputs": [],
      "name": "saleWinner",
      "outputs": [
        {
          "internalType": "address",
          "name": "",
          "type": "address"
        }
      ],
      "stateMutability": "view",
      "type": "function"
    },
    {
      "inputs": [
        {
          "internalType": "uint256",
          "name": "closingTime",
          "type": "uint256"
        }
      ],
      "name": "start",
      "outputs": [],
      "stateMutability": "nonpayable",
      "type": "function"
    },
    {
      "inputs": [],
      "name": "withdraw",
      "outputs": [],
      "stateMutability": "nonpayable",
      "type": "function"
    }
  ],
  "bytecode": "0x60806040523480156200001157600080fd5b5060405162000fe938038062000fe983398101604081905262000034916200028c565b600180546001600160a01b0319166001600160a01b038716179055835162000064906000906020870190620001b3565b50600280546001600160a01b038089166001600160a01b0319928316179092556009899055600380548684169083161790556008899055600480549285169290911691909117905560065460ff600160a01b9091041615620000f75760405162461bcd60e51b81526020600482015260076024820152661cdd185c9d195960ca1b60448201526064015b60405180910390fd5b428111620001535760405162461bcd60e51b815260206004820152602260248201527f436c6f73696e672074696d65206d75737420626520696e207468652066757475604482015261726560f01b6064820152608401620000ee565b6006805460ff60a01b1916600160a01b17905560078190556040517ff06a29c94c6f4edc1085072972d9441f7603e81c8535a308f214285d0653c850906200019e9083815260200190565b60405180910390a15050505050505062000406565b828054620001c190620003c9565b90600052602060002090601f016020900481019282620001e5576000855562000230565b82601f106200020057805160ff191683800117855562000230565b8280016001018555821562000230579182015b828111156200023057825182559160200191906001019062000213565b506200023e92915062000242565b5090565b5b808211156200023e576000815560010162000243565b80516001600160a01b03811681146200027157600080fd5b919050565b634e487b7160e01b600052604160045260246000fd5b600080600080600080600060e0888a031215620002a857600080fd5b875196506020620002bb818a0162000259565b9650620002cb60408a0162000259565b60608a01519096506001600160401b0380821115620002e957600080fd5b818b0191508b601f830112620002fe57600080fd5b81518181111562000313576200031362000276565b604051601f8201601f19908116603f011681019083821181831017156200033e576200033e62000276565b816040528281528e868487010111156200035757600080fd5b600093505b828410156200037b57848401860151818501870152928501926200035c565b828411156200038d5760008684830101525b809950505050505050620003a46080890162000259565b9250620003b460a0890162000259565b915060c0880151905092959891949750929550565b600181811c90821680620003de57607f821691505b602082108114156200040057634e487b7160e01b600052602260045260246000fd5b50919050565b610bd380620004166000396000f3fe608060405234801561001057600080fd5b50600436106100ea5760003560e01c8063786ee8ab1161008c578063b3890faf11610066578063b3890faf146101e3578063bbc54591146101f6578063d57bde7914610209578063efbe1c1c1461021257600080fd5b8063786ee8ab1461019957806391f90157146101bd57806395805dad146101d057600080fd5b8063454a2ab3116100c8578063454a2ab31461013c57806347ccca021461014f57806362ea82db146101625780636d2da76f1461019057600080fd5b80633013ce29146100ef57806338af3eed1461011f5780633ccfd60b14610132575b600080fd5b600254610102906001600160a01b031681565b6040516001600160a01b0390911681526020015b60405180910390f35b600354610102906001600160a01b031681565b61013a61021a565b005b61013a61014a366004610a52565b610350565b600154610102906001600160a01b031681565b610182610170366004610a6b565b600a6020526000908152604090205481565b604051908152602001610116565b61018260075481565b6006546101ad90600160a01b900460ff1681565b6040519015158152602001610116565b600554610102906001600160a01b031681565b61013a6101de366004610a52565b61059e565b600454610102906001600160a01b031681565b600654610102906001600160a01b031681565b61018260095481565b61013a61071c565b6005546001600160a01b031633141561027a5760405162461bcd60e51b815260206004820152601b60248201527f796f75206172652074686520686967686573742062696464657221000000000060448201526064015b60405180910390fd5b336000818152600a60205260408082208054929055600254905163a9059cbb60e01b815260048101939093526024830182905290916001600160a01b039091169063a9059cbb90604401602060405180830381600087803b1580156102de57600080fd5b505af11580156102f2573d6000803e3d6000fd5b505050506040513d601f19601f820116820180604052508101906103169190610a9b565b5060405181815233907f884edad9ce6fa2440d8a54cc123490eb96d2768479d49ff9c7366125a9424364906020015b60405180910390a250565b600654600160a01b900460ff166103975760405162461bcd60e51b815260206004820152600b60248201526a1b9bdd081cdd185c9d195960aa1b6044820152606401610271565b60075442106103e85760405162461bcd60e51b815260206004820152601260248201527f61756374696f6e2068617320656e6465642100000000000000000000000000006044820152606401610271565b600954811161045f5760405162461bcd60e51b815260206004820152602a60248201527f62696420616d6f756e74206d75737420626520686967686572207468616e206860448201527f69676865737420626964000000000000000000000000000000000000000000006064820152608401610271565b6002546040517f23b872dd000000000000000000000000000000000000000000000000000000008152336004820152306024820152604481018390526001600160a01b03909116906323b872dd90606401602060405180830381600087803b1580156104ca57600080fd5b505af11580156104de573d6000803e3d6000fd5b505050506040513d601f19601f820116820180604052508101906105029190610a9b565b506005546001600160a01b031615610547576009546005546001600160a01b03166000908152600a602052604081208054909190610541908490610abd565b90915550505b6005805473ffffffffffffffffffffffffffffffffffffffff19163390811790915560098290556040518281527fe684a55f31b79eca403df938249029212a5925ec6be8012e099b45bc1019e5d290602001610345565b600654600160a01b900460ff16156105f85760405162461bcd60e51b815260206004820152600760248201527f73746172746564000000000000000000000000000000000000000000000000006044820152606401610271565b42811161066d5760405162461bcd60e51b815260206004820152602260248201527f436c6f73696e672074696d65206d75737420626520696e20746865206675747560448201527f72650000000000000000000000000000000000000000000000000000000000006064820152608401610271565b6004546001600160a01b031633146106c75760405162461bcd60e51b815260206004820152600d60248201527f6e6f742073616c654f776e6572000000000000000000000000000000000000006044820152606401610271565b6006805460ff60a01b1916600160a01b17905560078190556040517ff06a29c94c6f4edc1085072972d9441f7603e81c8535a308f214285d0653c850906107119083815260200190565b60405180910390a150565b600654600160a01b900460ff166107635760405162461bcd60e51b815260206004820152600b60248201526a1b9bdd081cdd185c9d195960aa1b6044820152606401610271565b6007544210156107b55760405162461bcd60e51b815260206004820152600960248201527f6e6f7420656e64656400000000000000000000000000000000000000000000006044820152606401610271565b6006805460ff60a01b191690556005546001600160a01b0316158015906107df5750600854600954115b156109f3576001546005546040517fd204c45e0000000000000000000000000000000000000000000000000000000081526001600160a01b039283169263d204c45e9261083492911690600090600401610ae3565b600060405180830381600087803b15801561084e57600080fd5b505af1158015610862573d6000803e3d6000fd5b50506001546040517f36568abe0000000000000000000000000000000000000000000000000000000081527f9f2df0fed2c77648de5860a4cc508cd0818c85b8b8a1ab4ceeef8d981c8956a660048201523060248201526001600160a01b0390911692506336568abe9150604401600060405180830381600087803b1580156108ea57600080fd5b505af11580156108fe573d6000803e3d6000fd5b505060025460035460095460405163a9059cbb60e01b81526001600160a01b03928316600482015260248101919091529116925063a9059cbb9150604401602060405180830381600087803b15801561095657600080fd5b505af115801561096a573d6000803e3d6000fd5b505050506040513d601f19601f8201168201806040525081019061098e9190610a9b565b506005546006805473ffffffffffffffffffffffffffffffffffffffff19166001600160a01b0390921691821790556040519081527fae1fbc361f1e1931e3a4c89d061fc635889296619c3c92a670ac62983f72c335906020015b60405180910390a1565b7fe66cd229a88c7de73f985a5f074db6c68dd65231260a8d8e81f864d5272f30e56040516109e9906020808252601d908201527f6e6f20626964732c2072657374617274207468652061756374696f6e21000000604082015260600190565b600060208284031215610a6457600080fd5b5035919050565b600060208284031215610a7d57600080fd5b81356001600160a01b0381168114610a9457600080fd5b9392505050565b600060208284031215610aad57600080fd5b81518015158114610a9457600080fd5b60008219821115610ade57634e487b7160e01b600052601160045260246000fd5b500190565b6001600160a01b0383168152600060206040818401526000845481600182811c915080831680610b1457607f831692505b858310811415610b3257634e487b7160e01b85526022600452602485fd5b6040880183905260608801818015610b515760018114610b6257610b8d565b60ff19861682528782019650610b8d565b60008b81526020902060005b86811015610b8757815484820152908501908901610b6e565b83019750505b50949a995050505050505050505056fea26469706673582212204a65f92846554fae18f6ac93f6fe6a483a4966528641698ea13aabadbd86909e64736f6c63430008090033",
  "linkReferences": {},
  "deployedLinkReferences": {}
}