{
    "_format": "hh-sol-artifact-1",
    "contractName": "LotteryToken",
    "sourceName": "contracts/Token.sol",
    "abi": [
        {
            "inputs": [
                {
                    "internalType": "string",
                    "name": "name",
                    "type": "string"
                },
                {
                    "internalType": "string",
                    "name": "symbol",
                    "type": "string"
                }
            ],
            "stateMutability": "nonpayable",
            "type": "constructor"
        },
        {
            "anonymous": false,
            "inputs": [
                {
                    "indexed": true,
                    "internalType": "address",
                    "name": "owner",
                    "type": "address"
                },
                {
                    "indexed": true,
                    "internalType": "address",
                    "name": "spender",
                    "type": "address"
                },
                {
                    "indexed": false,
                    "internalType": "uint256",
                    "name": "value",
                    "type": "uint256"
                }
            ],
            "name": "Approval",
            "type": "event"
        },
        {
            "anonymous": false,
            "inputs": [
                {
                    "indexed": true,
                    "internalType": "bytes32",
                    "name": "role",
                    "type": "bytes32"
                },
                {
                    "indexed": true,
                    "internalType": "bytes32",
                    "name": "previousAdminRole",
                    "type": "bytes32"
                },
                {
                    "indexed": true,
                    "internalType": "bytes32",
                    "name": "newAdminRole",
                    "type": "bytes32"
                }
            ],
            "name": "RoleAdminChanged",
            "type": "event"
        },
        {
            "anonymous": false,
            "inputs": [
                {
                    "indexed": true,
                    "internalType": "bytes32",
                    "name": "role",
                    "type": "bytes32"
                },
                {
                    "indexed": true,
                    "internalType": "address",
                    "name": "account",
                    "type": "address"
                },
                {
                    "indexed": true,
                    "internalType": "address",
                    "name": "sender",
                    "type": "address"
                }
            ],
            "name": "RoleGranted",
            "type": "event"
        },
        {
            "anonymous": false,
            "inputs": [
                {
                    "indexed": true,
                    "internalType": "bytes32",
                    "name": "role",
                    "type": "bytes32"
                },
                {
                    "indexed": true,
                    "internalType": "address",
                    "name": "account",
                    "type": "address"
                },
                {
                    "indexed": true,
                    "internalType": "address",
                    "name": "sender",
                    "type": "address"
                }
            ],
            "name": "RoleRevoked",
            "type": "event"
        },
        {
            "anonymous": false,
            "inputs": [
                {
                    "indexed": true,
                    "internalType": "address",
                    "name": "from",
                    "type": "address"
                },
                {
                    "indexed": true,
                    "internalType": "address",
                    "name": "to",
                    "type": "address"
                },
                {
                    "indexed": false,
                    "internalType": "uint256",
                    "name": "value",
                    "type": "uint256"
                }
            ],
            "name": "Transfer",
            "type": "event"
        },
        {
            "inputs": [],
            "name": "DEFAULT_ADMIN_ROLE",
            "outputs": [
                {
                    "internalType": "bytes32",
                    "name": "",
                    "type": "bytes32"
                }
            ],
            "stateMutability": "view",
            "type": "function"
        },
        {
            "inputs": [],
            "name": "MINTER_ROLE",
            "outputs": [
                {
                    "internalType": "bytes32",
                    "name": "",
                    "type": "bytes32"
                }
            ],
            "stateMutability": "view",
            "type": "function"
        },
        {
            "inputs": [
                {
                    "internalType": "address",
                    "name": "owner",
                    "type": "address"
                },
                {
                    "internalType": "address",
                    "name": "spender",
                    "type": "address"
                }
            ],
            "name": "allowance",
            "outputs": [
                {
                    "internalType": "uint256",
                    "name": "",
                    "type": "uint256"
                }
            ],
            "stateMutability": "view",
            "type": "function"
        },
        {
            "inputs": [
                {
                    "internalType": "address",
                    "name": "spender",
                    "type": "address"
                },
                {
                    "internalType": "uint256",
                    "name": "amount",
                    "type": "uint256"
                }
            ],
            "name": "approve",
            "outputs": [
                {
                    "internalType": "bool",
                    "name": "",
                    "type": "bool"
                }
            ],
            "stateMutability": "nonpayable",
            "type": "function"
        },
        {
            "inputs": [
                {
                    "internalType": "address",
                    "name": "account",
                    "type": "address"
                }
            ],
            "name": "balanceOf",
            "outputs": [
                {
                    "internalType": "uint256",
                    "name": "",
                    "type": "uint256"
                }
            ],
            "stateMutability": "view",
            "type": "function"
        },
        {
            "inputs": [
                {
                    "internalType": "uint256",
                    "name": "amount",
                    "type": "uint256"
                }
            ],
            "name": "burn",
            "outputs": [],
            "stateMutability": "nonpayable",
            "type": "function"
        },
        {
            "inputs": [
                {
                    "internalType": "address",
                    "name": "account",
                    "type": "address"
                },
                {
                    "internalType": "uint256",
                    "name": "amount",
                    "type": "uint256"
                }
            ],
            "name": "burnFrom",
            "outputs": [],
            "stateMutability": "nonpayable",
            "type": "function"
        },
        {
            "inputs": [],
            "name": "decimals",
            "outputs": [
                {
                    "internalType": "uint8",
                    "name": "",
                    "type": "uint8"
                }
            ],
            "stateMutability": "view",
            "type": "function"
        },
        {
            "inputs": [
                {
                    "internalType": "address",
                    "name": "spender",
                    "type": "address"
                },
                {
                    "internalType": "uint256",
                    "name": "subtractedValue",
                    "type": "uint256"
                }
            ],
            "name": "decreaseAllowance",
            "outputs": [
                {
                    "internalType": "bool",
                    "name": "",
                    "type": "bool"
                }
            ],
            "stateMutability": "nonpayable",
            "type": "function"
        },
        {
            "inputs": [
                {
                    "internalType": "bytes32",
                    "name": "role",
                    "type": "bytes32"
                }
            ],
            "name": "getRoleAdmin",
            "outputs": [
                {
                    "internalType": "bytes32",
                    "name": "",
                    "type": "bytes32"
                }
            ],
            "stateMutability": "view",
            "type": "function"
        },
        {
            "inputs": [
                {
                    "internalType": "bytes32",
                    "name": "role",
                    "type": "bytes32"
                },
                {
                    "internalType": "address",
                    "name": "account",
                    "type": "address"
                }
            ],
            "name": "grantRole",
            "outputs": [],
            "stateMutability": "nonpayable",
            "type": "function"
        },
        {
            "inputs": [
                {
                    "internalType": "bytes32",
                    "name": "role",
                    "type": "bytes32"
                },
                {
                    "internalType": "address",
                    "name": "account",
                    "type": "address"
                }
            ],
            "name": "hasRole",
            "outputs": [
                {
                    "internalType": "bool",
                    "name": "",
                    "type": "bool"
                }
            ],
            "stateMutability": "view",
            "type": "function"
        },
        {
            "inputs": [
                {
                    "internalType": "address",
                    "name": "spender",
                    "type": "address"
                },
                {
                    "internalType": "uint256",
                    "name": "addedValue",
                    "type": "uint256"
                }
            ],
            "name": "increaseAllowance",
            "outputs": [
                {
                    "internalType": "bool",
                    "name": "",
                    "type": "bool"
                }
            ],
            "stateMutability": "nonpayable",
            "type": "function"
        },
        {
            "inputs": [
                {
                    "internalType": "address",
                    "name": "to",
                    "type": "address"
                },
                {
                    "internalType": "uint256",
                    "name": "amount",
                    "type": "uint256"
                }
            ],
            "name": "mint",
            "outputs": [],
            "stateMutability": "nonpayable",
            "type": "function"
        },
        {
            "inputs": [],
            "name": "name",
            "outputs": [
                {
                    "internalType": "string",
                    "name": "",
                    "type": "string"
                }
            ],
            "stateMutability": "view",
            "type": "function"
        },
        {
            "inputs": [
                {
                    "internalType": "bytes32",
                    "name": "role",
                    "type": "bytes32"
                },
                {
                    "internalType": "address",
                    "name": "account",
                    "type": "address"
                }
            ],
            "name": "renounceRole",
            "outputs": [],
            "stateMutability": "nonpayable",
            "type": "function"
        },
        {
            "inputs": [
                {
                    "internalType": "bytes32",
                    "name": "role",
                    "type": "bytes32"
                },
                {
                    "internalType": "address",
                    "name": "account",
                    "type": "address"
                }
            ],
            "name": "revokeRole",
            "outputs": [],
            "stateMutability": "nonpayable",
            "type": "function"
        },
        {
            "inputs": [
                {
                    "internalType": "bytes4",
                    "name": "interfaceId",
                    "type": "bytes4"
                }
            ],
            "name": "supportsInterface",
            "outputs": [
                {
                    "internalType": "bool",
                    "name": "",
                    "type": "bool"
                }
            ],
            "stateMutability": "view",
            "type": "function"
        },
        {
            "inputs": [],
            "name": "symbol",
            "outputs": [
                {
                    "internalType": "string",
                    "name": "",
                    "type": "string"
                }
            ],
            "stateMutability": "view",
            "type": "function"
        },
        {
            "inputs": [],
            "name": "totalSupply",
            "outputs": [
                {
                    "internalType": "uint256",
                    "name": "",
                    "type": "uint256"
                }
            ],
            "stateMutability": "view",
            "type": "function"
        },
        {
            "inputs": [
                {
                    "internalType": "address",
                    "name": "to",
                    "type": "address"
                },
                {
                    "internalType": "uint256",
                    "name": "amount",
                    "type": "uint256"
                }
            ],
            "name": "transfer",
            "outputs": [
                {
                    "internalType": "bool",
                    "name": "",
                    "type": "bool"
                }
            ],
            "stateMutability": "nonpayable",
            "type": "function"
        },
        {
            "inputs": [
                {
                    "internalType": "address",
                    "name": "from",
                    "type": "address"
                },
                {
                    "internalType": "address",
                    "name": "to",
                    "type": "address"
                },
                {
                    "internalType": "uint256",
                    "name": "amount",
                    "type": "uint256"
                }
            ],
            "name": "transferFrom",
            "outputs": [
                {
                    "internalType": "bool",
                    "name": "",
                    "type": "bool"
                }
            ],
            "stateMutability": "nonpayable",
            "type": "function"
        }
    ],
    "bytecode": "0x60806040523480156200001157600080fd5b506040516200180a3803806200180a8339810160408190526200003491620002c1565b8151829082906200004d9060039060208501906200014e565b508051620000639060049060208401906200014e565b506200007591506000905033620000a9565b620000a17f9f2df0fed2c77648de5860a4cc508cd0818c85b8b8a1ab4ceeef8d981c8956a633620000a9565b505062000368565b60008281526005602090815260408083206001600160a01b038516845290915290205460ff166200014a5760008281526005602090815260408083206001600160a01b03851684529091529020805460ff19166001179055620001093390565b6001600160a01b0316816001600160a01b0316837f2f8788117e7eff1d82e926ec794901d17c78024a50270940304540a733656f0d60405160405180910390a45b5050565b8280546200015c906200032b565b90600052602060002090601f016020900481019282620001805760008555620001cb565b82601f106200019b57805160ff1916838001178555620001cb565b82800160010185558215620001cb579182015b82811115620001cb578251825591602001919060010190620001ae565b50620001d9929150620001dd565b5090565b5b80821115620001d95760008155600101620001de565b634e487b7160e01b600052604160045260246000fd5b600082601f8301126200021c57600080fd5b81516001600160401b0380821115620002395762000239620001f4565b604051601f8301601f19908116603f01168101908282118183101715620002645762000264620001f4565b816040528381526020925086838588010111156200028157600080fd5b600091505b83821015620002a5578582018301518183018401529082019062000286565b83821115620002b75760008385830101525b9695505050505050565b60008060408385031215620002d557600080fd5b82516001600160401b0380821115620002ed57600080fd5b620002fb868387016200020a565b935060208501519150808211156200031257600080fd5b5062000321858286016200020a565b9150509250929050565b600181811c908216806200034057607f821691505b602082108114156200036257634e487b7160e01b600052602260045260246000fd5b50919050565b61149280620003786000396000f3fe608060405234801561001057600080fd5b50600436106101825760003560e01c806342966c68116100d8578063a217fddf1161008c578063d539139311610066578063d53913931461033a578063d547741f14610361578063dd62ed3e1461037457600080fd5b8063a217fddf1461030c578063a457c2d714610314578063a9059cbb1461032757600080fd5b806379cc6790116100bd57806379cc6790146102b857806391d14854146102cb57806395d89b411461030457600080fd5b806342966c681461027c57806370a082311461028f57600080fd5b8063248a9ca31161013a57806336568abe1161011457806336568abe14610243578063395093511461025657806340c10f191461026957600080fd5b8063248a9ca3146101fc5780632f2ff15d1461021f578063313ce5671461023457600080fd5b8063095ea7b31161016b578063095ea7b3146101c457806318160ddd146101d757806323b872dd146101e957600080fd5b806301ffc9a71461018757806306fdde03146101af575b600080fd5b61019a61019536600461114c565b6103ad565b60405190151581526020015b60405180910390f35b6101b7610446565b6040516101a691906111ba565b61019a6101d2366004611209565b6104d8565b6002545b6040519081526020016101a6565b61019a6101f7366004611233565b6104f0565b6101db61020a36600461126f565b60009081526005602052604090206001015490565b61023261022d366004611288565b610514565b005b604051601281526020016101a6565b610232610251366004611288565b61053e565b61019a610264366004611209565b6105cf565b610232610277366004611209565b61060e565b61023261028a36600461126f565b610642565b6101db61029d3660046112b4565b6001600160a01b031660009081526020819052604090205490565b6102326102c6366004611209565b61064f565b61019a6102d9366004611288565b60009182526005602090815260408084206001600160a01b0393909316845291905290205460ff1690565b6101b7610664565b6101db600081565b61019a610322366004611209565b610673565b61019a610335366004611209565b61071d565b6101db7f9f2df0fed2c77648de5860a4cc508cd0818c85b8b8a1ab4ceeef8d981c8956a681565b61023261036f366004611288565b61072b565b6101db6103823660046112cf565b6001600160a01b03918216600090815260016020908152604080832093909416825291909152205490565b60007fffffffff0000000000000000000000000000000000000000000000000000000082167f7965db0b00000000000000000000000000000000000000000000000000000000148061044057507f01ffc9a7000000000000000000000000000000000000000000000000000000007fffffffff000000000000000000000000000000000000000000000000000000008316145b92915050565b606060038054610455906112f9565b80601f0160208091040260200160405190810160405280929190818152602001828054610481906112f9565b80156104ce5780601f106104a3576101008083540402835291602001916104ce565b820191906000526020600020905b8154815290600101906020018083116104b157829003601f168201915b5050505050905090565b6000336104e6818585610750565b5060019392505050565b6000336104fe8582856108a8565b61050985858561093a565b506001949350505050565b60008281526005602052604090206001015461052f81610b51565b6105398383610b5b565b505050565b6001600160a01b03811633146105c15760405162461bcd60e51b815260206004820152602f60248201527f416363657373436f6e74726f6c3a2063616e206f6e6c792072656e6f756e636560448201527f20726f6c657320666f722073656c66000000000000000000000000000000000060648201526084015b60405180910390fd5b6105cb8282610bfd565b5050565b3360008181526001602090815260408083206001600160a01b03871684529091528120549091906104e6908290869061060990879061134a565b610750565b7f9f2df0fed2c77648de5860a4cc508cd0818c85b8b8a1ab4ceeef8d981c8956a661063881610b51565b6105398383610c80565b61064c3382610d5f565b50565b61065a8233836108a8565b6105cb8282610d5f565b606060048054610455906112f9565b3360008181526001602090815260408083206001600160a01b0387168452909152812054909190838110156107105760405162461bcd60e51b815260206004820152602560248201527f45524332303a2064656372656173656420616c6c6f77616e63652062656c6f7760448201527f207a65726f00000000000000000000000000000000000000000000000000000060648201526084016105b8565b6105098286868403610750565b6000336104e681858561093a565b60008281526005602052604090206001015461074681610b51565b6105398383610bfd565b6001600160a01b0383166107cb5760405162461bcd60e51b8152602060048201526024808201527f45524332303a20617070726f76652066726f6d20746865207a65726f2061646460448201527f726573730000000000000000000000000000000000000000000000000000000060648201526084016105b8565b6001600160a01b0382166108475760405162461bcd60e51b815260206004820152602260248201527f45524332303a20617070726f766520746f20746865207a65726f20616464726560448201527f737300000000000000000000000000000000000000000000000000000000000060648201526084016105b8565b6001600160a01b0383811660008181526001602090815260408083209487168084529482529182902085905590518481527f8c5be1e5ebec7d5bd14f71427d1e84f3dd0314c0f7b2291e5b200ac8c7c3b925910160405180910390a3505050565b6001600160a01b03838116600090815260016020908152604080832093861683529290522054600019811461093457818110156109275760405162461bcd60e51b815260206004820152601d60248201527f45524332303a20696e73756666696369656e7420616c6c6f77616e636500000060448201526064016105b8565b6109348484848403610750565b50505050565b6001600160a01b0383166109b65760405162461bcd60e51b815260206004820152602560248201527f45524332303a207472616e736665722066726f6d20746865207a65726f20616460448201527f647265737300000000000000000000000000000000000000000000000000000060648201526084016105b8565b6001600160a01b038216610a325760405162461bcd60e51b815260206004820152602360248201527f45524332303a207472616e7366657220746f20746865207a65726f206164647260448201527f657373000000000000000000000000000000000000000000000000000000000060648201526084016105b8565b6001600160a01b03831660009081526020819052604090205481811015610ac15760405162461bcd60e51b815260206004820152602660248201527f45524332303a207472616e7366657220616d6f756e742065786365656473206260448201527f616c616e6365000000000000000000000000000000000000000000000000000060648201526084016105b8565b6001600160a01b03808516600090815260208190526040808220858503905591851681529081208054849290610af890849061134a565b92505081905550826001600160a01b0316846001600160a01b03167fddf252ad1be2c89b69c2b068fc378daa952ba7f163c4a11628f55a4df523b3ef84604051610b4491815260200190565b60405180910390a3610934565b61064c8133610ee4565b60008281526005602090815260408083206001600160a01b038516845290915290205460ff166105cb5760008281526005602090815260408083206001600160a01b03851684529091529020805460ff19166001179055610bb93390565b6001600160a01b0316816001600160a01b0316837f2f8788117e7eff1d82e926ec794901d17c78024a50270940304540a733656f0d60405160405180910390a45050565b60008281526005602090815260408083206001600160a01b038516845290915290205460ff16156105cb5760008281526005602090815260408083206001600160a01b0385168085529252808320805460ff1916905551339285917ff6391f5c32d9c69d2a47ea670b442974b53935d1edc7fd64eb21e047a839171b9190a45050565b6001600160a01b038216610cd65760405162461bcd60e51b815260206004820152601f60248201527f45524332303a206d696e7420746f20746865207a65726f20616464726573730060448201526064016105b8565b8060026000828254610ce8919061134a565b90915550506001600160a01b03821660009081526020819052604081208054839290610d1590849061134a565b90915550506040518181526001600160a01b038316906000907fddf252ad1be2c89b69c2b068fc378daa952ba7f163c4a11628f55a4df523b3ef9060200160405180910390a35050565b6001600160a01b038216610ddb5760405162461bcd60e51b815260206004820152602160248201527f45524332303a206275726e2066726f6d20746865207a65726f2061646472657360448201527f730000000000000000000000000000000000000000000000000000000000000060648201526084016105b8565b6001600160a01b03821660009081526020819052604090205481811015610e6a5760405162461bcd60e51b815260206004820152602260248201527f45524332303a206275726e20616d6f756e7420657863656564732062616c616e60448201527f636500000000000000000000000000000000000000000000000000000000000060648201526084016105b8565b6001600160a01b0383166000908152602081905260408120838303905560028054849290610e99908490611362565b90915550506040518281526000906001600160a01b038516907fddf252ad1be2c89b69c2b068fc378daa952ba7f163c4a11628f55a4df523b3ef9060200160405180910390a3505050565b60008281526005602090815260408083206001600160a01b038516845290915290205460ff166105cb57610f22816001600160a01b03166014610f64565b610f2d836020610f64565b604051602001610f3e929190611379565b60408051601f198184030181529082905262461bcd60e51b82526105b8916004016111ba565b60606000610f738360026113fa565b610f7e90600261134a565b67ffffffffffffffff811115610f9657610f96611419565b6040519080825280601f01601f191660200182016040528015610fc0576020820181803683370190505b5090507f300000000000000000000000000000000000000000000000000000000000000081600081518110610ff757610ff761142f565b60200101906001600160f81b031916908160001a9053507f7800000000000000000000000000000000000000000000000000000000000000816001815181106110425761104261142f565b60200101906001600160f81b031916908160001a90535060006110668460026113fa565b61107190600161134a565b90505b60018111156110f6577f303132333435363738396162636465660000000000000000000000000000000085600f16601081106110b2576110b261142f565b1a60f81b8282815181106110c8576110c861142f565b60200101906001600160f81b031916908160001a90535060049490941c936110ef81611445565b9050611074565b5083156111455760405162461bcd60e51b815260206004820181905260248201527f537472696e67733a20686578206c656e67746820696e73756666696369656e7460448201526064016105b8565b9392505050565b60006020828403121561115e57600080fd5b81357fffffffff000000000000000000000000000000000000000000000000000000008116811461114557600080fd5b60005b838110156111a9578181015183820152602001611191565b838111156109345750506000910152565b60208152600082518060208401526111d981604085016020870161118e565b601f01601f19169190910160400192915050565b80356001600160a01b038116811461120457600080fd5b919050565b6000806040838503121561121c57600080fd5b611225836111ed565b946020939093013593505050565b60008060006060848603121561124857600080fd5b611251846111ed565b925061125f602085016111ed565b9150604084013590509250925092565b60006020828403121561128157600080fd5b5035919050565b6000806040838503121561129b57600080fd5b823591506112ab602084016111ed565b90509250929050565b6000602082840312156112c657600080fd5b611145826111ed565b600080604083850312156112e257600080fd5b6112eb836111ed565b91506112ab602084016111ed565b600181811c9082168061130d57607f821691505b6020821081141561132e57634e487b7160e01b600052602260045260246000fd5b50919050565b634e487b7160e01b600052601160045260246000fd5b6000821982111561135d5761135d611334565b500190565b60008282101561137457611374611334565b500390565b7f416363657373436f6e74726f6c3a206163636f756e74200000000000000000008152600083516113b181601785016020880161118e565b7f206973206d697373696e6720726f6c652000000000000000000000000000000060179184019182015283516113ee81602884016020880161118e565b01602801949350505050565b600081600019048311821515161561141457611414611334565b500290565b634e487b7160e01b600052604160045260246000fd5b634e487b7160e01b600052603260045260246000fd5b60008161145457611454611334565b50600019019056fea2646970667358221220c7559925edb52dd7f7877a48df064703c2cf4f6e4f7333f38a1d6f88708e4ead64736f6c63430008090033",
    "linkReferences": {},
    "deployedLinkReferences": {}
}