{
  "_format": "hh-sol-artifact-1",
  "contractName": "OverflowTest",
  "sourceName": "contracts/misc/OverflowTest.sol",
  "abi": [
    {
      "inputs": [],
      "name": "counter",
      "outputs": [
        {
          "internalType": "uint8",
          "name": "",
          "type": "uint8"
        }
      ],
      "stateMutability": "view",
      "type": "function"
    },
    {
      "inputs": [
        {
          "internalType": "uint8",
          "name": "amount",
          "type": "uint8"
        }
      ],
      "name": "forceIncrement",
      "outputs": [],
      "stateMutability": "nonpayable",
      "type": "function"
    },
    {
      "inputs": [
        {
          "internalType": "uint8",
          "name": "amount",
          "type": "uint8"
        }
      ],
      "name": "increment",
      "outputs": [],
      "stateMutability": "nonpayable",
      "type": "function"
    }
  ],
  "bytecode": "0x608060405234801561001057600080fd5b50610185806100206000396000f3fe608060405234801561001057600080fd5b50600436106100415760003560e01c806361bc221a14610046578063d6b4633014610069578063dbced6281461007e575b600080fd5b6000546100539060ff1681565b60405160ff909116815260200160405180910390f35b61007c6100773660046100d9565b6100a7565b005b61007c61008c3660046100d9565b6000805460ff19811660ff9182169390930116919091179055565b6000805482919081906100be90849060ff16610103565b92506101000a81548160ff021916908360ff16021790555050565b6000602082840312156100eb57600080fd5b813560ff811681146100fc57600080fd5b9392505050565b600060ff821660ff84168060ff03821115610147577f4e487b7100000000000000000000000000000000000000000000000000000000600052601160045260246000fd5b01939250505056fea26469706673582212202b8f10076fa71d765ff1436e34933d6144a0468f9dce305ae0d8643d643e406b64736f6c63430008090033",
  "linkReferences": {},
  "deployedLinkReferences": {}
}