{
  "_format": "hh-sol-artifact-1",
  "contractName": "Lottery",
  "sourceName": "contracts/Lottery.sol",
  "abi": [
    {
      "inputs": [
        {
          "internalType": "uint256",
          "name": "_betPrice",
          "type": "uint256"
        },
        {
          "internalType": "address",
          "name": "_paymentToken",
          "type": "address"
        },
        {
          "internalType": "address",
          "name": "_nft",
          "type": "address"
        },
        {
          "internalType": "string",
          "name": "_uri",
          "type": "string"
        },
        {
          "internalType": "address",
          "name": "_recipient",
          "type": "address"
        },
        {
          "internalType": "address",
          "name": "_saleOwner",
          "type": "address"
        }
      ],
      "stateMutability": "nonpayable",
      "type": "constructor"
    },
    {
      "anonymous": false,
      "inputs": [
        {
          "indexed": false,
          "internalType": "uint256",
          "name": "lotteryClosingTime",
          "type": "uint256"
        }
      ],
      "name": "Start",
      "type": "event"
    },
    {
      "inputs": [],
      "name": "bet",
      "outputs": [],
      "stateMutability": "nonpayable",
      "type": "function"
    },
    {
      "inputs": [
        {
          "internalType": "uint256",
          "name": "times",
          "type": "uint256"
        }
      ],
      "name": "betMany",
      "outputs": [],
      "stateMutability": "nonpayable",
      "type": "function"
    },
    {
      "inputs": [],
      "name": "betPrice",
      "outputs": [
        {
          "internalType": "uint256",
          "name": "",
          "type": "uint256"
        }
      ],
      "stateMutability": "view",
      "type": "function"
    },
    {
      "inputs": [],
      "name": "betsOpen",
      "outputs": [
        {
          "internalType": "bool",
          "name": "",
          "type": "bool"
        }
      ],
      "stateMutability": "view",
      "type": "function"
    },
    {
      "inputs": [],
      "name": "closeLottery",
      "outputs": [],
      "stateMutability": "nonpayable",
      "type": "function"
    },
    {
      "inputs": [
        {
          "internalType": "uint256",
          "name": "duration",
          "type": "uint256"
        }
      ],
      "name": "getBettingWindow",
      "outputs": [
        {
          "internalType": "uint256",
          "name": "",
          "type": "uint256"
        }
      ],
      "stateMutability": "view",
      "type": "function"
    },
    {
      "inputs": [],
      "name": "getRandomNumber",
      "outputs": [
        {
          "internalType": "uint256",
          "name": "randomNumber",
          "type": "uint256"
        }
      ],
      "stateMutability": "view",
      "type": "function"
    },
    {
      "inputs": [],
      "name": "lotteryClosingTime",
      "outputs": [
        {
          "internalType": "uint256",
          "name": "",
          "type": "uint256"
        }
      ],
      "stateMutability": "view",
      "type": "function"
    },
    {
      "inputs": [],
      "name": "nft",
      "outputs": [
        {
          "internalType": "contract IERC721",
          "name": "",
          "type": "address"
        }
      ],
      "stateMutability": "view",
      "type": "function"
    },
    {
      "inputs": [
        {
          "internalType": "uint256",
          "name": "closingTime",
          "type": "uint256"
        }
      ],
      "name": "openBets",
      "outputs": [],
      "stateMutability": "nonpayable",
      "type": "function"
    },
    {
      "inputs": [],
      "name": "ownerPool",
      "outputs": [
        {
          "internalType": "uint256",
          "name": "",
          "type": "uint256"
        }
      ],
      "stateMutability": "view",
      "type": "function"
    },
    {
      "inputs": [],
      "name": "paymentToken",
      "outputs": [
        {
          "internalType": "contract IERC20",
          "name": "",
          "type": "address"
        }
      ],
      "stateMutability": "view",
      "type": "function"
    },
    {
      "inputs": [],
      "name": "recipient",
      "outputs": [
        {
          "internalType": "address",
          "name": "",
          "type": "address"
        }
      ],
      "stateMutability": "view",
      "type": "function"
    },
    {
      "inputs": [],
      "name": "saleOwner",
      "outputs": [
        {
          "internalType": "address",
          "name": "",
          "type": "address"
        }
      ],
      "stateMutability": "view",
      "type": "function"
    },
    {
      "inputs": [],
      "name": "window",
      "outputs": [
        {
          "internalType": "uint256",
          "name": "",
          "type": "uint256"
        }
      ],
      "stateMutability": "view",
      "type": "function"
    }
  ],
  "bytecode": "0x60806040523480156200001157600080fd5b5060405162000c7c38038062000c7c83398101604081905262000034916200018f565b6004869055600080546001600160a01b038088166001600160a01b031992831617909255600280549287169290911691909117905582516200007e906003906020860190620000b6565b50600180546001600160a01b039384166001600160a01b0319918216179091556009805492909316911617905550620002fe92505050565b828054620000c490620002c1565b90600052602060002090601f016020900481019282620000e8576000855562000133565b82601f106200010357805160ff191683800117855562000133565b8280016001018555821562000133579182015b828111156200013357825182559160200191906001019062000116565b506200014192915062000145565b5090565b5b8082111562000141576000815560010162000146565b80516001600160a01b03811681146200017457600080fd5b919050565b634e487b7160e01b600052604160045260246000fd5b60008060008060008060c08789031215620001a957600080fd5b865195506020620001bc8189016200015c565b9550620001cc604089016200015c565b60608901519095506001600160401b0380821115620001ea57600080fd5b818a0191508a601f830112620001ff57600080fd5b81518181111562000214576200021462000179565b604051601f8201601f19908116603f011681019083821181831017156200023f576200023f62000179565b816040528281528d868487010111156200025857600080fd5b600093505b828410156200027c57848401860151818501870152928501926200025d565b828411156200028e5760008684830101525b809850505050505050620002a5608088016200015c565b9150620002b560a088016200015c565b90509295509295509295565b600181811c90821680620002d657607f821691505b60208210811415620002f857634e487b7160e01b600052602260045260246000fd5b50919050565b61096e806200030e6000396000f3fe608060405234801561001057600080fd5b50600436106100f55760003560e01c806366d003ac11610097578063b3890faf11610066578063b3890faf146101c4578063cfd8a175146101d7578063d1b258ff146101e0578063dbdff2c1146101fd57600080fd5b806366d003ac146101835780636fd0981614610196578063729e91e91461019e578063990a49f5146101b157600080fd5b8063461645bf116100d3578063461645bf1461014b57806347ccca0214610154578063486f59541461016757806359aff8b71461017a57600080fd5b806311610c25146100fa5780632b65e040146101045780633013ce2914610120575b600080fd5b610102610203565b005b61010d60055481565b6040519081526020015b60405180910390f35b600054610133906001600160a01b031681565b6040516001600160a01b039091168152602001610117565b61010d60085481565b600254610133906001600160a01b031681565b61010d6101753660046107a0565b610385565b61010d60075481565b600154610133906001600160a01b031681565b6101026103a2565b6101026101ac3660046107a0565b610613565b6101026101bf3660046107a0565b610640565b600954610133906001600160a01b031681565b61010d60045481565b6006546101ed9060ff1681565b6040519015158152602001610117565b4461010d565b60065460ff168015610216575060075442105b6102675760405162461bcd60e51b815260206004820152601160248201527f4c6f747465727920697320636c6f73656400000000000000000000000000000060448201526064015b60405180910390fd5b6004546005600082825461027b91906107cf565b9091555050600a805460018101825560009182527fc65a7bb8d6351c1cf70c95a316cc6a92839c986682d98bc35f958f4883f9d2a80180547fffffffffffffffffffffffff000000000000000000000000000000000000000016339081179091559054600480546040517f23b872dd0000000000000000000000000000000000000000000000000000000081529182019390935230602482015260448101929092526001600160a01b0316906323b872dd90606401602060405180830381600087803b15801561034a57600080fd5b505af115801561035e573d6000803e3d6000fd5b505050506040513d601f19601f8201168201806040525081019061038291906107e7565b50565b600061039282603c610810565b61039c90426107cf565b92915050565b6007544210156103f45760405162461bcd60e51b815260206004820152601160248201527f546f6f20736f6f6e20746f20636c6f7365000000000000000000000000000000604482015260640161025e565b600a541561060757600a5460009061040c904461082f565b90506000600a828154811061042357610423610851565b600091825260208220015490546001546005546040517fa9059cbb0000000000000000000000000000000000000000000000000000000081526001600160a01b03928316600482015260248101919091529281169350169063a9059cbb90604401602060405180830381600087803b15801561049e57600080fd5b505af11580156104b2573d6000803e3d6000fd5b505050506040513d601f19601f820116820180604052508101906104d691906107e7565b506002546040517fd204c45e0000000000000000000000000000000000000000000000000000000081526001600160a01b039091169063d204c45e90610523908490600390600401610867565b600060405180830381600087803b15801561053d57600080fd5b505af1158015610551573d6000803e3d6000fd5b50506002546040517f36568abe0000000000000000000000000000000000000000000000000000000081527f9f2df0fed2c77648de5860a4cc508cd0818c85b8b8a1ab4ceeef8d981c8956a660048201523060248201526001600160a01b0390911692506336568abe9150604401600060405180830381600087803b1580156105d957600080fd5b505af11580156105ed573d6000803e3d6000fd5b50505050600a60006105ff919061076e565b505060006005555b6006805460ff19169055565b6000811161062057600080fd5b80156103825761062e610203565b8061063881610921565b915050610620565b60065460ff16156106935760405162461bcd60e51b815260206004820152600f60248201527f4c6f7474657279206973206f70656e0000000000000000000000000000000000604482015260640161025e565b4281116107085760405162461bcd60e51b815260206004820152602260248201527f436c6f73696e672074696d65206d75737420626520696e20746865206675747560448201527f7265000000000000000000000000000000000000000000000000000000000000606482015260840161025e565b6009546001600160a01b0316331461071f57600080fd5b60078190556006805460ff191660011790556040517ff06a29c94c6f4edc1085072972d9441f7603e81c8535a308f214285d0653c850906107639083815260200190565b60405180910390a150565b508054600082559060005260206000209081019061038291905b8082111561079c5760008155600101610788565b5090565b6000602082840312156107b257600080fd5b5035919050565b634e487b7160e01b600052601160045260246000fd5b600082198211156107e2576107e26107b9565b500190565b6000602082840312156107f957600080fd5b8151801515811461080957600080fd5b9392505050565b600081600019048311821515161561082a5761082a6107b9565b500290565b60008261084c57634e487b7160e01b600052601260045260246000fd5b500690565b634e487b7160e01b600052603260045260246000fd5b6001600160a01b0383168152600060206040818401526000845481600182811c91508083168061089857607f831692505b8583108114156108b657634e487b7160e01b85526022600452602485fd5b60408801839052606088018180156108d557600181146108e657610911565b60ff19861682528782019650610911565b60008b81526020902060005b8681101561090b578154848201529085019089016108f2565b83019750505b50949a9950505050505050505050565b600081610930576109306107b9565b50600019019056fea26469706673582212200a7ceb7ae6e17be7b50cb061ad468d0f39be3a20084dd2333649fd575d23471964736f6c63430008090033",
  "linkReferences": {},
  "deployedLinkReferences": {}
}