{
  "_format": "hh-sol-artifact-1",
  "contractName": "Lottery",
  "sourceName": "contracts/Lottery.sol",
  "abi": [
    {
      "inputs": [
        {
          "internalType": "uint256",
          "name": "_betPrice",
          "type": "uint256"
        },
        {
          "internalType": "address",
          "name": "_paymentToken",
          "type": "address"
        },
        {
          "internalType": "address",
          "name": "_nft",
          "type": "address"
        },
        {
          "internalType": "string",
          "name": "_uri",
          "type": "string"
        },
        {
          "internalType": "address",
          "name": "_recipient",
          "type": "address"
        },
        {
          "internalType": "address",
          "name": "_saleOwner",
          "type": "address"
        },
        {
          "internalType": "uint256",
          "name": "_closingTime",
          "type": "uint256"
        }
      ],
      "stateMutability": "nonpayable",
      "type": "constructor"
    },
    {
      "anonymous": false,
      "inputs": [
        {
          "indexed": false,
          "internalType": "address",
          "name": "winner",
          "type": "address"
        }
      ],
      "name": "End",
      "type": "event"
    },
    {
      "anonymous": false,
      "inputs": [
        {
          "indexed": false,
          "internalType": "string",
          "name": "message",
          "type": "string"
        }
      ],
      "name": "EndNotEnoughBets",
      "type": "event"
    },
    {
      "anonymous": false,
      "inputs": [
        {
          "indexed": false,
          "internalType": "uint256",
          "name": "lotteryClosingTime",
          "type": "uint256"
        }
      ],
      "name": "Start",
      "type": "event"
    },
    {
      "inputs": [],
      "name": "bet",
      "outputs": [],
      "stateMutability": "nonpayable",
      "type": "function"
    },
    {
      "inputs": [
        {
          "internalType": "uint256",
          "name": "times",
          "type": "uint256"
        }
      ],
      "name": "betMany",
      "outputs": [],
      "stateMutability": "nonpayable",
      "type": "function"
    },
    {
      "inputs": [],
      "name": "betPrice",
      "outputs": [
        {
          "internalType": "uint256",
          "name": "",
          "type": "uint256"
        }
      ],
      "stateMutability": "view",
      "type": "function"
    },
    {
      "inputs": [],
      "name": "betsOpen",
      "outputs": [
        {
          "internalType": "bool",
          "name": "",
          "type": "bool"
        }
      ],
      "stateMutability": "view",
      "type": "function"
    },
    {
      "inputs": [],
      "name": "closeLottery",
      "outputs": [],
      "stateMutability": "nonpayable",
      "type": "function"
    },
    {
      "inputs": [],
      "name": "getRandomNumber",
      "outputs": [
        {
          "internalType": "uint256",
          "name": "randomNumber",
          "type": "uint256"
        }
      ],
      "stateMutability": "view",
      "type": "function"
    },
    {
      "inputs": [],
      "name": "lotteryClosingTime",
      "outputs": [
        {
          "internalType": "uint256",
          "name": "",
          "type": "uint256"
        }
      ],
      "stateMutability": "view",
      "type": "function"
    },
    {
      "inputs": [],
      "name": "nft",
      "outputs": [
        {
          "internalType": "contract IERC721",
          "name": "",
          "type": "address"
        }
      ],
      "stateMutability": "view",
      "type": "function"
    },
    {
      "inputs": [
        {
          "internalType": "uint256",
          "name": "closingTime",
          "type": "uint256"
        }
      ],
      "name": "openBets",
      "outputs": [],
      "stateMutability": "nonpayable",
      "type": "function"
    },
    {
      "inputs": [],
      "name": "ownerPool",
      "outputs": [
        {
          "internalType": "uint256",
          "name": "",
          "type": "uint256"
        }
      ],
      "stateMutability": "view",
      "type": "function"
    },
    {
      "inputs": [],
      "name": "paymentToken",
      "outputs": [
        {
          "internalType": "contract IERC20",
          "name": "",
          "type": "address"
        }
      ],
      "stateMutability": "view",
      "type": "function"
    },
    {
      "inputs": [],
      "name": "recipient",
      "outputs": [
        {
          "internalType": "address",
          "name": "",
          "type": "address"
        }
      ],
      "stateMutability": "view",
      "type": "function"
    },
    {
      "inputs": [],
      "name": "saleOwner",
      "outputs": [
        {
          "internalType": "address",
          "name": "",
          "type": "address"
        }
      ],
      "stateMutability": "view",
      "type": "function"
    }
  ],
  "bytecode": "0x60806040523480156200001157600080fd5b5060405162000d9938038062000d99833981016040819052620000349162000241565b6004879055600080546001600160a01b038089166001600160a01b031992831617909255600280549288169290911691909117905583516200007e90600390602087019062000168565b50600180546001600160a01b038086166001600160a01b03199283161790925560088054928516929091169190911790554281116200010e5760405162461bcd60e51b815260206004820152602260248201527f436c6f73696e672074696d65206d75737420626520696e207468652066757475604482015261726560f01b606482015260840160405180910390fd5b60078190556006805460ff191660011790556040517ff06a29c94c6f4edc1085072972d9441f7603e81c8535a308f214285d0653c85090620001539083815260200190565b60405180910390a150505050505050620003bb565b82805462000176906200037e565b90600052602060002090601f0160209004810192826200019a5760008555620001e5565b82601f10620001b557805160ff1916838001178555620001e5565b82800160010185558215620001e5579182015b82811115620001e5578251825591602001919060010190620001c8565b50620001f3929150620001f7565b5090565b5b80821115620001f35760008155600101620001f8565b80516001600160a01b03811681146200022657600080fd5b919050565b634e487b7160e01b600052604160045260246000fd5b600080600080600080600060e0888a0312156200025d57600080fd5b87519650602062000270818a016200020e565b96506200028060408a016200020e565b60608a01519096506001600160401b03808211156200029e57600080fd5b818b0191508b601f830112620002b357600080fd5b815181811115620002c857620002c86200022b565b604051601f8201601f19908116603f01168101908382118183101715620002f357620002f36200022b565b816040528281528e868487010111156200030c57600080fd5b600093505b8284101562000330578484018601518185018701529285019262000311565b82841115620003425760008684830101525b80995050505050505062000359608089016200020e565b92506200036960a089016200020e565b915060c0880151905092959891949750929550565b600181811c908216806200039357607f821691505b60208210811415620003b557634e487b7160e01b600052602260045260246000fd5b50919050565b6109ce80620003cb6000396000f3fe608060405234801561001057600080fd5b50600436106100df5760003560e01c80636fd098161161008c578063b3890faf11610066578063b3890faf14610192578063cfd8a175146101a5578063d1b258ff146101ae578063dbdff2c1146101cb57600080fd5b80636fd0981614610164578063729e91e91461016c578063990a49f51461017f57600080fd5b806347ccca02116100bd57806347ccca021461013557806359aff8b71461014857806366d003ac1461015157600080fd5b806311610c25146100e45780632b65e040146100ee5780633013ce291461010a575b600080fd5b6100ec6101d1565b005b6100f760055481565b6040519081526020015b60405180910390f35b60005461011d906001600160a01b031681565b6040516001600160a01b039091168152602001610101565b60025461011d906001600160a01b031681565b6100f760075481565b60015461011d906001600160a01b031681565b6100ec610353565b6100ec61017a36600461081f565b610692565b6100ec61018d36600461081f565b6106bf565b60085461011d906001600160a01b031681565b6100f760045481565b6006546101bb9060ff1681565b6040519015158152602001610101565b446100f7565b60065460ff1680156101e4575060075442105b6102355760405162461bcd60e51b815260206004820152601160248201527f4c6f747465727920697320636c6f73656400000000000000000000000000000060448201526064015b60405180910390fd5b60045460056000828254610249919061084e565b90915550506009805460018101825560009182527f6e1540171b6c0c960b71a7020d9f60077f6af931a8bbf590da0223dacf75c7af0180547fffffffffffffffffffffffff000000000000000000000000000000000000000016339081179091559054600480546040517f23b872dd0000000000000000000000000000000000000000000000000000000081529182019390935230602482015260448101929092526001600160a01b0316906323b872dd90606401602060405180830381600087803b15801561031857600080fd5b505af115801561032c573d6000803e3d6000fd5b505050506040513d601f19601f820116820180604052508101906103509190610866565b50565b6007544210156103a55760405162461bcd60e51b815260206004820152601160248201527f546f6f20736f6f6e20746f20636c6f7365000000000000000000000000000000604482015260640161022c565b600954156105f8576009546000906103bd904461088f565b90506000600982815481106103d4576103d46108b1565b600091825260208220015490546001546005546040517fa9059cbb0000000000000000000000000000000000000000000000000000000081526001600160a01b03928316600482015260248101919091529281169350169063a9059cbb90604401602060405180830381600087803b15801561044f57600080fd5b505af1158015610463573d6000803e3d6000fd5b505050506040513d601f19601f820116820180604052508101906104879190610866565b506002546040517fd204c45e0000000000000000000000000000000000000000000000000000000081526001600160a01b039091169063d204c45e906104d49084906003906004016108c7565b600060405180830381600087803b1580156104ee57600080fd5b505af1158015610502573d6000803e3d6000fd5b50506002546040517f36568abe0000000000000000000000000000000000000000000000000000000081527f9f2df0fed2c77648de5860a4cc508cd0818c85b8b8a1ab4ceeef8d981c8956a660048201523060248201526001600160a01b0390911692506336568abe9150604401600060405180830381600087803b15801561058a57600080fd5b505af115801561059e573d6000803e3d6000fd5b50505050600960006105b091906107ed565b6040516001600160a01b03821681527fae1fbc361f1e1931e3a4c89d061fc635889296619c3c92a670ac62983f72c3359060200160405180910390a150506000600555610686565b7f93bc30cea42983d185c1648f31d96c372cf599106e973083129a624d92ad845a60405161067d9060208082526026908201527f6e6f7420656e6f7567682020626574732c207265737461727420746865206c6f60408201527f7474657279210000000000000000000000000000000000000000000000000000606082015260800190565b60405180910390a15b6006805460ff19169055565b6000811161069f57600080fd5b8015610350576106ad6101d1565b806106b781610981565b91505061069f565b60065460ff16156107125760405162461bcd60e51b815260206004820152600f60248201527f4c6f7474657279206973206f70656e0000000000000000000000000000000000604482015260640161022c565b4281116107875760405162461bcd60e51b815260206004820152602260248201527f436c6f73696e672074696d65206d75737420626520696e20746865206675747560448201527f7265000000000000000000000000000000000000000000000000000000000000606482015260840161022c565b6008546001600160a01b0316331461079e57600080fd5b60078190556006805460ff191660011790556040517ff06a29c94c6f4edc1085072972d9441f7603e81c8535a308f214285d0653c850906107e29083815260200190565b60405180910390a150565b508054600082559060005260206000209081019061035091905b8082111561081b5760008155600101610807565b5090565b60006020828403121561083157600080fd5b5035919050565b634e487b7160e01b600052601160045260246000fd5b6000821982111561086157610861610838565b500190565b60006020828403121561087857600080fd5b8151801515811461088857600080fd5b9392505050565b6000826108ac57634e487b7160e01b600052601260045260246000fd5b500690565b634e487b7160e01b600052603260045260246000fd5b6001600160a01b0383168152600060206040818401526000845481600182811c9150808316806108f857607f831692505b85831081141561091657634e487b7160e01b85526022600452602485fd5b6040880183905260608801818015610935576001811461094657610971565b60ff19861682528782019650610971565b60008b81526020902060005b8681101561096b57815484820152908501908901610952565b83019750505b50949a9950505050505050505050565b60008161099057610990610838565b50600019019056fea264697066735822122055d200a15fa3d20a058869c3d3b5982652ba6f587d08ba92e3aee5b0fe4b486d64736f6c63430008090033",
  "linkReferences": {},
  "deployedLinkReferences": {}
}