{
  "_format": "hh-sol-artifact-1",
  "contractName": "Auction",
  "sourceName": "contracts/Auction.sol",
  "abi": [
    {
      "inputs": [
        {
          "internalType": "uint256",
          "name": "_startingBid",
          "type": "uint256"
        },
        {
          "internalType": "address",
          "name": "_paymentToken",
          "type": "address"
        },
        {
          "internalType": "address",
          "name": "_nft",
          "type": "address"
        },
        {
          "internalType": "string",
          "name": "_uri",
          "type": "string"
        },
        {
          "internalType": "address",
          "name": "_recipient",
          "type": "address"
        },
        {
          "internalType": "address",
          "name": "_saleOwner",
          "type": "address"
        }
      ],
      "stateMutability": "nonpayable",
      "type": "constructor"
    },
    {
      "anonymous": false,
      "inputs": [
        {
          "indexed": true,
          "internalType": "address",
          "name": "sender",
          "type": "address"
        },
        {
          "indexed": false,
          "internalType": "uint256",
          "name": "amount",
          "type": "uint256"
        }
      ],
      "name": "Bid",
      "type": "event"
    },
    {
      "anonymous": false,
      "inputs": [
        {
          "indexed": false,
          "internalType": "address",
          "name": "winner",
          "type": "address"
        },
        {
          "indexed": false,
          "internalType": "uint256",
          "name": "amount",
          "type": "uint256"
        }
      ],
      "name": "End",
      "type": "event"
    },
    {
      "anonymous": false,
      "inputs": [
        {
          "indexed": false,
          "internalType": "string",
          "name": "message",
          "type": "string"
        }
      ],
      "name": "EndWithNoBids",
      "type": "event"
    },
    {
      "anonymous": false,
      "inputs": [
        {
          "indexed": false,
          "internalType": "uint256",
          "name": "auctionClosingTime",
          "type": "uint256"
        }
      ],
      "name": "Start",
      "type": "event"
    },
    {
      "anonymous": false,
      "inputs": [
        {
          "indexed": true,
          "internalType": "address",
          "name": "bidder",
          "type": "address"
        },
        {
          "indexed": false,
          "internalType": "uint256",
          "name": "amount",
          "type": "uint256"
        }
      ],
      "name": "Withdraw",
      "type": "event"
    },
    {
      "inputs": [],
      "name": "auctionClosingTime",
      "outputs": [
        {
          "internalType": "uint256",
          "name": "",
          "type": "uint256"
        }
      ],
      "stateMutability": "view",
      "type": "function"
    },
    {
      "inputs": [],
      "name": "auctionOpen",
      "outputs": [
        {
          "internalType": "bool",
          "name": "",
          "type": "bool"
        }
      ],
      "stateMutability": "view",
      "type": "function"
    },
    {
      "inputs": [],
      "name": "beneficiary",
      "outputs": [
        {
          "internalType": "address",
          "name": "",
          "type": "address"
        }
      ],
      "stateMutability": "view",
      "type": "function"
    },
    {
      "inputs": [
        {
          "internalType": "uint256",
          "name": "amount",
          "type": "uint256"
        }
      ],
      "name": "bid",
      "outputs": [],
      "stateMutability": "nonpayable",
      "type": "function"
    },
    {
      "inputs": [
        {
          "internalType": "address",
          "name": "",
          "type": "address"
        }
      ],
      "name": "bids",
      "outputs": [
        {
          "internalType": "uint256",
          "name": "",
          "type": "uint256"
        }
      ],
      "stateMutability": "view",
      "type": "function"
    },
    {
      "inputs": [],
      "name": "end",
      "outputs": [],
      "stateMutability": "nonpayable",
      "type": "function"
    },
    {
      "inputs": [],
      "name": "highestBid",
      "outputs": [
        {
          "internalType": "uint256",
          "name": "",
          "type": "uint256"
        }
      ],
      "stateMutability": "view",
      "type": "function"
    },
    {
      "inputs": [],
      "name": "highestBidder",
      "outputs": [
        {
          "internalType": "address",
          "name": "",
          "type": "address"
        }
      ],
      "stateMutability": "view",
      "type": "function"
    },
    {
      "inputs": [],
      "name": "nft",
      "outputs": [
        {
          "internalType": "contract IERC721",
          "name": "",
          "type": "address"
        }
      ],
      "stateMutability": "view",
      "type": "function"
    },
    {
      "inputs": [],
      "name": "paymentToken",
      "outputs": [
        {
          "internalType": "contract IERC20",
          "name": "",
          "type": "address"
        }
      ],
      "stateMutability": "view",
      "type": "function"
    },
    {
      "inputs": [],
      "name": "saleOwner",
      "outputs": [
        {
          "internalType": "address",
          "name": "",
          "type": "address"
        }
      ],
      "stateMutability": "view",
      "type": "function"
    },
    {
      "inputs": [
        {
          "internalType": "uint256",
          "name": "closingTime",
          "type": "uint256"
        }
      ],
      "name": "start",
      "outputs": [],
      "stateMutability": "nonpayable",
      "type": "function"
    },
    {
      "inputs": [],
      "name": "withdraw",
      "outputs": [],
      "stateMutability": "nonpayable",
      "type": "function"
    }
  ],
  "bytecode": "0x60806040523480156200001157600080fd5b5060405162000e9438038062000e94833981016040819052620000349162000193565b600180546001600160a01b0319166001600160a01b038616179055825162000064906000906020860190620000ba565b50600280546001600160a01b039687166001600160a01b03199182161790915560088790556003805493871693821693909317909255600795909555600480549590941694169390931790915550620003029050565b828054620000c890620002c5565b90600052602060002090601f016020900481019282620000ec576000855562000137565b82601f106200010757805160ff191683800117855562000137565b8280016001018555821562000137579182015b82811115620001375782518255916020019190600101906200011a565b506200014592915062000149565b5090565b5b808211156200014557600081556001016200014a565b80516001600160a01b03811681146200017857600080fd5b919050565b634e487b7160e01b600052604160045260246000fd5b60008060008060008060c08789031215620001ad57600080fd5b865195506020620001c081890162000160565b9550620001d06040890162000160565b60608901519095506001600160401b0380821115620001ee57600080fd5b818a0191508a601f8301126200020357600080fd5b8151818111156200021857620002186200017d565b604051601f8201601f19908116603f011681019083821181831017156200024357620002436200017d565b816040528281528d868487010111156200025c57600080fd5b600093505b8284101562000280578484018601518185018701529285019262000261565b82841115620002925760008684830101525b809850505050505050620002a96080880162000160565b9150620002b960a0880162000160565b90509295509295509295565b600181811c90821680620002da57607f821691505b60208210811415620002fc57634e487b7160e01b600052602260045260246000fd5b50919050565b610b8280620003126000396000f3fe608060405234801561001057600080fd5b50600436106100df5760003560e01c80636d2da76f1161008c57806395805dad1161006657806395805dad146101c5578063b3890faf146101d8578063d57bde79146101eb578063efbe1c1c146101f457600080fd5b80636d2da76f14610185578063786ee8ab1461018e57806391f90157146101b257600080fd5b8063454a2ab3116100bd578063454a2ab31461013157806347ccca021461014457806362ea82db1461015757600080fd5b80633013ce29146100e457806338af3eed146101145780633ccfd60b14610127575b600080fd5b6002546100f7906001600160a01b031681565b6040516001600160a01b0390911681526020015b60405180910390f35b6003546100f7906001600160a01b031681565b61012f6101fc565b005b61012f61013f366004610a01565b610332565b6001546100f7906001600160a01b031681565b610177610165366004610a1a565b60096020526000908152604090205481565b60405190815260200161010b565b61017760065481565b6005546101a290600160a01b900460ff1681565b604051901515815260200161010b565b6005546100f7906001600160a01b031681565b61012f6101d3366004610a01565b610565565b6004546100f7906001600160a01b031681565b61017760085481565b61012f6106e3565b6005546001600160a01b031633141561025c5760405162461bcd60e51b815260206004820152601b60248201527f796f75206172652074686520686967686573742062696464657221000000000060448201526064015b60405180910390fd5b336000818152600960205260408082208054929055600254905163a9059cbb60e01b815260048101939093526024830182905290916001600160a01b039091169063a9059cbb90604401602060405180830381600087803b1580156102c057600080fd5b505af11580156102d4573d6000803e3d6000fd5b505050506040513d601f19601f820116820180604052508101906102f89190610a4a565b5060405181815233907f884edad9ce6fa2440d8a54cc123490eb96d2768479d49ff9c7366125a9424364906020015b60405180910390a250565b600554600160a01b900460ff166103795760405162461bcd60e51b815260206004820152600b60248201526a1b9bdd081cdd185c9d195960aa1b6044820152606401610253565b60065442106103ca5760405162461bcd60e51b815260206004820152601c60248201527f6974206973207374696c6c20746f6f206561726c7920746f20656e64000000006044820152606401610253565b600854811161041b5760405162461bcd60e51b815260206004820152600f60248201527f76616c7565203c206869676865737400000000000000000000000000000000006044820152606401610253565b6002546040517f23b872dd000000000000000000000000000000000000000000000000000000008152336004820152306024820152604481018390526001600160a01b03909116906323b872dd90606401602060405180830381600087803b15801561048657600080fd5b505af115801561049a573d6000803e3d6000fd5b505050506040513d601f19601f820116820180604052508101906104be9190610a4a565b506005546001600160a01b031615610503576008546005546001600160a01b0316600090815260096020526040812080549091906104fd908490610a6c565b90915550505b600580547fffffffffffffffffffffffff0000000000000000000000000000000000000000163390811790915560088290556040518281527fe684a55f31b79eca403df938249029212a5925ec6be8012e099b45bc1019e5d290602001610327565b600554600160a01b900460ff16156105bf5760405162461bcd60e51b815260206004820152600760248201527f73746172746564000000000000000000000000000000000000000000000000006044820152606401610253565b4281116106345760405162461bcd60e51b815260206004820152602260248201527f436c6f73696e672074696d65206d75737420626520696e20746865206675747560448201527f72650000000000000000000000000000000000000000000000000000000000006064820152608401610253565b6004546001600160a01b0316331461068e5760405162461bcd60e51b815260206004820152600d60248201527f6e6f742073616c654f776e6572000000000000000000000000000000000000006044820152606401610253565b6005805460ff60a01b1916600160a01b17905560068190556040517ff06a29c94c6f4edc1085072972d9441f7603e81c8535a308f214285d0653c850906106d89083815260200190565b60405180910390a150565b600554600160a01b900460ff1661072a5760405162461bcd60e51b815260206004820152600b60248201526a1b9bdd081cdd185c9d195960aa1b6044820152606401610253565b60065442101561077c5760405162461bcd60e51b815260206004820152600960248201527f6e6f7420656e64656400000000000000000000000000000000000000000000006044820152606401610253565b6005805460ff60a01b1981169091556001600160a01b0316158015906107a55750600754600854115b156109a2576001546005546040517fd204c45e0000000000000000000000000000000000000000000000000000000081526001600160a01b039283169263d204c45e926107fa92911690600090600401610a92565b600060405180830381600087803b15801561081457600080fd5b505af1158015610828573d6000803e3d6000fd5b50506001546040517f36568abe0000000000000000000000000000000000000000000000000000000081527f9f2df0fed2c77648de5860a4cc508cd0818c85b8b8a1ab4ceeef8d981c8956a660048201523060248201526001600160a01b0390911692506336568abe9150604401600060405180830381600087803b1580156108b057600080fd5b505af11580156108c4573d6000803e3d6000fd5b505060025460035460085460405163a9059cbb60e01b81526001600160a01b03928316600482015260248101919091529116925063a9059cbb9150604401602060405180830381600087803b15801561091c57600080fd5b505af1158015610930573d6000803e3d6000fd5b505050506040513d601f19601f820116820180604052508101906109549190610a4a565b50600554600854604080516001600160a01b03909316835260208301919091527f7d7570b046e5ead3a4f3fbc9fa2445113625a1e79823776146316bafed6b8cc591015b60405180910390a1565b7fe66cd229a88c7de73f985a5f074db6c68dd65231260a8d8e81f864d5272f30e5604051610998906020808252601d908201527f6e6f20626964732c2072657374617274207468652061756374696f6e21000000604082015260600190565b600060208284031215610a1357600080fd5b5035919050565b600060208284031215610a2c57600080fd5b81356001600160a01b0381168114610a4357600080fd5b9392505050565b600060208284031215610a5c57600080fd5b81518015158114610a4357600080fd5b60008219821115610a8d57634e487b7160e01b600052601160045260246000fd5b500190565b6001600160a01b0383168152600060206040818401526000845481600182811c915080831680610ac357607f831692505b858310811415610ae157634e487b7160e01b85526022600452602485fd5b6040880183905260608801818015610b005760018114610b1157610b3c565b60ff19861682528782019650610b3c565b60008b81526020902060005b86811015610b3657815484820152908501908901610b1d565b83019750505b50949a995050505050505050505056fea2646970667358221220e1f5b99336b2b49550a0b66620c2732854982aff8a666ee906de23bb8bb841ff64736f6c63430008090033",
  "linkReferences": {},
  "deployedLinkReferences": {}
}