{
  "_format": "hh-sol-artifact-1",
  "contractName": "SaleFactory",
  "sourceName": "contracts/SaleFactory.sol",
  "abi": [
    {
      "inputs": [
        {
          "internalType": "address",
          "name": "_nft",
          "type": "address"
        }
      ],
      "stateMutability": "nonpayable",
      "type": "constructor"
    },
    {
      "anonymous": false,
      "inputs": [
        {
          "indexed": true,
          "internalType": "address",
          "name": "previousOwner",
          "type": "address"
        },
        {
          "indexed": true,
          "internalType": "address",
          "name": "newOwner",
          "type": "address"
        }
      ],
      "name": "OwnershipTransferred",
      "type": "event"
    },
    {
      "anonymous": false,
      "inputs": [
        {
          "indexed": false,
          "internalType": "address",
          "name": "saleAddress",
          "type": "address"
        },
        {
          "indexed": false,
          "internalType": "string",
          "name": "typeOfSale",
          "type": "string"
        },
        {
          "indexed": false,
          "internalType": "address",
          "name": "saleOwner",
          "type": "address"
        },
        {
          "indexed": false,
          "internalType": "string",
          "name": "nftURI",
          "type": "string"
        }
      ],
      "name": "SaleCreated",
      "type": "event"
    },
    {
      "inputs": [
        {
          "internalType": "uint256",
          "name": "startingBid",
          "type": "uint256"
        },
        {
          "internalType": "address",
          "name": "paymentToken",
          "type": "address"
        },
        {
          "internalType": "string",
          "name": "uri",
          "type": "string"
        },
        {
          "internalType": "address",
          "name": "recipient",
          "type": "address"
        },
        {
          "internalType": "uint256",
          "name": "closingTime",
          "type": "uint256"
        }
      ],
      "name": "launchAuction",
      "outputs": [],
      "stateMutability": "nonpayable",
      "type": "function"
    },
    {
      "inputs": [
        {
          "internalType": "uint256",
          "name": "betPrice",
          "type": "uint256"
        },
        {
          "internalType": "address",
          "name": "paymentToken",
          "type": "address"
        },
        {
          "internalType": "string",
          "name": "uri",
          "type": "string"
        },
        {
          "internalType": "address",
          "name": "recipient",
          "type": "address"
        },
        {
          "internalType": "uint256",
          "name": "closingTime",
          "type": "uint256"
        }
      ],
      "name": "launchLottery",
      "outputs": [],
      "stateMutability": "nonpayable",
      "type": "function"
    },
    {
      "inputs": [],
      "name": "nft",
      "outputs": [
        {
          "internalType": "contract IERC721",
          "name": "",
          "type": "address"
        }
      ],
      "stateMutability": "view",
      "type": "function"
    },
    {
      "inputs": [],
      "name": "nftAddress",
      "outputs": [
        {
          "internalType": "address",
          "name": "",
          "type": "address"
        }
      ],
      "stateMutability": "view",
      "type": "function"
    },
    {
      "inputs": [],
      "name": "owner",
      "outputs": [
        {
          "internalType": "address",
          "name": "",
          "type": "address"
        }
      ],
      "stateMutability": "view",
      "type": "function"
    },
    {
      "inputs": [],
      "name": "renounceOwnership",
      "outputs": [],
      "stateMutability": "nonpayable",
      "type": "function"
    },
    {
      "inputs": [
        {
          "internalType": "address",
          "name": "newAddress",
          "type": "address"
        }
      ],
      "name": "setNFT",
      "outputs": [],
      "stateMutability": "nonpayable",
      "type": "function"
    },
    {
      "inputs": [
        {
          "internalType": "address",
          "name": "newOwner",
          "type": "address"
        }
      ],
      "name": "transferOwnership",
      "outputs": [],
      "stateMutability": "nonpayable",
      "type": "function"
    }
  ],
  "bytecode": "0x608060405234801561001057600080fd5b5060405161276b38038061276b83398101604081905261002f916100b7565b61003833610067565b600480546001600160a01b039092166001600160a01b03199283168117909155600380549092161790556100e7565b600080546001600160a01b038381166001600160a01b0319831681178455604051919092169283917f8be0079c531659141344cd1fd0a4f28419497f9722a3daafe3b4186f6b6457e09190a35050565b6000602082840312156100c957600080fd5b81516001600160a01b03811681146100e057600080fd5b9392505050565b612675806100f66000396000f3fe60806040523480156200001157600080fd5b5060043610620000935760003560e01c8063715018a61162000062578063715018a6146200010c5780638da5cb5b1462000116578063f2fde38b1462000128578063f56e9c66146200013f57600080fd5b80633fc52096146200009857806347494e3a14620000b157806347ccca0214620000c85780635bf8633a14620000f8575b600080fd5b620000af620000a9366004620005df565b62000156565b005b620000af620000c2366004620005df565b620002ab565b600454620000dc906001600160a01b031681565b6040516001600160a01b03909116815260200160405180910390f35b600354620000dc906001600160a01b031681565b620000af620003c9565b6000546001600160a01b0316620000dc565b620000af62000139366004620006d1565b620003e1565b620000af62000150366004620006d1565b6200047b565b6003546040513391879187916001600160a01b03169087908790869088906200017f9062000577565b62000191979695949392919062000746565b604051809103906000f080158015620001ae573d6000803e3d6000fd5b506001805473ffffffffffffffffffffffffffffffffffffffff19166001600160a01b039290921691821790556040517f6627c30fafeec9f92de090e7bbe9186af6db97839104417362aadc3c35537cf8916200020f918490889062000797565b60405180910390a160048054600154604051632f2ff15d60e01b81527f9f2df0fed2c77648de5860a4cc508cd0818c85b8b8a1ab4ceeef8d981c8956a6938101939093526001600160a01b0390811660248401521690632f2ff15d906044015b600060405180830381600087803b1580156200028a57600080fd5b505af11580156200029f573d6000803e3d6000fd5b50505050505050505050565b6003546040513391879187916001600160a01b0316908790879086908890620002d49062000585565b620002e6979695949392919062000746565b604051809103906000f08015801562000303573d6000803e3d6000fd5b506002805473ffffffffffffffffffffffffffffffffffffffff19166001600160a01b039290921691821790556040517f6627c30fafeec9f92de090e7bbe9186af6db97839104417362aadc3c35537cf89162000364918490889062000802565b60405180910390a160048054600254604051632f2ff15d60e01b81527f9f2df0fed2c77648de5860a4cc508cd0818c85b8b8a1ab4ceeef8d981c8956a6938101939093526001600160a01b0390811660248401521690632f2ff15d906044016200026f565b620003d3620004be565b620003df60006200051a565b565b620003eb620004be565b6001600160a01b0381166200046d5760405162461bcd60e51b815260206004820152602660248201527f4f776e61626c653a206e6577206f776e657220697320746865207a65726f206160448201527f646472657373000000000000000000000000000000000000000000000000000060648201526084015b60405180910390fd5b62000478816200051a565b50565b62000485620004be565b600480546001600160a01b0390921673ffffffffffffffffffffffffffffffffffffffff19928316811790915560038054909216179055565b6000546001600160a01b03163314620003df5760405162461bcd60e51b815260206004820181905260248201527f4f776e61626c653a2063616c6c6572206973206e6f7420746865206f776e6572604482015260640162000464565b600080546001600160a01b0383811673ffffffffffffffffffffffffffffffffffffffff19831681178455604051919092169283917f8be0079c531659141344cd1fd0a4f28419497f9722a3daafe3b4186f6b6457e09190a35050565b610fe9806200086583390190565b610df2806200184e83390190565b80356001600160a01b0381168114620005ab57600080fd5b919050565b7f4e487b7100000000000000000000000000000000000000000000000000000000600052604160045260246000fd5b600080600080600060a08688031215620005f857600080fd5b853594506200060a6020870162000593565b9350604086013567ffffffffffffffff808211156200062857600080fd5b818801915088601f8301126200063d57600080fd5b813581811115620006525762000652620005b0565b604051601f8201601f19908116603f011681019083821181831017156200067d576200067d620005b0565b816040528281528b60208487010111156200069757600080fd5b826020860160208301376000602084830101528097505050505050620006c06060870162000593565b949793965091946080013592915050565b600060208284031215620006e457600080fd5b620006ef8262000593565b9392505050565b6000815180845260005b818110156200071e5760208185018101518683018201520162000700565b8181111562000731576000602083870101525b50601f01601f19169290920160200192915050565b87815260006001600160a01b038089166020840152808816604084015260e060608401526200077960e0840188620006f6565b95811660808401529390931660a082015260c0015250949350505050565b60006001600160a01b03808616835260806020840152600760808401527f61756374696f6e0000000000000000000000000000000000000000000000000060a084015280851660408401525060c06060830152620007f960c0830184620006f6565b95945050505050565b60006001600160a01b03808616835260806020840152600760808401527f6c6f74746572790000000000000000000000000000000000000000000000000060a084015280851660408401525060c06060830152620007f960c0830184620006f656fe60806040523480156200001157600080fd5b5060405162000fe938038062000fe983398101604081905262000034916200028c565b600180546001600160a01b0319166001600160a01b038716179055835162000064906000906020870190620001b3565b50600280546001600160a01b038089166001600160a01b0319928316179092556009899055600380548684169083161790556008899055600480549285169290911691909117905560065460ff600160a01b9091041615620000f75760405162461bcd60e51b81526020600482015260076024820152661cdd185c9d195960ca1b60448201526064015b60405180910390fd5b428111620001535760405162461bcd60e51b815260206004820152602260248201527f436c6f73696e672074696d65206d75737420626520696e207468652066757475604482015261726560f01b6064820152608401620000ee565b6006805460ff60a01b1916600160a01b17905560078190556040517ff06a29c94c6f4edc1085072972d9441f7603e81c8535a308f214285d0653c850906200019e9083815260200190565b60405180910390a15050505050505062000406565b828054620001c190620003c9565b90600052602060002090601f016020900481019282620001e5576000855562000230565b82601f106200020057805160ff191683800117855562000230565b8280016001018555821562000230579182015b828111156200023057825182559160200191906001019062000213565b506200023e92915062000242565b5090565b5b808211156200023e576000815560010162000243565b80516001600160a01b03811681146200027157600080fd5b919050565b634e487b7160e01b600052604160045260246000fd5b600080600080600080600060e0888a031215620002a857600080fd5b875196506020620002bb818a0162000259565b9650620002cb60408a0162000259565b60608a01519096506001600160401b0380821115620002e957600080fd5b818b0191508b601f830112620002fe57600080fd5b81518181111562000313576200031362000276565b604051601f8201601f19908116603f011681019083821181831017156200033e576200033e62000276565b816040528281528e868487010111156200035757600080fd5b600093505b828410156200037b57848401860151818501870152928501926200035c565b828411156200038d5760008684830101525b809950505050505050620003a46080890162000259565b9250620003b460a0890162000259565b915060c0880151905092959891949750929550565b600181811c90821680620003de57607f821691505b602082108114156200040057634e487b7160e01b600052602260045260246000fd5b50919050565b610bd380620004166000396000f3fe608060405234801561001057600080fd5b50600436106100ea5760003560e01c8063786ee8ab1161008c578063b3890faf11610066578063b3890faf146101e3578063bbc54591146101f6578063d57bde7914610209578063efbe1c1c1461021257600080fd5b8063786ee8ab1461019957806391f90157146101bd57806395805dad146101d057600080fd5b8063454a2ab3116100c8578063454a2ab31461013c57806347ccca021461014f57806362ea82db146101625780636d2da76f1461019057600080fd5b80633013ce29146100ef57806338af3eed1461011f5780633ccfd60b14610132575b600080fd5b600254610102906001600160a01b031681565b6040516001600160a01b0390911681526020015b60405180910390f35b600354610102906001600160a01b031681565b61013a61021a565b005b61013a61014a366004610a52565b610350565b600154610102906001600160a01b031681565b610182610170366004610a6b565b600a6020526000908152604090205481565b604051908152602001610116565b61018260075481565b6006546101ad90600160a01b900460ff1681565b6040519015158152602001610116565b600554610102906001600160a01b031681565b61013a6101de366004610a52565b61059e565b600454610102906001600160a01b031681565b600654610102906001600160a01b031681565b61018260095481565b61013a61071c565b6005546001600160a01b031633141561027a5760405162461bcd60e51b815260206004820152601b60248201527f796f75206172652074686520686967686573742062696464657221000000000060448201526064015b60405180910390fd5b336000818152600a60205260408082208054929055600254905163a9059cbb60e01b815260048101939093526024830182905290916001600160a01b039091169063a9059cbb90604401602060405180830381600087803b1580156102de57600080fd5b505af11580156102f2573d6000803e3d6000fd5b505050506040513d601f19601f820116820180604052508101906103169190610a9b565b5060405181815233907f884edad9ce6fa2440d8a54cc123490eb96d2768479d49ff9c7366125a9424364906020015b60405180910390a250565b600654600160a01b900460ff166103975760405162461bcd60e51b815260206004820152600b60248201526a1b9bdd081cdd185c9d195960aa1b6044820152606401610271565b60075442106103e85760405162461bcd60e51b815260206004820152601260248201527f61756374696f6e2068617320656e6465642100000000000000000000000000006044820152606401610271565b600954811161045f5760405162461bcd60e51b815260206004820152602a60248201527f62696420616d6f756e74206d75737420626520686967686572207468616e206860448201527f69676865737420626964000000000000000000000000000000000000000000006064820152608401610271565b6002546040517f23b872dd000000000000000000000000000000000000000000000000000000008152336004820152306024820152604481018390526001600160a01b03909116906323b872dd90606401602060405180830381600087803b1580156104ca57600080fd5b505af11580156104de573d6000803e3d6000fd5b505050506040513d601f19601f820116820180604052508101906105029190610a9b565b506005546001600160a01b031615610547576009546005546001600160a01b03166000908152600a602052604081208054909190610541908490610abd565b90915550505b6005805473ffffffffffffffffffffffffffffffffffffffff19163390811790915560098290556040518281527fe684a55f31b79eca403df938249029212a5925ec6be8012e099b45bc1019e5d290602001610345565b600654600160a01b900460ff16156105f85760405162461bcd60e51b815260206004820152600760248201527f73746172746564000000000000000000000000000000000000000000000000006044820152606401610271565b42811161066d5760405162461bcd60e51b815260206004820152602260248201527f436c6f73696e672074696d65206d75737420626520696e20746865206675747560448201527f72650000000000000000000000000000000000000000000000000000000000006064820152608401610271565b6004546001600160a01b031633146106c75760405162461bcd60e51b815260206004820152600d60248201527f6e6f742073616c654f776e6572000000000000000000000000000000000000006044820152606401610271565b6006805460ff60a01b1916600160a01b17905560078190556040517ff06a29c94c6f4edc1085072972d9441f7603e81c8535a308f214285d0653c850906107119083815260200190565b60405180910390a150565b600654600160a01b900460ff166107635760405162461bcd60e51b815260206004820152600b60248201526a1b9bdd081cdd185c9d195960aa1b6044820152606401610271565b6007544210156107b55760405162461bcd60e51b815260206004820152600960248201527f6e6f7420656e64656400000000000000000000000000000000000000000000006044820152606401610271565b6006805460ff60a01b191690556005546001600160a01b0316158015906107df5750600854600954115b156109f3576001546005546040517fd204c45e0000000000000000000000000000000000000000000000000000000081526001600160a01b039283169263d204c45e9261083492911690600090600401610ae3565b600060405180830381600087803b15801561084e57600080fd5b505af1158015610862573d6000803e3d6000fd5b50506001546040517f36568abe0000000000000000000000000000000000000000000000000000000081527f9f2df0fed2c77648de5860a4cc508cd0818c85b8b8a1ab4ceeef8d981c8956a660048201523060248201526001600160a01b0390911692506336568abe9150604401600060405180830381600087803b1580156108ea57600080fd5b505af11580156108fe573d6000803e3d6000fd5b505060025460035460095460405163a9059cbb60e01b81526001600160a01b03928316600482015260248101919091529116925063a9059cbb9150604401602060405180830381600087803b15801561095657600080fd5b505af115801561096a573d6000803e3d6000fd5b505050506040513d601f19601f8201168201806040525081019061098e9190610a9b565b506005546006805473ffffffffffffffffffffffffffffffffffffffff19166001600160a01b0390921691821790556040519081527fae1fbc361f1e1931e3a4c89d061fc635889296619c3c92a670ac62983f72c335906020015b60405180910390a1565b7fe66cd229a88c7de73f985a5f074db6c68dd65231260a8d8e81f864d5272f30e56040516109e9906020808252601d908201527f6e6f20626964732c2072657374617274207468652061756374696f6e21000000604082015260600190565b600060208284031215610a6457600080fd5b5035919050565b600060208284031215610a7d57600080fd5b81356001600160a01b0381168114610a9457600080fd5b9392505050565b600060208284031215610aad57600080fd5b81518015158114610a9457600080fd5b60008219821115610ade57634e487b7160e01b600052601160045260246000fd5b500190565b6001600160a01b0383168152600060206040818401526000845481600182811c915080831680610b1457607f831692505b858310811415610b3257634e487b7160e01b85526022600452602485fd5b6040880183905260608801818015610b515760018114610b6257610b8d565b60ff19861682528782019650610b8d565b60008b81526020902060005b86811015610b8757815484820152908501908901610b6e565b83019750505b50949a995050505050505050505056fea26469706673582212204a65f92846554fae18f6ac93f6fe6a483a4966528641698ea13aabadbd86909e64736f6c6343000809003360806040523480156200001157600080fd5b5060405162000df238038062000df2833981016040819052620000349162000247565b6004879055600080546001600160a01b038089166001600160a01b031992831617909255600280549288169290911691909117905583516200007e9060039060208701906200016e565b50600180546001600160a01b038086166001600160a01b03199283161790925560088054928516929091169190911790554281116200010e5760405162461bcd60e51b815260206004820152602260248201527f436c6f73696e672074696d65206d75737420626520696e207468652066757475604482015261726560f01b606482015260840160405180910390fd5b60078190556006805460ff60a01b1916600160a01b1790556040517ff06a29c94c6f4edc1085072972d9441f7603e81c8535a308f214285d0653c85090620001599083815260200190565b60405180910390a150505050505050620003c1565b8280546200017c9062000384565b90600052602060002090601f016020900481019282620001a05760008555620001eb565b82601f10620001bb57805160ff1916838001178555620001eb565b82800160010185558215620001eb579182015b82811115620001eb578251825591602001919060010190620001ce565b50620001f9929150620001fd565b5090565b5b80821115620001f95760008155600101620001fe565b80516001600160a01b03811681146200022c57600080fd5b919050565b634e487b7160e01b600052604160045260246000fd5b600080600080600080600060e0888a0312156200026357600080fd5b87519650602062000276818a0162000214565b96506200028660408a0162000214565b60608a01519096506001600160401b0380821115620002a457600080fd5b818b0191508b601f830112620002b957600080fd5b815181811115620002ce57620002ce62000231565b604051601f8201601f19908116603f01168101908382118183101715620002f957620002f962000231565b816040528281528e868487010111156200031257600080fd5b600093505b8284101562000336578484018601518185018701529285019262000317565b82841115620003485760008684830101525b8099505050505050506200035f6080890162000214565b92506200036f60a0890162000214565b915060c0880151905092959891949750929550565b600181811c908216806200039957607f821691505b60208210811415620003bb57634e487b7160e01b600052602260045260246000fd5b50919050565b610a2180620003d16000396000f3fe608060405234801561001057600080fd5b50600436106100ea5760003560e01c8063729e91e91161008c578063bbc5459111610066578063bbc54591146101b0578063cfd8a175146101c3578063d1b258ff146101cc578063dbdff2c1146101f057600080fd5b8063729e91e914610177578063990a49f51461018a578063b3890faf1461019d57600080fd5b806347ccca02116100c857806347ccca021461014057806359aff8b71461015357806366d003ac1461015c5780636fd098161461016f57600080fd5b806311610c25146100ef5780632b65e040146100f95780633013ce2914610115575b600080fd5b6100f76101f6565b005b61010260055481565b6040519081526020015b60405180910390f35b600054610128906001600160a01b031681565b6040516001600160a01b03909116815260200161010c565b600254610128906001600160a01b031681565b61010260075481565b600154610128906001600160a01b031681565b6100f7610374565b6100f7610185366004610872565b6106d8565b6100f7610198366004610872565b610705565b600854610128906001600160a01b031681565b600654610128906001600160a01b031681565b61010260045481565b6006546101e090600160a01b900460ff1681565b604051901515815260200161010c565b44610102565b600654600160a01b900460ff168015610210575060075442105b6102615760405162461bcd60e51b815260206004820152601160248201527f4c6f747465727920697320636c6f73656400000000000000000000000000000060448201526064015b60405180910390fd5b6004546005600082825461027591906108a1565b90915550506009805460018101825560009182527f6e1540171b6c0c960b71a7020d9f60077f6af931a8bbf590da0223dacf75c7af01805473ffffffffffffffffffffffffffffffffffffffff1916339081179091559054600480546040517f23b872dd0000000000000000000000000000000000000000000000000000000081529182019390935230602482015260448101929092526001600160a01b0316906323b872dd90606401602060405180830381600087803b15801561033957600080fd5b505af115801561034d573d6000803e3d6000fd5b505050506040513d601f19601f8201168201806040525081019061037191906108b9565b50565b6007544210156103c65760405162461bcd60e51b815260206004820152601160248201527f546f6f20736f6f6e20746f20636c6f73650000000000000000000000000000006044820152606401610258565b6009541561063b576009546000906103de90446108e2565b90506000600982815481106103f5576103f5610904565b600091825260208220015490546001546005546040517fa9059cbb0000000000000000000000000000000000000000000000000000000081526001600160a01b03928316600482015260248101919091529281169350169063a9059cbb90604401602060405180830381600087803b15801561047057600080fd5b505af1158015610484573d6000803e3d6000fd5b505050506040513d601f19601f820116820180604052508101906104a891906108b9565b506002546040517fd204c45e0000000000000000000000000000000000000000000000000000000081526001600160a01b039091169063d204c45e906104f590849060039060040161091a565b600060405180830381600087803b15801561050f57600080fd5b505af1158015610523573d6000803e3d6000fd5b50506002546040517f36568abe0000000000000000000000000000000000000000000000000000000081527f9f2df0fed2c77648de5860a4cc508cd0818c85b8b8a1ab4ceeef8d981c8956a660048201523060248201526001600160a01b0390911692506336568abe9150604401600060405180830381600087803b1580156105ab57600080fd5b505af11580156105bf573d6000803e3d6000fd5b50505050600960006105d19190610840565b6006805473ffffffffffffffffffffffffffffffffffffffff19166001600160a01b0383169081179091556040519081527fae1fbc361f1e1931e3a4c89d061fc635889296619c3c92a670ac62983f72c3359060200160405180910390a1505060006005556106c9565b7f93bc30cea42983d185c1648f31d96c372cf599106e973083129a624d92ad845a6040516106c09060208082526026908201527f6e6f7420656e6f7567682020626574732c207265737461727420746865206c6f60408201527f7474657279210000000000000000000000000000000000000000000000000000606082015260800190565b60405180910390a15b6006805460ff60a01b19169055565b600081116106e557600080fd5b8015610371576106f36101f6565b806106fd816109d4565b9150506106e5565b600654600160a01b900460ff161561075f5760405162461bcd60e51b815260206004820152600f60248201527f4c6f7474657279206973206f70656e00000000000000000000000000000000006044820152606401610258565b4281116107d45760405162461bcd60e51b815260206004820152602260248201527f436c6f73696e672074696d65206d75737420626520696e20746865206675747560448201527f72650000000000000000000000000000000000000000000000000000000000006064820152608401610258565b6008546001600160a01b031633146107eb57600080fd5b60078190556006805460ff60a01b1916600160a01b1790556040517ff06a29c94c6f4edc1085072972d9441f7603e81c8535a308f214285d0653c850906108359083815260200190565b60405180910390a150565b508054600082559060005260206000209081019061037191905b8082111561086e576000815560010161085a565b5090565b60006020828403121561088457600080fd5b5035919050565b634e487b7160e01b600052601160045260246000fd5b600082198211156108b4576108b461088b565b500190565b6000602082840312156108cb57600080fd5b815180151581146108db57600080fd5b9392505050565b6000826108ff57634e487b7160e01b600052601260045260246000fd5b500690565b634e487b7160e01b600052603260045260246000fd5b6001600160a01b0383168152600060206040818401526000845481600182811c91508083168061094b57607f831692505b85831081141561096957634e487b7160e01b85526022600452602485fd5b60408801839052606088018180156109885760018114610999576109c4565b60ff198616825287820196506109c4565b60008b81526020902060005b868110156109be578154848201529085019089016109a5565b83019750505b50949a9950505050505050505050565b6000816109e3576109e361088b565b50600019019056fea264697066735822122051e0a4dd28cb066df3dec1e905fabc47a6cdeed23ab5266e9d486cc1cf1d04f464736f6c63430008090033a2646970667358221220e92cd1fc9dc20c3308c7738ff83d06aa4706f1167a943497acee03aa7a02362464736f6c63430008090033",
  "linkReferences": {},
  "deployedLinkReferences": {}
}